:400000000080002011000000710300007103000008B5044B1A6803F53F5302331A6000F0AFF900BFFA46004010B5054C237833B9044B13B10448AFF300800123237010BDE7
:400040003081FF1F00000000D8040000084B10B51BB108490848AFF300800848036803B910BD074B002BFBD0BDE81040184700BF000000003481FF1FD8040000C880FF1F7A
:400080000000000062B6FEE7FEE700BFF0B40022174611E050F82760F3B226F0FF0608E001EB420511F812406D78A5550132013BDBB2002BF4D10137242FEBD9F0BC704709
:4000C000084B1B78DBB203F00701074A11701B09013213709022054B1A704422A3F2E2231A707047CF0100496E580040585B004008B50A46002100F0E6F908BD08B500F098
:40010000D7F908BD38B500243B4B1C80502202331A700B2202331A80182338490B7002310A80374A13701925023215800232137045F6BF5208310A8002310B7002310A809A
:40014000304A137043F697222F4B1A8002331D7004222E492E48FFF7D1FF02222D4B1A7008224FF040231A70032103F500731970294B1B78DBB229490B70294B1A8041F28B
:400180005122023B1A800CE0264B1B7803F0010343EA440404F003044FF4F07000F04CF9013D0DB1032CEFD115B90320FFF76CFF1D4B4FF480721A8007221A7000221B4919
:4001C0000A704820023108701A700222033B1A7004220A331A70164A137843F07F031370013A137843F001031370013A137843F08003137038BD00BF8040004086400040B3
:400200008A4000409640004098400040A8090048004100400043004008010049A146004022420040254200400440004006400040A243004038B572B6394A137843F0040339
:40024000137000240BE0374863001A19510001440A46898C106AFFF74BFF0134E4B2082CF1D900240CE02F48A20011194B000344B3F86020D96D986DFFF740FF0134E4B2FE
:40028000012CF0D928494FF09040FFF7FFFE0A24264B1C70264A137843F0020313701032137843F002031370224D2B7843F040032B70A2F58632513A137843F0100313701B
:4002C00008221D491D48FFF719FF22461C491D48FFF714FF22461C491C48FFF70FFF22461B491C48FFF70AFF08221B491B48FFF705FF1B4A137843F008031370194C6123D7
:400300002370FFF7FFFE812323700122164B1A70FFF7D6FE0E2229461448FFF7EFFE38BDE8460040DC040000940000488358004003500140A0430040740900480251004001
:400340007C090048C051004088090048105100409409004820510040A009004832510040224300400048004004000840B043004008B500F071F803680C2B00D1FEE7FEE79C
:4003800008B5104E104D16E029686B68AC68002204E051F8040B43F8040B0432A242F8D1E868002203E0002143F8041B04328242F9D11035013E002EE6D100F053F8FFF79E
:4003C00061FEFEE7010000007005000008B5104A104B1A60104A136843F40073136000230AE0032B03D80D4A52F8231000E00C490C4A42F8231001332F2BF2D90A4B1A7843
:400400000A4B1A70074A0A4B1A60FFF713FF08BD0004FA050CED00E014ED00E000000000710300000080FF1FBC760040C080FF1F08ED00E0000000000230800803D000BF30
:4004400001380046FCD17047EFF3108072B6704780F31088704700BF014B1868704700BF2C81FF1F0E4B70B51E460E4C0025E41AA410A54204D056F8253098470135F8E735
:4004800000F064F8084B094C1E46E41AA4100025A54204D056F8253098470135F8E770BD5805000058050000580500006005000010B5431E0A44914204D011F8014B03F8A7
:4004C000014FF8E710BD03460244934202D003F8011BFAE770470000000000003D510040005B00403D510040005B004010100880035B00402443004040000000004F00408D
:400500001800405100403000F05100401000000001400010001401408006001B0140000100400140000A004C01400002005001402000000060520040EC0800480600801AEF
:400540000140F4080048800043000000F8B500BFF8BC08BC9E4670474D000000CD030000F8B500BFF8BC08BC9E4670472900000080050000C880FF1F68000000200000007C
:4005800000000000000000000000000000000000000000000000000000000000000000000000000048050000000000000000000000000000000000000000000000000000EE
:4005C000000000000000000000000000000000000000000000000000000000000000000000000000CC80FF1F00000000000000000000000000000000000000000000000091
:4006000000000000000000000000000000000000000000000000000000000000000000000000000000000000000000000000000000000000000000000000000000000000BA
:40064000000000000000000000000000000000000000000000000000000000000000000000000000000000000000000000000000000000000000000000000000000000007A
:40068000000000000000000000000000000000000000000000000000000000000000000000000000000000000000000000000000000000000000000000000000000000003A
:4006C00000000000000000000000000000000000000000000000000000000000000000000000000000000000000000000000000000000000000000000000000000000000FA
:020000040003F7
:0200000480007A
:40000000044F00400352004002640040046500400101014005030140040401400D050140090701404E0801404A090140630A01404B0B0140490C01403D0D0140010F0140EE
:40004000061501406916014043170140681801404A1901400E1A01404A1B01400940014012410140134201400A430140044401400745014009460140054701400A4801404D
:4000800004490140054C0140094D0140065001400351014001500A4B0D40164B004001601102880F8C0F860F890D8A388B72E20881418D02E208E607EE01B820BE10D804B6
:4000C000DF011D2087048908914098089902A181A808A980E202E601EA01EE05914093049808990AA181B120E201EA08EE80001A01EC040205010618070608C10A380C18C9
:400100000E020F801033110812441313141815111726189C19EC1A031C821D101F68201A21EC25172740281829E82A022B042D6C2F80301332E03307340F358037783A281B
:400140003B883F1056025728580459045B045C225D205F01800D840D8C228E0892109421960298029A0D9B019C0DA00DA402A624AA10AC0DB020B101B40FB610B802BA201D
:40018000BE40D804D904DC61DF010202036004080512070108400A480B200C100D0A0F021004114212201501171018021A881D131E282080250C268027282C102D022E0168
:4001C0002F0A30203501368437103D093E023F804420470866086C046E036F1B760283048C018D089140932196C0974098409AA09B409C029D019E029F31A101A222A36198
:40020000A420A615AB04AD30AF01B284C0FDC2FFC45FCAF0CCF4CED0D840EA01EC80040106021204160126042A083001320234083604402541064210440345FE46BD470C56
:40024000481F49FF4AFF4BFF4C224EF04F0C500458045A045C065D015F0162C0644065016610671168C069016B116C406D016E406F018007823884848860908092049456E6
:400280009609980A9A109C84A004A280A401A804AC84B002B280B47FB608B820BE45C046C105C230C402C5DEC6FDC7CBC83FC9FFCAFFCBFFCC22CEF0CF08D004D409D60450
:4002C000D804DA04DB04DC02DD22DF01E2C0E440E501E610E711E8C0E901EB11EC40ED01EE40EF01000405010608071008A009200A510E2E0F50102414201602172118047E
:400300001A101B821D281E011F0131013201400241104304440845084680484049144A024B204D044E014F1152905308562857415C815D1467828240838084408A808C018E
:400340008D0891609780984C99109B409C029D049E10A101A222A320A70AA804A901AA02AB11B004B408B612C074C2FCC4F6D0EED23CD6F0D890E280E4040180051007E846
:4003800009080BD10F801506191D1BA21D8021802580291B2B6433F8350739203B085602572859045B045C105D105F01802983038429850A87A488618A128B048D108F80D8
:4003C0009001911E922893C1946E9510961199909D90A029A190A454A580A629A710A828A91DAA04AB62AC28AE01B010B20FB421B5F8B640B707B920BA0CBE41D409D6048E
:40040000D804D904DB04DC11DD10DF010120036009010A101048114012201320180119301A5020042110222023012718284029102A022B102D202E022F2030083202336813
:4004400036203748380439403A103B013D423E1846084710580259045A405B206001634066086C046D406F607602836087428D409780C00EC20CC40FCAE7CC7FCEFFD60FA3
:40048000D849E240EE018740AD48B002B110B309E602EC800103020303440410055306AC070C081009200A400B450CDC0E221308162018141C091ED0240C2553267127045D
:4004C00029802D0A2F54301F313032E0330F3580374039023A083B083F5040364102450B47CE483149FF4AFF4BFF4EF04F44500C5401580459045A045B045C335D335F0131
:4005000066C06A406B0282C086408A138C2C8E0390C0910194C098319A0E9CC0A20CA431A606AA08ACC0B030B240B301B480B60FB802BA80BE15BF04C004C704C9FFCA070F
:40054000CBFFCC40CD20CEF0CF05D008D440D604D804D904DA04DB04DC03DD13DF01E040E1A8E240E320002001AA058106040710082809A10A040B080C400E220F08104815
:4005800011481420184819841D011F0422042504264127182D802E042F08310136013C203D083F024040452448104A104D204F085008520457095C025D105E805F086080BD
:4005C00061446304860488808C04914093049808990AA181C0FFC2EFC42FCA70CC81CEE0D061D220D6F0D80FE22CE408004003400502070D08771113130C14771720182440
:4006000019091A121B361C021E0527402C112D052E2A2F3A30403207330F34303530360837403B083F404050410349FF4AFF4BFF4DA04F04501854405604580459045A04BC
:400640005B045C235D265F01604062C06440654066C068C06AC06CC06EC08A028C01910392049304950E99049B09A202A601AD05AF0AB004B202B30FB601B908BE04C04004
:40068000C106C5D1C620C80BC9FFCAFFCBFFCDAFCE0FCF04D018D280D405D604D804D904DA04DB04DC26DD66DF01E040E2C0E440E540E6C0E8C0EAC0ECC0EEC00080012017
:4006C00004220B400C080E0610201240154019401A401B041D021E051F0821082680271428042A902E802F203010310934103501361037043D023E084240461847104820C9
:4007000049024B204D8052105310594A5D805E4063806420662067817340834087408C0293019640982099099AA09C169E089F04A040A210A420B348C053C2E8C48CCA583A
:40074000CCE7CEC0D041D214D60BD8F1E010E408000106010A012401340138203A025418560458045B045C035D305F010010010203100502060107240E2E121015401610B5
:40078000171219221B021C101D901E601F1025012602271129102A102C402E202F123540360537103C103D403E0944484582461047024E02564057205B015E406280634861
:4007C0006C197540762977248008810287408D409205942295409D209E40A102A281A304A408A501A720AA01AB08C0FEC2E0C4F4CAF0CCF0CEF0D0F0D210D611D80DEC801F
:4008000030023120358037083B408708CCF0CE10E210322033083744610867108520862097409B409D80A402A520AB40CCF0D8C0E210E640EE801704500456045A015E01F6
:40084000800497509A049D809F04A402A508A708AA04C420D460D6C0E680EA80810897409D80A402A508A708AF10B201E280EA1013027D01C408DE010020010853019501E3
:40088000AB02C00AD4014640830195019702B010B508D001EA02EE019E40A510A910B101EC012708818084028B4097409D80A402A708C820E2308708A708B308E6400910A3
:4008C00085029E40A510C202128075028E809902B240C408DE04E202EC0100460C460E02104E1A0A1C4C00FF01FF0202888C0000400000003F0000010C080000041900E2BB
:400900000841000000C000001F802000023940C403108000000023E633E70C181C18230001FF400010382C1F0F00C0C00000280800004100340205000100CE000CFFFFFF99
:4009400062A0F0410C000000000002100404040433330001000000000000400200103010001010120000000000000000000000000000000000606000600000008400508C6B
:400980008C008C00000000008000408B8B000000000000001000051212000200000000000001010000001800180018010000000000000000000000000000000000000000C3
:4009C00000000000000000000000000000000000000000000000000000000000000000000000000000000000000000000000000000000000000000000000000000000000F7
:400A000000000000000000000000000000000000000000000000000000000000000000000000000000000000000000000000000000000000000000000000000000000000B6
:400A40000000000000000000000000000000000000000000000000000000000000000000000000000000000000000000000000000000000000000000000000000000000076
:400A80000000000000000000000000000000000000000000000000000000000000000000000000000000000000000000000000000000000000000000000000000000000036
:0200000490006A
:0400000000004005B7
:0200000490105A
:04000000BC90ACAF55
:0200000490303A
:02000000A15409
:0200000490402A
:4000000000000000000000000000000000000000000000000000000000000000000000000000000000000000000000000000000000000000000000000000000000000000C0
:400040000000000000000000000000000000000000000000000000000000000000000000000000000000000000000000000000000000000000000000000000000000000080
:400080000000000000000000000000000000000000000000000000000000000000000000000000000000000000000000000000000000000000000000000000000000000040
:4000C0000000000000000000000000000000000000000000000000000000000000000000000000000000000000000000000000000000000000000000000000000000000000
:0200000490501A
:0C00000000012E16106900012E1AB1BD7F
:00000001FF