:400000000080002011000000051500000515000008B5044B1A6803F53F5302331A6001F091FA00BFFA46004010B5054C237833B9044B13B10448AFF300800123237010BDB7
:400040005881FF1F0000000000450000084B10B51BB108490848AFF300800848036803B910BD074B002BFBD0BDE81040184700BF000000005C81FF1F00450000C880FF1F58
:40008000000000002DE9F041002435E0671CC55DAD081D55C55D065D04F1030E10F80EC0B60846EA851545EA1C15DD5504F1020C10F80E5010F80C60671D10F8078036094A
:4000C00046EA051545EA981503F80C5010F807C0261D855DAD0945EA8C0503F80E50084DA5FB04E56D0811F805E003F806E00D446D78DD550634E4B29442C7D3BDE8F081E0
:40010000ABAAAAAA43789B0023F03F030B70027843789B0943EA82034B7083781B0123F03F038B70427883781B0943EA0213CB70C3789B010B718278C3789B0843EA821300
:400140004B7103798B714379CB717047000000002DE9F04383B004460D463F4B186801902378607843EA002040F3891003F010FD03F0C6F936A3D3E9002303F015FA0646A4
:400180000F46DFF8DC8098F80030C3F3810302AA134413F8040C03F0A1F932463B4603F003FA00222D4B03F029FB03F00FFC2880A378E07843EA002040F3891003F0E8FC6F
:4001C00003F09EF922A3D3E9002303F0EDF906460F4698F80030C3F3810302AA134413F8040C03F07BF98046894602460B463046394603F0D9F90022184B03F0FFFA03F08C
:40020000E5FB68802379607943EA002040F3891003F0BEFC03F074F90DA3D3E9002303F0C3F902460B464046494603F0BDF900220A4B03F0E3FA03F0C9FBA880A379E0792B
:4002400043EA002001F0EEFDE88003B0BDE8F08377BE9F1A2F9D234004450000000024407C83FF1FF8B50B4C24788CB11F460D460646104601F05AFE002404E0305D01F035
:4002800055FE0134E4B2AC42F8D3384601F04EFEF8BD00BF9081FF1FF0B5BBB001F022FE01F082FB01F072FB02F0FEFE02F0A4FF02F014F80A2002F083FD02F077FA0A2072
:4002C00002F07EFD62B601F0C1FD9A4D2878C0F3001001F0CBFD01F091FD02F0D7FB00F019FF954E3146284600F0BAFA934C33882A789349204603F0DFFC204601F022FE4D
:40030000904F384601F01EFE8F4E3146287800F00FFC32787378B17800918C49204603F0CBFC204601F00EFE00F084FC304600F099FC874801F006FE222000F069FC0246AF
:40034000844E30708449204603F0B6FC204601F0F9FD242000F05CFC024630707F49204603F0AAFC204601F0EDFD2E2000F050FC024630707A49204603F09EFC204601F0EB
:40038000E1FD202000F044FC024630707549204603F092FC204601F0D5FD232000F038FC024630707049204603F086FC204601F0C9FD384601F0C6FD6C4801F0CBF96C48EA
:4003C00001F06CFA6B4801F033FB6B4802F0A8FD6A4802F05FFD6A4802F0E4FD694802F08BFE2B7813F0200F14D0C72001F078FA642001F07BFA544B1B78634C1B09013BAB
:40040000237001F06FF92278604B03EB4203988801F028F900F056FC5D4B1B78002B3CD05B4B5B78002B38D0424D2A78594E3270424C5949204603F03FFC204601F082FDB2
:40044000414800F0B1FB024628705449204603F033FC204601F076FD32782B789A4218D0394C0023E3702E2000F0D2FB0246394B1870324D4A49284603F01EFC284601F031
:4004800061FD204600F090FB2A4B18700122454B1A703F4B00221A705A70434B1A78414B1B78002A14BF002303F001033F4A1278002A14BF002303F00103002B00F09D800B
:4004C0001C4C2178022000F09DF900F00DFA1E4D2946207800F02CFB022000F07BF902461C4B1870154E23783149304603F0E4FB304601F027FD284600F0B4FBA87801F0AD
:40050000B5FC237813F0200F54D02B781E4C1B09013B2370C72001F0E3F9642001F0E6F901F0E0F82278194B03EB4203988801F099F85FE07C83FF1FA481FF1FA882FF1F8E
:4005400018450000504500007883FF1F78450000C04500007083FF1FD4450000F04500000C4600002846000044460000B90C0000AD0C0000F50C0000791000009510000058
:400580009D100000E9100000A281FF1F044500007C81FF1F7483FF1F6046000078460000904600007F83FF1F7881FF1F7481FF1FB446000001F036F8002001F091F9002083
:4005C00001F094F970490A88704B1A8007230B800222002000F052F900F086F96C4B5B782BB1312001F07CF9192001F07FF90022674B5A700022674B1A70674B1A78674B89
:400600001B78002A14BF002303F00103604A1278002A14BF002303F00103002B3FD0604B1A885A4B1B889A420FD307225C4B1A8002AB5C4A52F80C0F516803C3C023A022F2
:4006400008210DEB0100FFF70DFE062208A9544B188800F0F3F806A908A8FFF753FD04A906A8FFF775FDBDF91630002B02DA0023ADF81630BDF9162041F288339A4201DD57
:40068000ADF81630C023A022082104A8FFF7EAFD434A1388063313800022404B1A703C4A3D4B197813780B405278002A14BF002303F00103002B3FF4AFAE312000F0A8FAD9
:4006C000394C207000F09EFA207000F05F035F2B06D000F01F0000EB40004600F6B200E0C026324C60222146282000F0CFFA6022A118282000F0CAFA0AAB32462C49204686
:40070000FFF7C0FC002519E09A090132C3EB8213DBB2741BA342A8BF2346DCB200F0E4F8194F22460AAB5919388800F0A7F800F0DBF82544EDB23B881C443C80B54205D2E7
:40074000114B1B8847F6FE729342DDD90E4C02222146002000F092F800F0C6F8B4F90030002B0BDA01240A4B5C7012480023C37000F01AFA104B1870064B1C700023064AFB
:400780001370034A137047E6A481FF1FA081FF1F7481FF1F7F83FF1F7881FF1F7981FF1FCC80FF1F044500007083FF1FA881FF1F6882FF1F7883FF1F7C83FF1F08B50520AA
:4007C00000F0CAF808BD00BF08B5062000F094F808BD00BF00B583B003218DF80410030A8DF805308DF8060002AA002302F8053D012301A800F040F99DF8030003B05DF848
:4008000004FB00BF30B583B004460D46FFF7DCFF02238DF80430230A8DF805308DF806408DF80750002302AA02F8053D04210DEB010000F021F903B030BD00BF10B582B07F
:4008400003248DF80440030A8DF805308DF8060013460A46214601A800F00EF902B010BD38B505460C460220FFF7B4FF2870022221460020FFF7E2FF38BD00BF2DE9F0439B
:4008800083B000AF80468946144602F0CDFC0546FFF79AFF012002F0A9FAE61C04F10A0323F00703ADEB030D02238DF800304FEA18238DF801308DF80280224649460DF153
:4008C000030003F0E5F9002307F1080202F8013DF1B2684600F0D0F8284602F0A9FC0C37BD46BDE8F08300BF08B5FFF767FF10F0010FFAD108BD00BF10B50446002001F004
:4009000061F8204601F08EFB01F064FB10F0080FFAD001F0F1FB0446012001F053F8204610BD00BF10B50446002001F057F8204601F0E0FD002001F0DDFD01F0B3FD10F0A8
:40094000010FFAD001F040FE01F03EFE0446012001F044F8204610BD10B50446002001F031F8204601F05EFB002001F05BFB01F031FB10F0010FFAD001F0BEFB01F0BCFBCD
:400980000446012001F01EF8204610BD10B50446002001F023F8207801F0ACFD607801F0A9FD01F07FFD10F0010FFAD0012001F015F801F095FE01F039FE01F057FE10BD91
:4009C0002DE9F04383B006460C4617469846002001F004F864B2002511E02146082CA8BF0821C9B206EBC50001F06AFE01F05AFD10F0010FFAD0083C64B201356DB2002CB7
:400A0000EBDC01F06DFE01F011FE0026009601964FFA88F820E0C146B8F1080FA8BF4FF008095FFA89F1684601F04AFE01F03AFD10F0010FFAD0002406E004EBC60501F088
:400A4000C3FD78550134E4B24C45F6DBA8F108084FFA88F8013676B2B8F1000FDBDC012000F0BCFF01F03CFE01F0E0FD01F0FEFD03B0BDE8F08300BF2DE9F04383B0064679
:400A80000C4617469846002000F09CFF64B2002511E02146082CA8BF0821C9B206EBC50001F0A6FB01F096FA10F0010FFAD0083C64B201356DB2002CEBDC01F0A9FB01F061
:400AC0004DFB0026009601964FFA88F820E0C146B8F1080FA8BF4FF008095FFA89F1684601F086FB01F076FA10F0010FFAD0002406E004EBC60501F0FFFA78550134E4B2A0
:400B00004C45F6DBA8F108084FFA88F8013676B2B8F1000FDBDC012000F054FF01F078FB01F01CFB01F03AFB03B0BDE8F08300BF00F00303032B0ED8DFE803F00205080BB5
:400B400017230B7007E027230B7004E037230B7001E047230B70C0F38103032B0ED8DFE803F00205080B00234B7007E010234B7004E020234B7001E030234B70C0F300132C
:400B80000BB11BB904E000238B7001E001238B70C0F3401008B118B970470023CB7070478023CB70704700BF0378DBB2372B05D0472B05D0272B05D0002304E0022302E03B
:400BC000032300E001234278D2B2202A06D0302A07D0102A07D143F0040304E043F0080301E043F00C038278D2B2012A01D143F01003C278D2B2802A01D143F020031846FC
:400C0000704700BF08B5AF20FFF78CFE08BD00BF08B540F08000FFF785FE08BD00B583B08DF804008DF8051001A8FFF7AFFE03B05DF804FB08B580212420FFF7EFFF0021FE
:400C40002E20FFF7EBFF02212220FFF7E7FF48212420FFF7E3FF024801F074F908BD00BFE846000010B5044601782020FFF7D6FF61782320FFF7D2FFE1782E20FFF7CEFF46
:400C8000014801F05FF910BDF046000000B583B060F03F0302A800F8013D13460A460121FFF78EFE03B05DF804FB00BF0122014B1A7070477881FF1F0122014B5A7070477B
:400CC0007881FF1F08B5074B00221A715A71064801F038F9054801F035F9054801F032F908BD00BF7881FF1F004700006C4700007C47000038B501F003F90246874B18703D
:400D0000874C8849204602F0D7FF204601F01AF9854D6B792A798549204602F0CDFF204601F010F92B79002B78D17C4B1B78423B312B00F25581DFE813F032005301530115
:400D40005301590053015301530153015301690053015301530161005301530140005301530153015301530153015301530153015301530153015301530132005301530102
:400D80005301590053015301530153015301690053015301530161005301530140000022614B1A7162488023C370FFF7FDFE614B18700122604B1A7012E100235A4A1371A0
:400DC0005B4CE37002215D4B187801F089FF2046FFF7EAFE574B187000F06EFD02F0AEF80122554B1A70FFF76DFFF9E0544801F0A9F84A4B1A784C4B1A71F1E0514801F06A
:400E0000A1F8464B1A78484B1A71E9E04E4801F099F8424B1A78444B1A71E1E0463B2A2B00F2DE80DFE813F02B00DC00DC00DC00DC00DC00BB00DC00DC00DC006100DC000A
:400E4000DC00DC00DC00DC00DC00DC00DC00DC00DC00DC00DC00DC00DC00DC00DC00DC00DC00DC00DC00DC002B00DC00DC00DC00DC00DC00BB00DC00DC00DC006100274BA9
:400E80001B78313B0E2B2CD8DFE803F0081018202B2B2B2B2B2B2B2B2B2B28002B4B1A78234B5A700122204B5A7199E0274B5A781F4B5A7001221C4B5A7191E0234B9A7846
:400EC0001B4B5A700122184B5A7189E01F4BDA78174B5A700122144B5A7181E0FFF7F2FE7EE00022104B5A717AE00C4B1B78313B0E2B50D8DFE803F0082E38424F4F4F4F2F
:400F00004F4F4F4F4F4F4C00114B1B7843F00703074A13700122044B5A7161E07D83FF1FA882FF1F3C4800007881FF1F504800007883FF1F7C83FF1F7F83FF1F8083FF1FFD
:400F40006848000034490000004A0000E0460000E44600003F4B5B7843F007033E4A137001223E4B5A713BE03A4B9B7843F00703394A13700122394B5A7131E0354BDB7842
:400F800043F00703344A13700122344B5A7127E0FFF798FE24E00022304B5A7120E0304B1B78312B0DD03F2B14D0302B15D101222A4B5A712B4800F0C5FF0022264B9A708A
:400FC0000EE00124254B5C71274800F0BBFF224B9C7005E0FFF776FE02E000221F4B5A711D4BDB78CBB91E4B1B78562B01D0762B13D11A4A1371184B1B781C4C1B09013BCF
:40100000237000F023FC2278194B33F8120000F0DDFB012000F074FB38BD104B1B79562B01D0762B14D10E4B1B78552B03D0752B01D03F2B0CD100F0AFFB07220D4B1A8023
:40104000002000F05DFB0C2000F070FFFFF73AFE38BD00BFE44600007883FF1F7881FF1F7D83FF1F7C4A0000904A0000A281FF1F08450000CC80FF1F08B50122044B1A70D2
:4010800001F06EFFB0FA80F0400901F05DFF08BD7481FF1F08B500F0DFFA08BD08B5002000F02EFB00F078FB07220A4B1A800A480023C370FFF778FD084B187000F0FCFBB9
:4010C00001F03CFF0122064B1A70064800F03AFF08BD00BFCC80FF1F7883FF1F7C83FF1F7F83FF1FA44A000008B50022064B1A700122064B1A700C2000F018FF044800F0F6
:4011000021FFFFF7DFFD08BD7C83FF1F7F83FF1FBC4A000038B541F6FF734FF480420121022001F0C5FE054601F00CFE044606230246402101F020FE074A92B244F6106171
:40114000204601F02DFE2146284601F0BDFD0121284601F071FD38BD6882FF1FFEE700BFF0B40022174611E050F82760F3B226F0FF0608E001EB420511F812406D78A555E5
:401180000132013BDBB2002BF4D10137242FEBD9F0BC7047084B1B78DBB203F00701074A11701B09013213709022054B1A704422A3F2E2231A707047CF0100496E5800408B
:4011C000585B004008B50A46002102F06CFD08BD08B502F05DFD08BD38B500243D4B1C80502202331A700B2202331A8018233A490B7002310A80394A13701925023215807B
:401200000232137045F6BF5208310A8002310B7002310A8002310B7002310A80304A137043F697222F4B1A8002331D7004222E492E48FFF7CDFF02222D4B1A7008224FF0E9
:4012400040231A70032103F500731970294B1B78DBB229490B70294B1A8041F25122023B1A800CE0264B1B7803F0010343EA440404F003044FF4F07001F0CEFF013D0DB1A9
:40128000032CEFD115B90320FFF768FF1D4B4FF480721A8007221A7000221B490A704820023108701A700222033B1A7004220A331A7003F297331A78FF221A70134A1378AD
:4012C00043F001031370013A137843F08003137038BD00BF80400040864000408A4000409A4000409C4000407C0A0048004100400043004008010049A1460040224200404C
:40130000254200400440004006400040A1430040012814D810B44000C0B2094B53F820101A18147C0A7822430A700130C0B253F820201844017C13780B43137010BC704775
:40134000CC4A0000012816D810B44000C0B20A4B53F820101A18147C0A7822EA04020A700130C0B253F820201844017C137823EA0103137010BC7047CC4A0000012808D862
:40138000044B03EB800252691844017F13780B4313707047CC4A0000012809D8054B03EB800252691844017F137823EA01031370704700BFCC4A000038B572B63B4A13787D
:4013C00043F00403137000240BE0394863001A19510001440A46898C106AFFF7F3FE0134E4B2072CF1D900240BE03149A3001819420088180622416D006DFFF7E9FE013452
:40140000E4B2002CF1D02B494FF09040FFF7A8FE0A24294B1C70042228492948FFF7D8FE284A137843F0020313701032137843F002031370244D2B7843F040032B70A2F50C
:401440008632513A137843F01003137008221F491F48FFF7BDFE22461E491F48FFF7B8FE22461E491E48FFF7B3FE22461D491E48FFF7AEFE08221D491D48FFF7A9FE1D4A9E
:40148000137843F0080313701B4C61232370FFF7A3FE812323700122184B1A70FFF77AFE0E2229461648FFF793FE38BDE8460040CC4A00009400004883580040800A004850
:4014C0005076004003500140A0430040480A004802510040500A0048C05100405C0A004810510040680A004820510040740A00483251004022430040004800400400084053
:40150000B043004008B502F097FB03680C2B00D1FEE7FEE708B5094B1A681044084BC31A802B02DC054B186005E002F085FB0C2303604FF0FF32104608BD00BFD080FF1FF1
:40154000D083FF1F08B5104E104D16E029686B68AC68002204E051F8040B43F8040B0432A242F8D1E868002203E0002143F8041B04328242F9D11035013E002EE6D102F09A
:4015800061FBFEF789FEFEE701000000804B000008B5114A114B1A60114A136843F40073136000230AE0032B03D80E4A52F8231000E00D490D4A42F8231001332F2BF2D983
:4015C0000B4B1A780B4B1A70084A0B4B1A60FFF7F3FE01F017FB08BD0004FA050CED00E014ED00E000000000051500000080FF1FBC760040C080FF1F08ED00E0084A13785B
:4016000043F0040313701032137843F00403137002F66532137843F001031370704700BFA3430040084A137803F0FE031370A2F67532137803F0FB0313701032137803F0A1
:40164000FB031370704700BF184F0040014B1870704700BF1B4F0040014B1878704700BF1B4F0040014B1880704700BF1C4F0040014B1880704700BF1E4F004008B5164AB3
:40168000137803F0010313700232137803F0FC031370124B1A7802F0CF021A701A7842F030021A701A7802F0F0021A701A7842F00F021A700A4A137843F00103137040F20B
:4016C000E730FFF7CFFF40F2E730FFF7D1FF0820FFF7BCFF08BD00BF184F0040234F0040194F004008B5054B1B7823B9FFF7C6FF0122024B1A70FFF781FF08BD7E81FF1F19
:40170000044A137803F0FE0300F0010018431070704700BF30510040014B1B685866704708ED00E04001C0B2014B1870704700BF09E400E04FF40072014B1A60704700BF05
:4017400000E100E04FF40072014B1A60704700BF80E100E010B50446FFF7F4FF2046FFF7DBFF0720FFF7DEFFFFF7E4FF10BD00BF084A137843F0080313701032137843F04B
:401780000803137002F67132137843F001031370704700BFA3430040084A137803F0FE031370A2F68132137803F0F70313701032137803F0F7031370704700BF244F00401F
:4017C000014B1870704700BF274F0040014B1880704700BF284F0040014B1880704700BF2A4F004008B5164A137803F0010313700232137803F0FC031370124B1A7802F08E
:40180000CF021A701A7842F030021A701A7802F0F0021A701A7842F00F021A700A4A137843F00103137040F2E730FFF7CFFF40F2E730FFF7D1FF0820FFF7C2FF08BD00BF56
:40184000244F00402F4F0040254F004008B5054B1B7823B9FFF7C6FF0122024B1A70FFF787FF08BD7F81FF1F014B1B689865704708ED00E04001C0B2014B1870704700BF5E
:4018800006E400E04022014B1A60704700E100E04022014B1A60704780E100E010B50446FFF7F6FF2046FFF7DFFF0720FFF7E2FFFFF7E8FF10BD00BF4022014B1A60704724
:4018C00000E200E0024A137843F080031370704778650040014B1880704700BF0E680040014B1880704700BF8E680040014B1880704700BF4E680040014B1870704700BF08
:4019000088640040014B1878704700BF68640040014B188880B27047AE68004008B501E0FFF7F6FFFFF7EEFF10F0100FF8D108BD10B5144A137803F0C00343F009031370B3
:40194000E13A137843F0010313700F4C237843F0010323700020FFF7BDFF0020FFF7C0FF0020FFF7C3FF0020FFF7C6FF01F05CFC237843F01003237001F05AFCFFF7CEFF26
:4019800010BD00BF786500409864004008B5054B1B7823B9FFF7CCFF0122024B1A70FFF791FF08BD8081FF1F054A137843F0800313701032137843F080031370704700BF12
:4019C000A2430040044A137803F0EF03000100F0100018431070704720510040044A137803F07F03C001C0B218431070704700BF10510040014B1B681866704708ED00E074
:401A00004001C0B2014B1870704700BF08E400E04FF48072014B1A60704700BF00E100E04FF48072014B1A60704700BF80E100E010B50446FFF7F4FF2046FFF7DBFF0720A4
:401A4000FFF7DEFFFFF7E4FF10BD00BF10B59DF80840012C51D1013809282ED8DFE800F0052D2D052D2D0F192D230F2B03D92548007840B222E02448007840B21EE00F2BE3
:401A800003D92248007840B218E02148007840B214E00F2B03D91F48007840B20EE01E48007840B20AE00F2B03D91C48007840B204E01B48007840B200E0002001EB401156
:401AC00001FB02F1C90B8AB20D2B0BD8C3F10E0289B211418AB2611E124800EB810101338B7005E0631E0F4901EB83030F219970013C0C4B23F8242010BD002001F05EF939
:401B000010BD00BF180100491C010049190100491D0100491A0100491E0100491B0100491F0100498481FF1FF8B5074601F07CFB06460D4D2B7843F003032B700B4C237859
:401B400043F0030323700A4B1F70032001F04EF92B7803F0FC032B70237803F0FC032370304601F065FBF8BDF8460040F9460040925800400022334B1A71012860D12DE9CC
:401B8000F0413222304B1A70052602331E70072201331A70002401331C7001331C7016232A4A137002321470013214700132147001250A321570142702F527621770013270
:401BC000167001321370224B1C70442203331A70482201331A7001331D704FF00208023383F80080222201331A70282201331A70EB2201331A705220FFF796FF5822154B7C
:401C00001A7001331C7005331E70013383F8008001331C7001331C70204600F085FECD220D4B1A602946042000F0A2FE2946384600F052FF09491D2001F0E2F8BDE8F0818A
:401C4000704700BF8481FF1F004E0040064E004087580040945800408483FF1F491E0000F0B583B0284D01272F70284E00247471102000F06BFE102000F01CFF07211D2016
:401C800001F0D2F80422224B1A7001331C7007331C70204A137843F0180313701E4B1C7003F2F5231C7001331C700A23A2F28722137001321470023214701221053211706B
:401CC000132101321170043214701421A2F68C221170009747F6060248F66B510220FFF7B5FE2B78013B06EB83039A780B4B1A702B78013B36F82320094B1A802878FFF789
:401D000039FF03B0F0BD00BFD480FF1F8481FF1F96580040075B0040935800400E4E00400C4E004070B501F07FFA06462A4B1B782A4B1A7842F001021A701A7842F0100207
:401D40001A7010331A7842F001021A701A7842F010021A70224D2B7843F002032B70214C237843F0020323701F4A137843F003031370032001F03AF82B7803F0FD032B7006
:401D8000237803F0FD032370184A137843F0060313707A22164B1A70164A137843F0010313701032137843F0010313700F3A137843F0010313701032137843F0010313708E
:401DC0004FF000530C4A1360A2F5C0721360304601F02EFA70BD00BFD480FF1FAA430040F8460040F9460040915800407758004082580040A143004080E200E008B5084B6D
:401E00009B794BB9064BDB7913F0FF0F01D1FFF727FF0122024B9A71FFF784FF08BD00BF8481FF1F064B9B68C01A4FF47A7303FB00F0044B1B6890FBF3F000B2704700BF97
:401E40008481FF1F8483FF1F704700BF10B5002404E02046FFF776FA0134E4B2012CF8D9FF22014B1A7010BDD580FF1F10B50446FFF7ECFF2046FFF74BFA014B1C7010BDD5
:401E8000D580FF1F7222084B1A702022013B1A700622A3F5AF731A70472210331A70002203F24D131A7070478B65004010B501F0BBF904460A4A137843F020031370013A05
:401EC000137843F010031370013A137843F01003137000F06DFE204601F0AAF910BD00BF9B65004008B5054B1B7823B9FFF7CAFF0122024B1A70FFF7D9FF08BD9081FF1FE7
:401F0000084B1B78DBB213F0200F06D0064A1078C0B213F01E0F02D17047002070470020704700BF6A65004048650040034B1B7813F0040FFAD1024B18707047696500405D
:401F40004A64004038B5074B1B782BB938BDFFF7EDFF0134A4B201E005460024285D0028F5D138BD9081FF1F0222014B1A60704700E100E00122014B1A60704700E100E0B1
:401F800008B501F051F90C4A137843F0200313700332137843F010031370013A137843F01003137001F044F900F010FEFFF7DCFFFFF7E0FF08BD00BF946400400222014B59
:401FC0001A60704780E100E00122014B1A60704780E100E010B5FFF7F1FF064B1C78064A137803F009031C4300231370FFF7BCFF204610BD676400408883FF1F10B5FFF74C
:40200000E3FF064B1B78064A147804F040041C4300231370FFF7AEFF204610BD66640040A483FF1F10B504462B4B1A7802F0FF0312B1013BDBB200E00723284A1278D2B27B
:402040009342F1D0FFF7BAFF254B1978254A137803F009030B4313701F4B1A78D2B21F4B1B78DBB29A4207D11E4B1B7813F0040F02D01D4B1C702CE0184A13780133DBB200
:4020800013701378DBB2072B02D90022134B1A70124B1A78D2B2104B1B78DBB29A420ED10D4A13780133DBB213701378DBB2072B02D90022084B1A7001220C4B1A70074B25
:4020C0001B78DBB20A4AD4540A4A137843F004031370FFF749FF10BDA183FF1FA283FF1F676400408883FF1F446400409483FF1F8C83FF1F8764004010B5FFF765FF134BF2
:402100001A78D2B2124B1B78DBB29A4214D0114B1B7813F0FF0F0CD10C4A13780133DBB213701378DBB2072B06D90022074B1A7002E00022074B1A70044B1B78DBB2064A84
:40214000D45CE4B2FFF716FF204610BD8983FF1FA383FF1FA083FF1F9883FF1F08B501E0094B1B78094B1B7813F0200FF8D1FFF72BFF0023064A1370064A1370064A137050
:40218000FFF7F8FE08BD00BF5464004066640040A083FF1F8983FF1FA383FF1F08B501F043F80E4B1A7842F001021A701A7802F0FE021A7001F03CF8FFF700FF0023084ACE
:4021C0001370084A1370084A1370084A137803F0FB031370FFF7C8FE08BD00BF946400409483FF1FA183FF1FA283FF1F8764004070B506460C46002506E0705DFFF712FF62
:402200000135EDB2013CE4B2002CF6D170BD00BF08B501E00A4B1B780A4B1B7813F0200FF8D101F001F8084B1A7842F001021A701A7802F0FE021A7000F0FAFF08BD00BFA5
:4022400054640040666400409464004010B50F22174B1A70174C022323600721012000F0E3FD1549012000F0CBFD012323600721002000F0D9FD1149002000F0C1FDFFF714
:40228000C7FF00240E4B1C700E4B1C700E4B1C700E4B1C700E4B1C700E4B1C70FFF79AFEFFF7ACFE0C4B1C702022013B1A7010BD8464004080E100E0F922000099230000B0
:4022C000A083FF1F8983FF1FA383FF1F9483FF1FA183FF1FA283FF1F8764004008B5054B1B7823B9FFF7B2FF0122024B1A70FFF747FE08BD9281FF1F28E01F4B19781F4A90
:40230000137803F009030B431370137813F0040F24D01B4B1B7813F0FF0F0CD1194A13780133DBB213701378DBB2072B06D90022144B1A7002E00022114B1A70114B1B7887
:40234000DBB2114AD35CDBB2104A13700D4B1A78D2B20F4B1B78DBB29A42CED1094B1A78D2B20B4B1B78DBB29A4204D1094A137803F0FB0313707047676400408883FF1FAB
:402380009483FF1FA183FF1F8C83FF1F44640040A283FF1F87640040204B1A7820490B7803F0400313430B7032E01E4B1A78D2B21D490B780133DBB20B700B78DBB2072B3B
:4023C00002D90021184B1970174B1978C9B2174B1B78DBB299420ED114490B780133DBB20B700B78DBB2072B02D900210F4B197001210F4B19700C4B1B78DBB20D49CA541E
:40240000064B1A7806490B7803F0400313430B70034B1B7813F0200FC7D1704766640040A483FF1F54640040A383FF1F8983FF1FA083FF1F9883FF1F0822014B1A607047A8
:4024400000E100E00422014B1A60704700E100E008B500F0E9FE0C4A137843F020031370013A137843F0100313700332137843F01003137000F0DCFE00F0B6FBFFF7DCFF95
:40248000FFF7E0FF08BD00BF9A6400400822014B1A60704780E100E00422014B1A60704780E100E010B5FFF7F1FF064B1C78064A137803F009031C4300231370FFF7BCFF99
:4024C000204610BD69640040C483FF1F10B5FFF7E3FF064B1B78064A147804F040041C4300231370FFF7AEFF204610BD6C640040AB83FF1F10B504462B4B1A7802F0FF0360
:4025000012B1013BDBB200E00723284A1278D2B29342F1D0FFF7BAFF254B1978254A137803F009030B4313701F4B1A78D2B21F4B1B78DBB29A4207D11E4B1B7813F0040FA5
:4025400002D01D4B1C702CE0184A13780133DBB213701378DBB2072B02D90022134B1A70124B1A78D2B2104B1B78DBB29A420ED10D4A13780133DBB213701378DBB2072B10
:4025800002D90022084B1A7001220C4B1A70074B1B78DBB20A4AD4540A4A137843F004031370FFF749FF10BDC583FF1FAC83FF1F69640040C483FF1F4B640040B883FF1F3B
:4025C000B083FF1F8964004010B5FFF765FF134B1A78D2B2124B1B78DBB29A4214D0114B1B7813F0FF0F0CD10C4A13780133DBB213701378DBB2072B06D90022074B1A7064
:4026000002E00022074B1A70044B1B78DBB2064AD45CE4B2FFF716FF204610BDAA83FF1FA883FF1FA983FF1FBC83FF1F08B501E0094B1B78094B1B7813F0200FF8D1FFF75F
:402640002BFF0023064A1370064A1370064A1370FFF7F8FE08BD00BF5B6400406C640040A983FF1FAA83FF1FA883FF1F08B500F0DBFD0E4B1A7842F001021A701A7802F084
:40268000FE021A7000F0D4FDFFF700FF0023084A1370084A1370084A1370084A137803F0FB031370FFF7C8FE08BD00BF9B640040B883FF1FC583FF1FAC83FF1F896400402F
:4026C00070B506460C46002506E0705DFFF712FF0135EDB2013CE4B2002CF6D170BD00BF08B501E00A4B1B780A4B1B7813F0200FF8D100F099FD084B1A7842F001021A701E
:402700001A7802F0FE021A7000F092FD08BD00BF5B6400406C6400409B64004010B50F22174B1A70174C082323600721032000F07BFB1549032000F063FB042323600721F5
:40274000022000F071FB1149022000F059FBFFF7C7FF00240E4B1C700E4B1C700E4B1C700E4B1C700E4B1C700E4B1C70FFF79AFEFFF7ACFE0C4B1C70202203331A7010BDFD
:402780008A64004080E100E0C927000069280000A983FF1FAA83FF1FA883FF1FB883FF1FC583FF1FAC83FF1F8964004008B5054B1B7823B9FFF7B2FF0122024B1A70FFF7FF
:4027C00047FE08BD9381FF1F28E01F4B19781F4A137803F009030B431370137813F0040F24D01B4B1B7813F0FF0F0CD1194A13780133DBB213701378DBB2072B06D90022DD
:40280000144B1A7002E00022114B1A70114B1B78DBB2114AD35CDBB2104A13700D4B1A78D2B20F4B1B78DBB29A42CED1094B1A78D2B20B4B1B78DBB29A4204D1094A137883
:4028400003F0FB031370704769640040C483FF1FB883FF1FC583FF1FB083FF1F4B640040AC83FF1F89640040204B1A7820490B7803F0400313430B7032E01E4B1A78D2B2C1
:402880001D490B780133DBB20B700B78DBB2072B02D90021184B1970174B1978C9B2174B1B78DBB299420ED114490B780133DBB20B700B78DBB2072B02D900210F4B1970E2
:4028C00001210F4B19700C4B1B78DBB20D49CA54064B1A7806490B7803F0400313430B70034B1B7813F0200FC7D170476C640040AB83FF1F5B640040A883FF1FAA83FF1FDB
:40290000A983FF1FBC83FF1F10B5002404E02046FEF742FD0134E4B2012CF8D9FF22014B1A7010BDD680FF1F10B50446FFF7ECFF2046FEF723FD014B1C7010BDD680FF1F04
:40294000014B188880B2704780400040034B1A7800F0F80010431870704700BF82400040024B187800F00700704700BF8240004070B505460E46FFF7F3FF0446FFF7E0FF50
:40298000A84256D02B4B1B7803F0010294B900B185B938B9284B1D80284A137803F0BF03137070BD254A137843F040031370224B1D8070BD22B3002321490B7001240F31FD
:4029C0000C7004310B700C390B7803F07F030B701A4B1B7813F0080F00D08DB9194B18800721013B1970164B1B7813F0010FFAD110490B7803F0FE030B700021104B1970C0
:402A00000C4B1B7813F0010F0DD00E4B1D800EB1032200E001220A4B1A70094B1B7813F0010FFAD170BD044B1D8002490B7813430B7070BDA243004080400040824000402F
:402A40000140004002400040704700BF024B1B68C3F8B400704700BF08ED00E04001C0B2014B1870704700BF1DE400E04FF00052014B1A60704700BF00E100E04FF0005256
:402A8000014B1A60704700BF80E100E008B5FFF7F5FF0448FFF7DAFF0720FFF7DFFFFFF7E5FF08BD492A0000014B188880B2704700410040034B1A7800F0F80010431870D1
:402AC000704700BF02410040024B187800F00700704700BF0241004070B505460E46FFF7F3FF0446FFF7E0FFA84256D02B4B1B7803F0010294B900B185B938B9284B1D80F9
:402B0000284A137803F0BF03137070BD254A137843F040031370224B1D8070BD22B3002321490B70012413310C7004390B7008390B7803F07F030B701A4B1B7813F0080FC9
:402B400000D08DB9194B18800721013B1970164B1B7813F0010FFAD110490B7803F0FE030B700021104B19700C4B1B7813F0010F0DD00E4B1D800EB1032200E001220A4B28
:402B80001A70094B1B7813F0010FFAD170BD044B1D8002490B7813430B7070BDA143004000410040024100400140004002400040054A137843F0080313701032137843F01B
:402BC00008031370704700BFA2430040054A137843F0040313701032137843F004031370704700BFA2430040054A137843F0020313701032137843F002031370704700BF5D
:402C0000A24300400B4A7F2313708021517007E0DA0002F1804202F5F042013BDBB21370002BF5D1DB0003F1804303F5F04300221A707047D880FF1F172815D831B103010F
:402C40000A495A5C42F020025A5405E0030107495A5C02F0DF025A540001044A835C43F00103835400207047012070471070004017280BD80001064A835C03F0F1034900AC
:402C800001F00E011943815400207047012070471070004041F6FF73994201D14FF4005141F6FF739A4201D14FF40052172808D8C00000F1804000F5EC408180C28000208A
:402CC00070470120704700BF172805D8034B03EB00104172002070470120704710700040172809D8054B03EB0010037901F0070119430171002070470120704710700040DC
:402D000017281BD810B4C00000F1804404F5EC44D201D2B201F07F01114321709DF804201201D2B203F00F03134363709DF8083003F00F03A3700020E07001E001207047C6
:402D400010BC704710B500F06FFA0A4B5B78182B0BD9084A1478013B5370E30003F1804303F5F0431B78137000E0FF2400F060FA204610BDD880FF1F10F0800F0CD111F444
:402D8000704F0BD1C00000F1804000F5F04001808270C37000207047012070470120704710F0800F08D1C00000F1804000F5F0408180C280002070470120704701BE70474F
:402DC00010B5044605E0084B186800F025FAA4F50044B4F5004FF6D8034B586800FB04F000F01AFA10BD00BFE080FF1F08B5034B1B7A00FB03F000F00FFA08BDE080FF1F85
:402E000070B504460E46074B1D681F2802D90020FFF7D4FF04F01F04103455F8240045F8246070BD08ED00E038B504460D46072902D90020FFF7C2FF1F2C02D90020FFF7B6
:402E4000BDFF04F01F0000F1604000F564406D01EDB2057038BD00BF014B1B689866704708ED00E04001C0B2014B1870704700BF0AE400E04FF48062014B1A60704700BF9E
:402E800000E100E04FF48062014B1A60704700BF80E100E010B50446FFF7F4FF2046FFF7DBFF0720FFF7DEFFFFF7E4FF10BD00BFF0B583B016461F460B4C0A25257000234B
:402EC000019300932B460A4601462846FFF718FF3A4631462078FFF7DDFE02212078FFF7C7FE207803B0F0BDF080FF1F014B1B681865704708ED00E04001C0B2014B18706D
:402F0000704700BF04E400E01022014B1A60704700E100E01022014B1A60704780E100E010B50446FFF7F6FF2046FFF7DFFF0720FFF7E2FFFFF7E8FF10BD00BF1022014BDA
:402F40001A60704700E200E0044A137803F0FD03400000F0020018431070704730510040024B1878C0F34000704700BF31510040014B1B685865704708ED00E04001C0B23A
:402F8000014B1870704700BF05E400E02022014B1A60704700E100E02022014B1A60704780E100E010B50446FFF7F6FF2046FFF7DFFF0720FFF7E2FFFFF7E8FF10BD00BFE3
:402FC000084A137843F0010313701032137843F00103137002F64D32137843F001031370704700BFA3430040014B1870704700BF034F004010B50446094B1B7813F0010F76
:4030000002D00020FFF7DAFE054B1A7842F001021A70044A14801A7802F0FE021A7010BDA3430040064F0040014B1880704700BF044F004008B5184B1A7802F001021A7099
:4030400016490A7802F0FC020A701A7842F004021A70134A137843F001031370114B1A7802F0CF021A701A7842F030021A701A7802F0F0021A701A7842F00F021A7041F2C2
:403080008830FFF7D1FF41F28830FFF7B3FF0820FFF7AAFF08BD00BF004F0040024F0040014F00400B4F004008B5054B1B7823B9FFF7C0FF0122024B1A70FFF781FF08BD04
:4030C0009481FF1F014B1B68D865704708ED00E04001C0B2014B1870704700BF07E400E08022014B1A60704700E100E08022014B1A60704780E100E010B50446FFF7F6FF03
:403100002046FFF7DFFF0720FFF7E2FFFFF7E8FF10BD00BF084A137843F0020313701032137843F00203137002F65932137843F001031370704700BFA3430040014B187096
:40314000704700BF0F4F004010B50446094B1B7813F0020F02D00020FFF730FE054B1A7842F002021A70044A14801A7802F0FD021A7010BDA3430040124F0040014B188012
:40318000704700BF104F004008B5174B1A7802F001021A7015490A7802F0FC020A701A7842F004021A70124A137843F001031370104B1A7802F0CF021A701A7842F030025B
:4031C0001A701A7802F0F0021A701A7842F00F021A7042F21070FFF7D1FF0020FFF7B4FF0820FFF7ABFF08BD0C4F00400E4F00400D4F0040174F004008B5054B1B7823B920
:40320000FFF7C2FF0122024B1A70FFF783FF08BD9581FF1F000000000230800803D000BF01380046FCD17047EFF3108072B6704780F31088704700BF81F0004102E000BFF8
:4032400083F0004330B54FEA41044FEA430594EA050F08BF90EA020F1FBF54EA000C55EA020C7FEA645C7FEA655C00F0E2804FEA5454D4EB5555B8BF6D420CDD2C4480EA83
:40328000020281EA030382EA000083EA010180EA020281EA0303362D88BF30BD11F0004F4FEA01314FF4801C4CEA113102D0404261EB410113F0004F4FEA03334CEA133317
:4032C00002D0524263EB430394EA050F00F0A780A4F10104D5F1200E0DDB02FA0EFC22FA05F2801841F1000103FA0EF2801843FA05F359410EE0A5F120050EF1200E012A6C
:4033000003FA0EFC28BF4CF0020C43FA05F3C01851EBE37101F0004507D54FF0000EDCF1000C7EEB00006EEB0101B1F5801F1BD3B1F5001F0CD349085FEA30004FEA3C0C9A
:4033400004F101044FEA445212F5800F80F09A80BCF1004F08BF5FEA500C50F1000041EB045141EA050130BD5FEA4C0C404141EB010111F4801FA4F10104E9D191F0000F44
:4033800004BF01460020B1FA81F308BF2033A3F10B03B3F120020CDA0C3208DD02F1140CC2F10C0201FA0CF021FA02F10CE002F11402D8BFC2F1200C01FA02F120FA0CFCE5
:4033C000DCBF41EA0C019040E41AA2BF01EB0451294330BD6FEA04041F3C1CDA0C340EDC04F11404C4F1200220FA04F001FA02F340EA030021FA04F345EA030130BDC4F15F
:403400000C04C4F1200220FA02F001FA04F340EA0300294630BD21FA04F0294630BD94F0000F83F4801306BF81F480110134013D4EE77FEA645C18BF7FEA655C29D094EA02
:40344000050F08BF90EA020F05D054EA000C04BF1946104630BD91EA030F1EBF0021002030BD5FEA545C05D14000494128BF41F0004130BD14F580043CBF01F5801130BDEF
:4034800001F0004545F0FE4141F470014FF0000030BD7FEA645C1ABF194610467FEA655C1CBF0B46024650EA013406BF52EA033591EA030F41F4002130BD00BF90F0000F75
:4034C00004BF0021704730B54FF4806404F132044FF000054FF0000150E700BF90F0000F04BF0021704730B54FF4806404F1320410F0004548BF40424FF000013EE700BF2D
:4035000042004FEAE2014FEA31014FEA02701FBF12F07F4393F07F4F81F06051704792F0000F14BF93F07F4F704730B54FF4607401F0004521F0004120E700BF50EA010258
:4035400008BF704730B54FF000050AE050EA010208BF704730B511F0004502D5404261EB41014FF4806404F132045FEA915C3FF4DCAE4FF003025FEADC0C18BF03325FEADE
:40358000DC0C18BF033202EBDC02C2F1200300FA03FC20FA02F001FA03FE40EA0E0021FA02F11444C1E600BF70B54FF0FF0C4CF4E06C1CEA11541DBF1CEA135594EA0C0F28
:4035C00095EA0C0F00F0DEF82C4481EA030621EA4C5123EA4C5350EA013518BF52EA033541F4801143F4801338D0A0FB02CE4FF00005E1FB02E506F00042E0FB03E54FF034
:403600000006E1FB03569CF0000F18BF4EF0010EA4F1FF04B6F5007F64F5407404D25FEA4E0E6D4146EB060642EAC62141EA55514FEAC52040EA5E504FEACE2EB4F1FD0C9E
:4036400088BFBCF5E06F1ED8BEF1004F08BF5FEA500E50F1000041EB045170BD06F0004646EA010140EA020081EA0301B4EB5C04C2BFD4EB0C0541EA045170BD41F48011E6
:403680004FF0000E013C00F3AB8014F1360FDEBF002001F0004170BDC4F10004203C35DA0C341BDC04F11404C4F1200500FA05F320FA04F001FA05F240EA020001F0004269
:4036C00021F0004110EBD37021FA04F642EB06015EEA430E08BF20EAD37070BDC4F10C04C4F1200500FA04F320FA05F001FA04F240EA020001F0004110EBD37041F10001B8
:403700005EEA430E08BF20EAD37070BDC4F1200500FA05F24EEA020E20FA04F301FA05F243EA020321FA04F001F0004121FA04F220EA020000EBD3705EEA430E08BF20EA71
:40374000D37070BD94F0000F0FD101F00046400041EB010111F4801F08BF013CF7D041EA060195F0000F18BF704703F00046520043EB030313F4801F08BF013DF7D043EAA0
:403780000603704794EA0C0F0CEA135518BF95EA0C0F0CD050EA410618BF52EA4306D1D181EA030101F000414FF0000070BD50EA410606BF1046194652EA430619D094EA92
:4037C0000C0F02D150EA013613D195EA0C0F05D152EA03361CBF104619460AD181EA030101F0004141F0FE4141F470014FF0000070BD41F0FE4141F4780170BD70B54FF064
:40380000FF0C4CF4E06C1CEA11541DBF1CEA135594EA0C0F95EA0C0F00F0A7F8A4EB050481EA030E52EA03354FEA013100F088804FEA03334FF0805545EA131343EA126315
:403840004FEA022245EA111545EA10654FEA00260EF000419D4208BF964244F1FD0404F5407402D25B084FEA3202B61A65EB03055B084FEA32024FF480104FF4002CB6EB74
:40388000020E75EB030E22BFB61A754640EA0C005B084FEA3202B6EB020E75EB030E22BFB61A754640EA5C005B084FEA3202B6EB020E75EB030E22BFB61A754640EA9C00DD
:4038C0005B084FEA3202B6EB020E75EB030E22BFB61A754640EADC0055EA060E18D04FEA051545EA16754FEA06164FEAC30343EA52734FEAC2025FEA1C1CC0D111F4801F23
:403900000BD141EA00014FF000004FF0004CB6E711F4801F04BF01430020B4F1FD0C88BFBCF5E06F3FF6AFAEB5EB030C04BFB6EB020C5FEA500C50F1000041EB045170BD11
:403940000EF0004E4EEA113114EB5C04C2BFD4EB0C0541EA045170BD41F480114FF0000E013C90E645EA060E8DE60CEA135594EA0C0F08BF95EA0C0F3FF43BAF94EA0C0F9A
:403980000AD150EA01347FF434AF95EA0C0F7FF425AF104619462CE795EA0C0F06D152EA03353FF4FDAE1046194622E750EA410618BF52EA43067FF4C5AE50EA41047FF488
:4039C0000DAF52EA43057FF4EBAE12E74FEA410212F5001215D211D56FF47873B3EB625212D94FEAC12343F0004343EA505311F0004F23FA02F018BF404270474FF0000084
:403A0000704750EA013005D111F0004008BF6FF0004070474FF00000704700BF80F0004002E000BF81F0004142001FBF5FEA410392EA030F7FEA226C7FEA236C6AD04FEADB
:403A40001262D2EB1363C1BFD218414048404140B8BF5B42192B88BF704710F0004F40F4000020F07F4018BF404211F0004F41F4000121F07F4118BF494292EA030F3FD054
:403A8000A2F1010241FA03FC10EB0C00C3F1200301FA03F100F0004302D5494260EB4000B0F5000F13D3B0F1807F06D340084FEA310102F10102FE2A51D2B1F1004F40EB26
:403AC000C25008BF20F0010040EA03007047490040EB000010F4000FA2F10102EDD1B0FA80FCACF1080CB2EB0C0200FA0CF0AABF00EBC25052421843BCBFD04018437047B3
:403B000092F0000F81F4000106BF80F400000132013BB5E74FEA41037FEA226C18BF7FEA236C21D092EA030F04D092F0000F08BF0846704790EA010F1CBF0020704712F009
:403B40007F4F04D1400028BF40F00040704712F100723CBF00F50000704700F0004343F0FE4040F4000070477FEA226216BF08467FEA23630146420206BF5FEA412390EA33
:403B8000010F40F4800070474FF0000304E000BF10F0004348BF40425FEA000C08BF704743F0964301464FF000001CE050EA010208BF70474FF000030AE000BF50EA010295
:403BC00008BF704711F0004302D5404261EB41015FEA010C02BF84460146002043F0B64308BFA3F18053A3F50003BCFA8CF2083AA3EBC25310DB01FA02FC634400FA02FC43
:403C0000C2F12002BCF1004F20FA02F243EB020008BF20F00100704702F1200201FA02FCC2F1200250EA4C0021FA02F243EB020008BF20EADC707047014B1868704700BF28
:403C40005481FF1F0E4B70B51E460E4C0025E41AA410A54204D056F8253098470135F8E700F07CFF084B094C1E46E41AA4100025A54204D056F8253098470135F8E770BD1F
:403C8000684B0000684B0000684B0000704B000010B5431E0A44914204D011F8014B03F8014FF8E710BD03460244934202D003F8011BFAE7704700000EB400B54FF40271B7
:403CC0009CB0ADF814106FF00041049107914FF6FF711DAB02900690084853F8042BADF81610006802A9019300F064F8029B00221A701CB05DF804EB03B070475481FF1FFF
:403D00002DE9F0478E6882469E420C46914698463ED88A8912F4906F3AD02568096902236F1A656905EB450595FBF3F57B1C43449D4238BF1D4653050FD5294600F040FBFF
:403D4000064698B13A462169FFF7A2FFA38923F4906343F08003A38113E02A4600F08EFB064670B92169504600F0DEFA0C23CAF80030A3894FF0FF3043F04003A381BDE8CA
:403D8000F08726613E44266046466561ED1BA560464528BF464649463246206800F0A8FAA36800209B1BA36023681E442660BDE8F08700002DE9F04F9DB003938B898046FA
:403DC0001C060D4616460DD50B695BB9402100F0F7FA2860286118B90C23C8F80030CDE040236B610023099320238DF82930DFF89CB130238DF82A3037463C4614F8013BEC
:403E00001BB9B7EB060910D003E0252BF9D02746F3E74B46324629464046FFF771FF013000F0A780099B4B4409933B78002B00F0A08000234FF0FF3204930793059206937D
:403E40008DF853301A930126052221784E4800F041FA671C049B38B14B4A3C46801A06FA00F018430490EFE7D90644BF20228DF853201A0744BF2B228DF8532022782A2A01
:403E800003D0079A00210A200BE0039A111D12680391002A10DA524243F00200079204900BE027463B780134303B092B03D800FB02320121F5E701B107923B782E2B1ED148
:403EC0007B782A2B0AD1039B02371A1D1B680392002BB8BF4FF0FF33059310E0002319460593781C0A2407463A780130303A092A03D804FB01210123F5E703B105910322CA
:403F00003978224800F0E6F940B14023CBEB000003FA00F0049B013718430490397806221B487E1C8DF8281000F0D4F988B1194B33B9039B073323F007030833039314E047
:403F400003AB00932A46144B04A94046AFF3008007E003AB00932A460F4B04A9404600F093F8B0F1FF3F824603D0099B5344099342E7AB895B0601D4099801E04FF0FF3068
:403F80001DB0BDE8F08F00BF284B00002E4B0000324B000000000000013D00002DE9F04791461F460A698B6806469342B8BF1346C9F8003091F843200C46DDF8208012B163
:403FC0000133C9F800302368990642BFD9F800300233C9F80030256815F0060510D104F1190A07E00123524639463046C04701301AD00135E368D9F800209B1A9D42F1DB28
:4040000094F843302268003318BF012392060FD5E118302081F843005A1C94F845102244023382F8431003E04FF0FF30BDE8F08704F1430239463046C0470130F4D0226867
:40404000D9F80050E36802F00602042A08BF5D1B2269A3680CBF25EAE57500259342C4BF9B1AED184FF000091A344D4509D00123224639463046C0470130D5D009F1010909
:40408000F3E70020BDE8F0872DE9F04317460A7E85B06E2A984606460C460C9B01F1430E00F0AE8011D8632A22D009D8002A00F0BB80582A40F0CA8081F84520834955E0F2
:4040C000642A1ED0692A1CD0C0E0732A00F0B08009D86F2A2ED0702A40F0B8800A6842F020020A603EE0752A24D0782A3AD0ADE01A6801F14205111D1960136884F8423009
:40410000A8E021681A6811F0800F02D0111D196008E011F0400F02F10401196002D0B2F9003000E01368002B3CDA2D225B4284F8432037E021681A6811F0800F02D0111D74
:40414000196007E011F0400F02F10401196001D0138800E01368227E5C496F2A14BF0A2208221BE078225A4984F845202268186812F0800F00F104051D6003D1550601D520
:40418000038800E00368D00744BF42F0200222601BB9226822F0200222601022002084F8430001E049490A226568002DA56008DB206820F0040020602BB9002D7DD175469D
:4041C0000CE0002B79D07546B3FBF2F002FB1033CB5C05F8013D03460028F5D1082A0BD12368DA0708D5236962689A42DEBF302305F8013C05F1FF35C5EB0E0323612EE00B
:4042000008681A6810F0800F496903D0101D1860136808E010F0400F02F104001860136801D0198000E0196000232361754616E01A68111D1960156800216268284600F02D
:4042400049F808B1401B6060636804E004F1420584F8422001232361002384F84330CDF800803B4603AA21463046FFF797FE013002D14FF0FF3026E023692A463946304662
:40428000C0470130F5D023689B0710D5002504F1190907E001234A4639463046C0470130E7D00135E368039A9B1A9D42F2DBE068039B9842B8BF184605E00B7804F142057C
:4042C00084F842308AE705B0BDE8F083394B00004A4B000010B5C9B202449042034605D01C7801308C42F8D1184610BD002010BD884210B501EB020301D8421E0BE0984211
:40430000FBD28118D21AD34204D013F8014D01F8014DF8E710BD994204D011F8014B02F8014FF8E710BD000038B50546002944D051F8043C0C1F002BB8BFE41800F0D4F879
:404340001E4A1368114613B96360146030E0A3420DD92268A018834201BF18685B681218226063600C6023E0A24203D813465A68002AF9D118681918A1420BD12168014431
:4043800058188242196013D110685268014419605A600DE002D90C232B6009E021686018824201BF106852680918216062605C602846BDE8384000F098B838BD9C81FF1F85
:4043C00070B5CD1C25F0030508350C2D38BF0C25002D064601DBA94202D90C23336046E000F082F8234B1C681A462146A1B10B685B1B0ED40B2B03D90B60CC18CD501EE035
:404400008C420BBF63684B681360636018BF0C4615E00C464968E9E7174C23681BB9304600F052F820602946304600F04DF8431C18D0C41C24F00304A0420DD12560304636
:4044400000F053F804F10B00231D20F00700C31A0ED05A42E25070BD211A304600F034F80130EBD10C233360304600F03EF8002070BD00BF9C81FF1F9881FF1FF8B5074664
:4044800015460E4621B91146BDE8F840FFF798BF1AB9FFF749FF2846F8BD00F027F885420ED929463846FFF78BFF044650B131462A46FFF7EDFB31463846FFF735FF01E084
:4044C0003046F8BD2046F8BD38B5064C0023054608462360FDF71EF8431C02D1236803B12B6038BDC883FF1F7047704751F8040C0028BEBF091851F8043CC01804387047B3
:404500000000000004081030E803640028001400E803E803E80310272A2A20454550524F4D20526561640D0A636F6E6669675F726567203D203078253032780D0A696E6434
:404540006578454550524F4D203D2025640D0A002A2A2A2A2A2A2A2A2A2A2A2A2A2A2A2A2A2A2A2A2A2A2A2A2A2A2A2A2A2A2A2A2A2A2A2A2A0D0A002A2A204C495333447D
:404580004820556E7A69700D0A465320202020203D203078253032780D0A465352202020203D203078253032780D0A414E414C4F47203D203078253032780D0A000000009F
:4045C0002A2A204C49533344482052656164202A2A0D0A004354524C5F5245473320202020203D203078253032780D0A000000004354524C5F5245473520202020203D2075
:404600003078253032780D0A000000004649464F5F4354524C5F524547203D203078253032780D0A000000004354524C5F5245473120202020203D203078253032780D0A2E
:40464000000000004354524C5F5245473420202020203D203078253032780D0A000000006366675F7267204F4C44203D203078253032780D0A0000006366675F726567204A
:404680004E4557203D203078253032780D0A00004649464F20636F6E74726F6C2061667465722073746F70203D20253032780D0A000000002A2A20555044415445442063E7
:4046C0006F6E6669675F726567203D203078253032782C203078253032780D0A00000000001020301020304053544152540D0A0053455420434F4E4649470D0A000000005E
:404700000A0D202020202020202020202020202020202A7C57454C434F4D4520494E205448452046494E414C2050524F4A4543547C2A2020202020202020202020202020D1
:4047400020200D0A506C656173652073656C65637420796F757220706572736F6E616C2073657474696E67730D0A0000202020204C6567656E643A0D0A000000202020202D
:4047800020202020422F622D2D3E53746172742044617461204163717569736974696F6E0D0A2020202020202020462F662D2D3E53656C6563742046756C6C205363616C7D
:4047C000652052616E67650D0A2020202020202020502F702D2D3E53656C6563742053616D706C696E67204672657175656E63790D0A20202020202020204C2F6C2D2D3E86
:4048000053656C65637420416E616C6F672053656E736F720D0A2020202020202020532F732D2D3E53746F702064617461206163717569736974696F6E0D0A0063685F728C
:4048400065636569766564203D2025630D0A0000636F6E66696753657473203D202564202D2025640D0A00007C436861726163746572207C2046756C6C205363616C65209F
:4048800052616E67652020202020202020207C0A7C203120202020202020207C202B2D20326720202020202020202020202020202020202020207C0A7C2032202020202077
:4048C0002020207C202B2D20346720202020202020202020202020202020202020207C0A7C203320202020202020207C202B2D203867202020202020202020202020202061
:404900002020202020207C0A7C203420202020202020207C202B2D20313667202020202020202020202020202020202020207C0A0D0000007C436861726163746572207CE7
:404940002053616D706C696E67204672657175656E6379202020202020207C0A7C203120202020202020207C202031487A20202020202020202020202020202020202020C8
:4049800020207C0A7C203220202020202020207C203130487A2020202020202020202020202020202020202020207C0A7C203320202020202020207C203235487A2020208A
:4049C0002020202020202020202020202020202020207C0A7C203420202020202020207C203530487A2020202020202020202020202020202020202020207C0A0D0000002B
:404A00007C436861726163746572207C2053656E736F72202020202020202020202020202020202020207C0A7C203020202020202020207C2053746F7265206C756D696E97
:404A40006F736974792064617461202020207C0A7C203120202020202020207C2053746F726520706F74656E74696F6D657465722064617461207C0A0D0000002D2D3E20F4
:404A800050686F746F7265736973746F720A0D002D2D3E20506F74656E74696F6D657465720A0D0044617461206D656D6F727920636C6561726564210A0D0000535953546E
:404AC000454D205245534554210A0D003D510040005B00403D510040005B004010100880035B00402443004040000000004F00403000405100403000F051004010000000F9
:404B00000140001000140140000800400140000A004C0140000200500140200060520040400A004806004300232D302B2000686C4C006566674546470030313233343536DB
:404B400037383941424344454600303132333435363738396162636465660000F8B500BFF8BC08BC9E4670474D00000091150000F8B500BFF8BC08BC9E467047290000007C
:404B8000904B0000C880FF1F90000000780200000000000007000000D083FF1F01FFFF007F800000000400000000E02EC05D00001800000000366E01FF0000000000000049
:404BC00000000000000000000000000000000000000000000000000000000000264B0000000000000000000000000000000000000000000000000000000000000000000044
:404C000000000000000000000000000000000000000000000000000000000000F480FF1F0000000000000000000000000000000000000000000000000000000000000000E2
:404C40000000000000000000000000000000000000000000000000000000000000000000000000000000000000000000000000000000000000000000000000000000000034
:404C800000000000000000000000000000000000000000000000000000000000000000000000000000000000000000000000000000000000000000000000000000000000F4
:404CC00000000000000000000000000000000000000000000000000000000000000000000000000000000000000000000000000000000000000000000000000000000000B4
:404D00000000000000000000000000000000000000000000000000000000000000000000000000000000000000000000000000000000000000000000000000000000000073
:020000040003F7
:0200000480007A
:40000000084F00400352004003640040036500400201014003030140580401403D050140590601404D07014056080140490901405E0A0140490B0140580C0140320D0140D0
:4000400003150140041601400A1701405B1801403F190140401A0140471B014008400140144101401442014010430140044401400745014008460140044701400E480140CD
:4000800003490140064C01400B4D0140065001400351014001400A720D4016631960223625502E36002001401102840F880D8A0F890F8A388B728D02E610A502E602EE019F
:4000C000000E0502070D0865090D0A1A0D0D110D14131502162417041840190D1D021F082044210D220929012B02300F330F367038023A803B084031410642204405450E79
:4001000046FB47DC483D49FF4AFF4BFF4C224EF04F0850045602572C580459045A045B045C225D225F0162C0644065016610671168C069016B116C406D016E406F01800412
:40014000880A89028A108C04900194079638970398049B019C569E09A004A303A404AA04AC60B07FB303B802D804D904DC22DF0101020304054007440B180C600E400F105B
:400180001101142015901702180219021B801E402104271029102A022C402D012F80302032013384371439583F1040044384480149184A044B1051405210530E62026828F8
:4001C00069506A126B487202730282408C208D40A001A502B001C0DAC2F6C4F8CA85CC6FCE2ED00ED20CD801E2100004011C0303051806030722080109220A060B180C04F2
:400200000D3A1001113A120615011718180419131B041C071D18200425382604270229022F2031203313350F36073A803B203F0154405604580459045B045C225D205F01E3
:400240008113832C89078B388E019104931A992B9B149C01A001A401A801B11EB320B401B701BB02BE10BF44C010C106C9FFCAFFCBFFCDA0CF04D018D409D604D804D904F1
:40028000DA04DB04DC20DD27DF01E040E2C0E440E540E6C0E8C0EAC0ECC0EEC00140030106400715088009400A020C200E800F011028124013021480170818041D40228683
:4002C00024902520260427142C202D202F0B3120320235403640371638123B013D803E103F0943404B205840592961026280661667028040814082048304860287109002C6
:4003000091409212940499089A109B0A9D409F04A028A30AA502A606B710C0F1C2D1C43ECA70CCF5CEF5D008D204D60FD8F9E210E602EC10EE4402200430060D08050A18A9
:4003400012301302150C190C23042405250826382B022C022E0C2F013003330C343C35023701380239083A203F144040410245D04712483249FF4AFF4BFF4DAF4E0F4F0495
:4003800050185405580459045A045B045C735D775F01604062C06440654066C068C06AC06CC06EC0820584038501860C88038A048B01910292089501980A9A049B019F011C
:4003C000A502A803A902AA04B101B40FB702BA20BF41D409D604D804D904DB04DC03DD10DF010010012003A004040510064009220D02110212481440150217441808191062
:400400001B201C041D221F11210122802402271A28102A202E802F983120320A33C435103608370238383904460447024F015606570859095A505C405F0962806340870821
:400440008C80906092509402981099099A209E039F10A109A222A380A608A720AA80C07EC21AC4A2CAF6CCEFCE06D0A0D6DFD809E210EC1001100502071D09030B140E014B
:400480001103130C151019101A011D102310240129012B1A3001351F3B203E0140214106450E46C0470B481949FF4AFF4BFF4EF04F44500C56025724580459045A045B0488
:4004C0005C105D135F0166C06A406B0282028304910D930294019502970C990E9B019F03AE07B001B204B308B602B707B908C036C105C220C401C5BEC6F0C7DCC83BC9FF79
:40050000CAFFCBFFCC22CEF0CF0CD004D804D904DA04DC17DD01DF01E2C0E440E501E610E711E8C0E901EB11EC40ED01EE40EF01020204020A080E20130816021A401C42F0
:400540001E20200424102680288029202E102F083028318032023410352036823708380439013A203F0143A04520462147084A284D284E064F015010510856105709600490
:4005800068286941704071807C807D4084018C108D219208948095019B089C809E109F10A121A202A380A428A709C011C222C484CA05CCFFCE87D07CD234D804E210E4087B
:4005C000EA800190059009180BC10D901001111B13641401150D17A2180119061E01211022012380251029802B102C013307340135F839283E104002474049FF4A074BFFB2
:400600004C404D204EF04F05500854405604580459045A045B045C105D135F01604061A862406320809D810784428694870688808A408C9D8D079106941D95059680970237
:4006400098E299079A189C029E0DA08DA102A210A305A49DA502A902AB04AC11AE22B106B4F0B501B60FBAB0BF10D804D904DC11DF01000401410204030808040A090C2C29
:400680000D010F0310601108120214C0158019101A091F102120220224042728288029102A242B202C482F203028320236023728388439C33D493E204710550157806610C7
:4006C00067618740C00FC2F7C49DCAE7CCE7CEFBD020D8F0EE01E610EA10EC10B988BF44D904DF01214881408508A804A901AB40AC40AE04EA20EE010402060108020A0110
:40070000100314031501170E19441B31256729672D222F513118320133603402350738083A023E103F014065410442024401450C470E481149FF4AFF4BFF4C624DA04EF00F
:400740004F41500C5280580459045A045B045C335D735F016640670269106A306B106D106E106F1282038306842087059010930294149703981C99069A029B019C099E10DA
:40078000A301A410A60CA708A80CAA11AB08AD10B110B307B420B508B61FBB08BE11BF11D401D804D904DB04DC33DD30DF010001026005100710080109290B020E600F1091
:4007C0001104120818011A841D061E4822082344276429042A402B842C082D802F203001312032083420372439043B02451247404E104F905704584259205A0476808F02A5
:4008000091049302984099209C809E81A129A220A380A608AB02B340C06CC23FC406CA7FCC67CE03D0B0D230D60FEA20130116011A011C02240228023001360237013E017C
:4008400054185604580459045B045C735D305F0180028304840C8508880489188C018DFF8E20901F9110941395C0960C980F99809A109E139FE3A008A13CA3C2A403A51CE7
:40088000A7E1A80CA9E7AA13AB18AD44B20FB31FB41CB538B620B7C0BA28BB08D602D712D804D904DB04DC33DD30DF01040205800620070809500A200E65102817161940F0
:4008C0001A011B411C021D101E241F142301251027112C802D802F1433023420354037063C023E685B015E08608063066C286D806F207628770A8080831089808F0190027D
:400900009260930498209B049C809D909F10A204A302A408A510A610A760A802AA20AF40B421B641C0F0C2F7C476CAF0CCF1CEF0D641D80DE610EA10EC12304033083402A4
:4009400037803B408F80CCF0CE101340328033013742398063806580870897409B409C42A708AB40C440CCF0CE10D680D840E640EE80100812801340158017013220518043
:40098000572083408D8095809C429D809F03A680A740C4F0CC10D460E22062046604752084408F029C429F02AB20AE20AF40B408B580D8C0DC40E610EE2013027C01C408A3
:4009C000DE010002020158409401AB02C00AD4014508844094019A019C40B001D001EA019A01A508B401EC08251065206F017301830187019D209E04B002C820D880DA80CA
:400A0000DC20E2C08E049E04B53009208E019A01A508C202E602110174048901A004AC04B528C408DE04E601EC08EE02008E0A840C8A0E0A10881C8800FF01FF022B000063
:400A4000888C00004000000000606000600000008400508C8C008C00000000008000408B8B000000000000001400011612000200000000000003030000001800140018012A
:400A8000000A00000000000000000000000000000000000000000000000000000000000000000000000000000000000000000000000000000000000000000000000000002C
:400AC00000000000000000000000000000000000000000000000000000000000000000000000000000000000000000000000000000000000000000000000000000000000F6
:400B000000000000000000000000000000000000000000000000000000000000000000000000000000000000000000000000000000000000000000000000000000000000B5
:400B40000000000000000000000000000000000000000000000000000000000000000000000000000000000000000000000000000000000000000000000000000000000075
:400B80000000000000000000000000000000000000000000000000000000000000000000000000000000000000000000000000000000000000000000000000000000000035
:0200000490006A
:0400000000004005B7
:0200000490105A
:04000000BC90ACAF55
:0200000490303A
:02000000F2E527
:0200000490402A
:4000000000000000000000000000000000000000000000000000000000000000000000000000000000000000000000000000000000000000000000000000000000000000C0
:400040000000000000000000000000000000000000000000000000000000000000000000000000000000000000000000000000000000000000000000000000000000000080
:400080000000000000000000000000000000000000000000000000000000000000000000000000000000000000000000000000000000000000000000000000000000000040
:4000C0000000000000000000000000000000000000000000000000000000000000000000000000000000000000000000000000000000000000000000000000000000000000
:0200000490501A
:0C00000000012E16106900012E35034E81
:00000001FF