:400000000080002011000000A5150000A515000008B5044B1A6803F53F5302331A6001F0E1FA00BFFA46004010B5054C237833B9044B13B10448AFF300800123237010BD27
:400040005881FF1F0000000080450000084B10B51BB108490848AFF300800848036803B910BD074B002BFBD0BDE81040184700BF000000005C81FF1F80450000C880FF1F58
:40008000000000002DE9F041002435E0671CC55DAD081D55C55D065D04F1030E10F80EC0B60846EA851545EA1C15DD5504F1020C10F80E5010F80C60671D10F8078036094A
:4000C00046EA051545EA981503F80C5010F807C0261D855DAD0945EA8C0503F80E50084DA5FB04E56D0811F805E003F806E00D446D78DD550634E4B29442C7D3BDE8F081E0
:40010000ABAAAAAA43789B0023F03F030B70027843789B0943EA82034B7083781B0123F03F038B70427883781B0943EA0213CB70C3789B010B718278C3789B0843EA821300
:400140004B7103798B714379CB717047000000002DE9F04383B004460D463F4B186801902378607843EA002040F3891003F050FD03F006FA36A3D3E9002303F055FA0646E3
:400180000F46DFF8DC8098F80030C3F3810302AA134413F8040C03F0E1F932463B4603F043FA00222D4B03F069FB03F04FFC2880A378E07843EA002040F3891003F028FD2E
:4001C00003F0DEF922A3D3E9002303F02DFA06460F4698F80030C3F3810302AA134413F8040C03F0BBF98046894602460B463046394603F019FA0022184B03F03FFB03F049
:4002000025FC68802379607943EA002040F3891003F0FEFC03F0B4F90DA3D3E9002303F003FA02460B464046494603F0FDF900220A4B03F023FB03F009FCA880A379E07967
:4002400043EA002001F03EFEE88003B0BDE8F08377BE9F1A2F9D234084450000000024407883FF1FF8B50B4C24788CB11F460D460646104601F0AAFE002404E0305D01F018
:40028000A5FE0134E4B2AC42F8D3384601F09EFEF8BD00BF8C81FF1F30B587B02B4B00221A705A702A4801F09DFE2A4801F09AFE294801F097FE294B586805909868049018
:4002C000274B0293274B0393274B0093274B0193274D2B7803F0030306AA1344254C13F8042C2549204603F027FD204601F07AFE2B78C3F3810306AA134413F8082C1F49DC
:40030000204603F019FD204601F06CFE2B78C3F3001306AA02EB830353F8102C1849204603F00AFD204601F05DFE2B78C3F3401306AA02EB830353F8182C1249204603F0F2
:40034000FBFC204601F04EFE07B030BD7881FF1FA04500001C4600002C460000844500006447000074470000844700008C4700007883FF1FA482FF1F98470000B847000067
:40038000D4470000EC470000F0B5BBB001F0FAFD01F05AFB01F04AFB02F0C8FE02F06EFF01F0F0FF0A2002F061FD02F055FA0A2002F05CFD62B601F099FD9A4D2878C0F37B
:4003C000001001F0A3FD01F069FD02F0B5FB00F0F9FE954E3146284600F0BAFA934C33882A789349204603F0A7FC204601F0FAFD904F384601F0F6FD8F4E3146287800F089
:400400000FFC32787378B17800918C49204603F093FC204601F0E6FD00F084FC304600F099FC874801F0DEFD222000F069FC0246844E30708449204603F07EFC204601F01D
:40044000D1FD242000F05CFC024630707F49204603F072FC204601F0C5FD2E2000F050FC024630707A49204603F066FC204601F0B9FD202000F044FC024630707549204619
:4004800003F05AFC204601F0ADFD232000F038FC024630707049204603F04EFC204601F0A1FD384601F09EFD6C4801F0A3F96C4801F044FA6B4801F00BFB6B4802F086FD52
:4004C0006A4802F03DFD6A4802F0AEFD694802F055FE2B7813F0200F14D0C72001F050FA642001F053FA544B1B78634C1B09013B237001F047F92278604B03EB420398899E
:4005000001F000F9FFF7C8FE5D4B1B78002B3CD05B4B5B78002B38D0424D2A78594E3270424C5949204603F007FC204601F05AFD414800F0B1FB024628705449204603F048
:40054000FBFB204601F04EFD32782B789A4218D0394C0023E3702E2000F0D2FB0246394B1870324D4A49284603F0E6FB284601F039FD204600F090FB2A4B18700122454BFE
:400580001A703F4B00221A705A70434B1A78414B1B78002A14BF002303F001033F4A1278002A14BF002303F00103002B00F09D801C4C2178022000F09DF900F00DFA1E4DEE
:4005C0002946207800F02CFB022000F07BF902461C4B1870154E23783149304603F0ACFB304601F0FFFC284600F0B4FBA87801F08DFC237813F0200F54D02B781E4C1B096D
:40060000013B2370C72001F0BBF9642001F0BEF901F0B8F82278194B03EB4203988901F071F85FE07883FF1FA081FF1FA482FF1FFC470000344800007483FF1F5C48000093
:40064000A44800006C83FF1FB8480000D4480000F04800000C490000284900002D110000211100009D0D000039110000451100004D110000991100009E81FF1F844500009F
:400680007881FF1F7083FF1F444900005C490000744900007B83FF1F7A81FF1F7481FF1F9849000001F00EF8002001F069F9002001F06CF970490A88704B1A8007230B80C5
:4006C0000222002000F052F900F086F96C4B5B782BB1312001F054F9192001F057F90022674B5A700022674B1A70674B1A78674B1B78002A14BF002303F00103604A1278CD
:40070000002A14BF002303F00103002B3FD0604B1A885A4B1B889A420FD307225C4B1A8002AB5C4A52F8140F516803C3C023A02208210DEB0100FFF795FD062208A9544BA5
:40074000188800F0F3F806A908A8FFF7DBFC04A906A8FFF7FDFCBDF91630002B02DA0023ADF81630BDF9162041F288339A4201DDADF81630C023A022082104A8FFF772FD19
:40078000434A1388063313800022404B1A703C4A3D4B197813780B405278002A14BF002303F00103002B3FF4AFAE312000F0A8FA394C207000F09EFA207000F05F035F2B11
:4007C00006D000F01F0000EB40004600F6B200E0C026324C60222146282000F0CFFA6022A118282000F0CAFA0AAB32462C492046FFF748FC002519E09A090132C3EB82131D
:40080000DBB2741BA342A8BF2346DCB200F0E4F8194F22460AAB5919388800F0A7F800F0DBF82544EDB23B881C443C80B54205D2114B1B8847F6FE729342DDD90E4C02221A
:400840002146002000F092F800F0C6F8B4F90030002B0BDA01240A4B5C7012480023C37000F01AFA104B1870064B1C700023064A1370034A137047E6A081FF1F9C81FF1FB5
:400880007481FF1F7B83FF1F7A81FF1F7B81FF1FCC80FF1F844500006C83FF1FA481FF1F6482FF1F7483FF1F7883FF1F08B5052000F0CAF808BD00BF08B5062000F094F8AA
:4008C00008BD00BF00B583B003218DF80410030A8DF805308DF8060002AA002302F8053D012301A800F040F99DF8030003B05DF804FB00BF30B583B004460D46FFF7DCFF98
:4009000002238DF80430230A8DF805308DF806408DF80750002302AA02F8053D04210DEB010000F021F903B030BD00BF10B582B003248DF80440030A8DF805308DF8060080
:4009400013460A46214601A800F00EF902B010BD38B505460C460220FFF7B4FF2870022221460020FFF7E2FF38BD00BF2DE9F04383B000AF80468946144602F095FC05463D
:40098000FFF79AFF012002F087FAE61C04F10A0323F00703ADEB030D02238DF800304FEA18238DF801308DF80280224649460DF1030003F0ADF9002307F1080202F8013D52
:4009C000F1B2684600F0D0F8284602F071FC0C37BD46BDE8F08300BF08B5FFF767FF10F0010FFAD108BD00BF10B50446002001F039F8204601F068FB01F03EFB10F0080F40
:400A0000FAD001F0CBFB0446012001F02BF8204610BD00BF10B50446002001F02FF8204601F0BCFD002001F0B9FD01F08FFD10F0010FFAD001F01CFE01F01AFE04460120D0
:400A400001F01CF8204610BD10B50446002001F009F8204601F038FB002001F035FB01F00BFB10F0010FFAD001F098FB01F096FB0446012000F0F6FF204610BD10B50446E9
:400A8000002000F0FBFF207801F088FD607801F085FD01F05BFD10F0010FFAD0012000F0EDFF01F071FE01F015FE01F033FE10BD2DE9F04383B006460C46174698460020EB
:400AC00000F0DCFF64B2002511E02146082CA8BF0821C9B206EBC50001F046FE01F036FD10F0010FFAD0083C64B201356DB2002CEBDC01F049FE01F0EDFD00260096019668
:400B00004FFA88F820E0C146B8F1080FA8BF4FF008095FFA89F1684601F026FE01F016FD10F0010FFAD0002406E004EBC60501F09FFD78550134E4B24C45F6DBA8F1080806
:400B40004FFA88F8013676B2B8F1000FDBDC012000F094FF01F018FE01F0BCFD01F0DAFD03B0BDE8F08300BF2DE9F04383B006460C4617469846002000F074FF64B2002524
:400B800011E02146082CA8BF0821C9B206EBC50001F080FB01F070FA10F0010FFAD0083C64B201356DB2002CEBDC01F083FB01F027FB0026009601964FFA88F820E0C14600
:400BC000B8F1080FA8BF4FF008095FFA89F1684601F060FB01F050FA10F0010FFAD0002406E004EBC60501F0D9FA78550134E4B24C45F6DBA8F108084FFA88F8013676B249
:400C0000B8F1000FDBDC012000F02CFF01F052FB01F0F6FA01F014FB03B0BDE8F08300BF00F00303032B0ED8DFE803F00205080B17230B7007E027230B7004E037230B7068
:400C400001E047230B70C0F38103032B0ED8DFE803F00205080B00234B7007E010234B7004E020234B7001E030234B70C0F300130BB11BB904E000238B7001E001238B70B3
:400C8000C0F3401008B118B970470023CB7070478023CB70704700BF0378DBB2372B05D0472B05D0272B05D0002304E0022302E0032300E001234278D2B2202A06D0302AEA
:400CC00007D0102A07D143F0040304E043F0080301E043F00C038278D2B2012A01D143F01003C278D2B2802A01D143F020031846704700BF08B5AF20FFF78CFE08BD00BFD7
:400D000008B540F08000FFF785FE08BD00B583B08DF804008DF8051001A8FFF7AFFE03B05DF804FB08B580212420FFF7EFFF00212E20FFF7EBFF02212220FFF7E7FF48212B
:400D40002420FFF7E3FF024801F04CF908BD00BFCC49000010B5044601782020FFF7D6FF61782320FFF7D2FFE1782E20FFF7CEFF014801F037F910BDD449000000B583B022
:400D800060F03F0302A800F8013D13460A460121FFF78EFE03B05DF804FB00BF38B501F0FFF80246874B1870874C8849204602F0C3FF204601F016F9854D6B782A788549EE
:400DC000204602F0B9FF204601F00CF92B78002B78D17C4B1B78423B312B00F25581DFE813F0320053015301530159005301530153015301530169005301530153016100BA
:400E00005301530140005301530153015301530153015301530153015301530153015301530132005301530153015900530153015301530153016900530153015301610041
:400E40005301530140000022614B1A7062488023C370FFF721FF614B18700122604B1A7012E100235A4A13705B4CE37002215D4B187801F08BFF2046FFF70EFF574B187070
:400E800000F06AFD02F0B0F80122554B1A70FFF703FAF9E0544801F0A5F84A4B1A784C4B1A70F1E0514801F09DF8464B1A78484B1A70E9E04E4801F095F8424B1A78444BFB
:400EC0001A70E1E0463B2A2B00F2DE80DFE813F02B00DC00DC00DC00DC00DC00BB00DC00DC00DC006100DC00DC00DC00DC00DC00DC00DC00DC00DC00DC00DC00DC00DC0064
:400F0000DC00DC00DC00DC00DC00DC00DC00DC002B00DC00DC00DC00DC00DC00BB00DC00DC00DC006100274B1B78313B0E2B2CD8DFE803F0081018202B2B2B2B2B2B2B2B9A
:400F40002B2B28002B4B1A78234B5A700122204B5A7099E0274B5A781F4B5A7001221C4B5A7091E0234B9A781B4B5A700122184B5A7089E01F4BDA78174B5A700122144BD2
:400F80005A7081E0FFF788F97EE00022104B5A707AE00C4B1B78313B0E2B50D8DFE803F0082E38424F4F4F4F4F4F4F4F4F4F4C00114B1B7843F00703074A13700122044B9B
:400FC0005A7061E07983FF1FA482FF1FE44900007881FF1FF84900007483FF1F7883FF1F7B83FF1F7C83FF1F104A0000DC4A0000A84B0000C4490000C84900003F4B5B78AE
:4010000043F007033E4A137001223E4B5A703BE03A4B9B7843F00703394A13700122394B5A7031E0354BDB7843F00703344A13700122344B5A7027E0FFF72EF924E00022B3
:40104000304B5A7020E0304B1B78312B0DD03F2B14D0302B15D101222A4B5A702B4800F0C1FF0022264B9A700EE00124254B5C70274800F0B7FF224B9C7005E0FFF70CF976
:4010800002E000221F4B5A701D4BDB78CBB91E4B1B78562B01D0762B13D11A4A1370184B1B781C4C1B09013B237000F01FFC2278194B33F8120000F0D9FB012000F070FB28
:4010C00038BD104B1B78562B01D0762B14D10E4B1B78552B03D0752B01D03F2B0CD100F0ABFB07220D4B1A80002000F059FB0C2000F06CFFFFF7D0F838BD00BFC84900001F
:401100007483FF1F7881FF1F7983FF1F244C0000384C00009E81FF1F90450000CC80FF1F0122014B9A7070477881FF1F0122014BDA7070477881FF1F0122014B1A7070477B
:401140007481FF1F08B500F0D7FA08BD08B5002000F026FB00F070FB07220A4B1A800A480023C370FFF798FD084B187000F0F4FB01F03AFF0122064B1A70064800F032FF34
:4011800008BD00BFCC80FF1F7483FF1F7883FF1F7B83FF1F4C4C000008B50022064B1A700122064B1A700C2000F010FF044800F019FFFFF771F808BD7883FF1F7B83FF1FCF
:4011C000644C000038B541F6FF734FF480420121022001F0C3FE054601F00AFE044606230246402101F01EFE074A92B244F61061204601F02BFE2146284601F0BBFD0121E1
:40120000284601F06FFD38BD6482FF1FFEE700BFF0B40022174611E050F82760F3B226F0FF0608E001EB420511F812406D78A5550132013BDBB2002BF4D10137232FEBD914
:40124000F0BC7047084B1B78DBB203F00701074A11701B09013213709022054B1A704422A3F2E2231A707047CF0100496E580040585B004008B50A46002102F054FD08BDDC
:4012800008B502F045FD08BD38B50024394B1C80502202331A700B2202331A80182336490B7002310A80354A13701925023215800232137045F6BF510232118002321370A1
:4012C00043F697222E4B1A8002331D7004222D492D48FFF7D5FF02222C4B1A7008224FF040231A70032103F500731970284B1B78DBB228490B70284B1A8041F25122023B4A
:401300001A800CE0254B1B7803F0010343EA440404F003044FF4F07001F0BEFF013D0DB1032CEFD115B90320FFF770FF1C4B4FF480721A8007221A7000221A490A704820DB
:40134000023108701A700222033B1A7004220A331A70154A137843F03F031370013A137843F001031370013A137843F08003137038BD00BF80400040864000408A4000403A
:4013800094400040C0090048004100400043004008010049A146004022420040254200400440004006400040A2430040012814D810B44000C0B2094B53F820101A18147CF5
:4013C0000A7822430A700130C0B253F820201844017C13780B43137010BC7047744C0000012816D810B44000C0B20A4B53F820101A18147C0A7822EA04020A700130C0B216
:4014000053F820201844017C137823EA0103137010BC7047744C0000012808D8044B03EB800252691844017F13780B4313707047744C0000012809D8054B03EB800252692F
:401440001844017F137823EA01031370704700BF744C000038B572B63C4A137843F00403137000240BE03A4863001A19510001440A46898C106AFFF7FDFE0134E4B2092CCB
:40148000F1D900240CE03248A20011194B000344B3F86420196ED86DFFF7F2FE0134E4B2022CF0D92B494FF09040FFF7B1FE0A24294B1C70042229492948FFF7E1FE294A30
:4014C000137843F0020313701032137843F002031370254D2B7843F040032B70A2F58632513A137843F01003137008221F492048FFF7C6FE22461F491F48FFF7C1FE2246C2
:401500001E491F48FFF7BCFE22461E491E48FFF7B7FE08221D491E48FFF7B2FE1D4A137843F0080313701C4C61232370FFF7ACFE812323700122194B1A70FFF783FE0E22F0
:4015400029461748FFF79CFE38BD00BFE8460040744C00009000004883580040C40900485076004003500140A04300408C0900480251004094090048C0510040A0090048CF
:4015800010510040AC09004820510040B809004832510040224300400048004004000840B043004008B502F087FB03680C2B00D1FEE7FEE708B5094B1A681044084BC31ADF
:4015C000802B02DC054B186005E002F075FB0C2303604FF0FF32104608BD00BFD080FF1FC883FF1F08B5104E104D16E029686B68AC68002204E051F8040B43F8040B0432DC
:40160000A242F8D1E868002203E0002143F8041B04328242F9D11035013E002EE6D102F051FBFEF7B1FEFEE701000000484D000008B5114A114B1A60114A136843F4007335
:40164000136000230AE0032B03D80E4A52F8231000E00D490D4A42F8231001332F2BF2D90B4B1A780B4B1A70084A0B4B1A60FFF7F1FE01F01DFB08BD0004FA050CED00E040
:4016800014ED00E000000000A51500000080FF1FBC760040C080FF1F08ED00E0084A137843F0040313701032137843F00403137002F66532137843F001031370704700BFDE
:4016C000A3430040084A137803F0FE031370A2F67532137803F0FB0313701032137803F0FB031370704700BF184F0040014B1870704700BF1B4F0040014B1878704700BF8E
:401700001B4F0040014B1880704700BF1C4F0040014B1880704700BF1E4F004008B5164A137803F0010313700232137803F0FC031370124B1A7802F0CF021A701A7842F09D
:4017400030021A701A7802F0F0021A701A7842F00F021A700A4A137843F00103137040F2E730FFF7CFFF40F2E730FFF7D1FF0820FFF7BCFF08BD00BF184F0040234F0040E3
:40178000194F004008B5054B1B7823B9FFF7C6FF0122024B1A70FFF781FF08BD7C81FF1F044A137803F0FE0300F0010018431070704700BF30510040014B1B6858667047E6
:4017C00008ED00E04001C0B2014B1870704700BF09E400E04FF40072014B1A60704700BF00E100E04FF40072014B1A60704700BF80E100E010B50446FFF7F4FF2046FFF712
:40180000DBFF0720FFF7DEFFFFF7E4FF10BD00BF084A137843F0080313701032137843F00803137002F67132137843F001031370704700BFA3430040084A137803F0FE03F6
:401840001370A2F68132137803F0F70313701032137803F0F7031370704700BF244F0040014B1870704700BF274F0040014B1880704700BF284F0040014B1880704700BFCE
:401880002A4F004008B5164A137803F0010313700232137803F0FC031370124B1A7802F0CF021A701A7842F030021A701A7802F0F0021A701A7842F00F021A700A4A13781F
:4018C00043F00103137040F2E730FFF7CFFF40F2E730FFF7D1FF0820FFF7C2FF08BD00BF244F00402F4F0040254F004008B5054B1B7823B9FFF7C6FF0122024B1A70FFF763
:4019000087FF08BD7D81FF1F014B1B689865704708ED00E04001C0B2014B1870704700BF06E400E04022014B1A60704700E100E04022014B1A60704780E100E010B5044652
:40194000FFF7F6FF2046FFF7DFFF0720FFF7E2FFFFF7E8FF10BD00BF4022014B1A60704700E200E0024A137843F080031370704779640040014B1880704700BF1068004044
:40198000014B1880704700BF90680040014B1880704700BF50680040014B1870704700BF89640040014B1878704700BF69640040014B188880B27047B068004008B501E0A2
:4019C000FFF7F6FFFFF7EEFF10F0100FF8D108BD10B5144A137803F0C00343F0090313701F32137843F0010313700F4C237843F0010323700020FFF7BDFF0020FFF7C0FF49
:401A00000020FFF7C3FF0020FFF7C6FF01F04CFC237843F01003237001F04AFCFFF7CEFF10BD00BF796400409964004008B5054B1B7823B9FFF7CCFF0122024B1A70FFF739
:401A400091FF08BD7E81FF1F054A137843F0200313701032137843F020031370704700BFA2430040044A137803F0EF03000100F0100018431070704720510040044A137825
:401A800003F07F03C001C0B218431070704700BF10510040014B1B681866704708ED00E04001C0B2014B1870704700BF08E400E04FF48072014B1A60704700BF00E100E0B8
:401AC0004FF48072014B1A60704700BF80E100E010B50446FFF7F4FF2046FFF7DBFF0720FFF7DEFFFFF7E4FF10BD00BF10B59DF80840012C51D1013809282ED8DFE800F08F
:401B0000052D2D052D2D0F192D230F2B03D92548007840B222E02448007840B21EE00F2B03D92248007840B218E02148007840B214E00F2B03D91F48007840B20EE01E48C8
:401B4000007840B20AE00F2B03D91C48007840B204E01B48007840B200E0002001EB401101FB02F1C90B8AB20D2B0BD8C3F10E0289B211418AB2611E124800EB810101331E
:401B80008B7005E0631E0F4901EB83030F219970013C0C4B23F8242010BD002001F064F910BD00BF180100491C010049190100491D0100491A0100491E0100491B01004944
:401BC0001F0100498081FF1FF8B5074601F06CFB06460D4D2B7843F003032B700B4C237843F0030323700A4B1F70032001F054F92B7803F0FC032B70237803F0FC0323709B
:401C0000304601F055FBF8BDF8460040F9460040925800400022334B1A71012860D12DE9F0413222304B1A70052602331E70072201331A70002401331C7001331C7016233A
:401C40002A4A137002321470013214700132147001250A321570142702F5276217700132167001321370224B1C70442203331A70482201331A7001331D704FF00208023329
:401C800083F80080222201331A70282201331A70EB2201331A705220FFF796FF5822154B1A7001331C7005331E70013383F8008001331C7001331C70204600F08BFECD22F0
:401CC0000D4B1A602946042000F0A8FE2946384600F058FF09491D2001F0E8F8BDE8F081704700BF8081FF1F004E0040064E004087580040945800408083FF1FE91E000015
:401D0000F0B583B0284D01272F70284E00247471102000F071FE102000F022FF07211D2001F0D8F80422224B1A7001331C7007331C70204A137843F0180313701E4B1C70BC
:401D400003F2F5231C7001331C700A23A2F2872213700132147002321470122105321170132101321170043214701421A2F68C221170009747F6060248F66B510220FFF737
:401D8000B5FE2B78013B06EB83039A780B4B1A702B78013B36F82320094B1A802878FFF739FF03B0F0BD00BFD480FF1F8081FF1F96580040075B0040935800400E4E0040D5
:401DC0000C4E004070B501F06FFA06462A4B1B782A4B1A7842F001021A701A7842F010021A7010331A7842F001021A701A7842F010021A70224D2B7843F002032B70214C0A
:401E0000237843F0020323701F4A137843F003031370032001F040F82B7803F0FD032B70237803F0FD032370184A137843F0060313707A22164B1A70164A137843F0010399
:401E400013701032137843F0010313700F3A137843F0010313701032137843F0010313704FF000530C4A1360A2F5C0721360304601F01EFA70BD00BFD480FF1FAA430040A2
:401E8000F8460040F9460040915800407758004082580040A143004080E200E008B5084B9B794BB9064BDB7913F0FF0F01D1FFF727FF0122024B9A71FFF784FF08BD00BF29
:401EC0008081FF1F064B9B68C01A4FF47A7303FB00F0044B1B6890FBF3F000B2704700BF8081FF1F8083FF1F704700BF10B5002404E02046FFF774FA0134E4B2012CF8D9F9
:401F0000FF22014B1A7010BDD580FF1F10B50446FFF7ECFF2046FFF749FA014B1C7010BDD580FF1F7222084B1A702022013B1A700622A3F5B1731A70472210331A70002284
:401F400003F24F131A7070478A65004010B501F0ABF904460A4A137843F020031370013A137843F010031370033A137843F01003137000F073FE204601F09AF910BD00BF47
:401F80009A65004008B5054B1B7823B9FFF7CAFF0122024B1A70FFF7D9FF08BD8C81FF1F084B1B78DBB213F0200F06D0064A1078C0B213F01E0F02D1704700207047002079
:401FC000704700BF696500404A650040034B1B7813F0040FFAD1024B18707047666500404665004038B5074B1B782BB938BDFFF7EDFF0134A4B201E005460024285D002815
:40200000F5D138BD8C81FF1F0222014B1A60704700E100E00122014B1A60704700E100E008B501F041F90D4A137843F02003137002F58072137843F010031370A2F2011270
:40204000137843F01003137001F032F900F014FEFFF7DAFFFFF7DEFF08BD00BF986400400222014B1A60704780E100E00122014B1A60704780E100E010B5FFF7F1FF064BCD
:402080001C78064A137803F009031C4300231370FFF7BAFF204610BD686500408483FF1F10B5FFF7E3FF064B1B78064A147804F040041C4300231370FFF7ACFF204610BD2B
:4020C00067640040A083FF1F10B504462B4B1A7802F0FF0312B1013BDBB200E00723284A1278D2B29342F1D0FFF7BAFF254B1978254A137803F009030B4313701F4B1A7867
:40210000D2B21F4B1B78DBB29A4207D11E4B1B7813F0040F02D01D4B1C702CE0184A13780133DBB213701378DBB2072B02D90022134B1A70124B1A78D2B2104B1B78DBB2AB
:402140009A420ED10D4A13780133DBB213701378DBB2072B02D90022084B1A7001220C4B1A70074B1B78DBB20A4AD4540A4A137843F004031370FFF747FF10BD9D83FF1F85
:402180009E83FF1F686500408483FF1F476500409083FF1F8883FF1F8865004010B5FFF765FF134B1A78D2B2124B1B78DBB29A4214D0114B1B7813F0FF0F0CD10C4A1378AD
:4021C0000133DBB213701378DBB2072B06D90022074B1A7002E00022074B1A70044B1B78DBB2064AD45CE4B2FFF714FF204610BD8583FF1F9F83FF1F9C83FF1F9483FF1FFB
:4022000008B501E0094B1B78094B1B7813F0200FF8D1FFF72BFF0023064A1370064A1370064A1370FFF7F6FE08BD00BF57650040676400409C83FF1F8583FF1F9F83FF1F63
:4022400008B501F031F80E4B1A7842F001021A701A7802F0FE021A7001F02AF8FFF700FF0023084A1370084A1370084A1370084A137803F0FB031370FFF7C6FE08BD00BF96
:40228000976500409083FF1F9D83FF1F9E83FF1F8865004070B506460C46002506E0705DFFF712FF0135EDB2013CE4B2002CF6D170BD00BF08B501E00A4B1B780A4B1B7870
:4022C00013F0200FF8D100F0EFFF084B1A7842F001021A701A7802F0FE021A7000F0E8FF08BD00BF57650040676400409765004010B50F22184B1A70184C0223236007219E
:40230000012000F0E7FD1649012000F0CFFD012323600721002000F0DDFD1249002000F0C5FDFFF7C7FF00240F4B1C700F4B1C700F4B1C700F4B1C700F4B1C700F4B1C7042
:40234000FFF79AFEFFF7ACFE0D4B1C702022A3F201131A7010BD00BF8864004080E100E0A1230000412400009C83FF1F8583FF1F9F83FF1F9083FF1F9D83FF1F9E83FF1F63
:402380008865004008B5054B1B7823B9FFF7B0FF0122024B1A70FFF743FE08BD8E81FF1F28E01F4B19781F4A137803F009030B431370137813F0040F24D01B4B1B7813F054
:4023C000FF0F0CD1194A13780133DBB213701378DBB2072B06D90022144B1A7002E00022114B1A70114B1B78DBB2114AD35CDBB2104A13700D4B1A78D2B20F4B1B78DBB24A
:402400009A42CED1094B1A78D2B20B4B1B78DBB29A4204D1094A137803F0FB0313707047686500408483FF1F9083FF1F9D83FF1F8883FF1F476500409E83FF1F8865004065
:40244000204B1A7820490B7803F0400313430B7032E01E4B1A78D2B21D490B780133DBB20B700B78DBB2072B02D90021184B1970174B1978C9B2174B1B78DBB299420ED1E2
:4024800014490B780133DBB20B700B78DBB2072B02D900210F4B197001210F4B19700C4B1B78DBB20D49CA54064B1A7806490B7803F0400313430B70034B1B7813F0200F20
:4024C000C7D1704767640040A083FF1F576500409F83FF1F8583FF1F9C83FF1F9483FF1F0822014B1A60704700E100E00422014B1A60704700E100E008B500F0D5FE0C4ACB
:40250000137843F0200313700232137843F010031370A2F20112137843F01003137000F0C7FE00F0B7FBFFF7DBFFFFF7DFFF08BD956500400822014B1A60704780E100E0D2
:402540000422014B1A60704780E100E010B5FFF7F1FF064B1C78064A137803F009031C4300231370FFF7BCFF204610BD67650040C083FF1F10B5FFF7E3FF064B1B78064AE6
:40258000147804F040041C4300231370FFF7AEFF204610BD66640040A783FF1F10B504462B4B1A7802F0FF0312B1013BDBB200E00723284A1278D2B29342F1D0FFF7BAFFC4
:4025C000254B1978254A137803F009030B4313701F4B1A78D2B21F4B1B78DBB29A4207D11E4B1B7813F0040F02D01D4B1C702CE0184A13780133DBB213701378DBB2072BF3
:4026000002D90022134B1A70124B1A78D2B2104B1B78DBB29A420ED10D4A13780133DBB213701378DBB2072B02D90022084B1A7001220C4B1A70074B1B78DBB20A4AD454D0
:402640000A4A137843F004031370FFF749FF10BDC183FF1FA883FF1F67650040C083FF1F44650040B483FF1FAC83FF1F8765004010B5FFF765FF134B1A78D2B2124B1B7861
:40268000DBB29A4214D0114B1B7813F0FF0F0CD10C4A13780133DBB213701378DBB2072B06D90022074B1A7002E00022074B1A70044B1B78DBB2064AD45CE4B2FFF716FF34
:4026C000204610BDA683FF1FA483FF1FA583FF1FB883FF1F08B501E0094B1B78094B1B7813F0200FF8D1FFF72BFF0023064A1370064A1370064A1370FFF7F8FE08BD00BFE9
:402700005465004066640040A583FF1FA683FF1FA483FF1F08B500F0C7FD0E4B1A7842F001021A701A7802F0FE021A7000F0C0FDFFF700FF0023084A1370084A1370084ADA
:402740001370084A137803F0FB031370FFF7C8FE08BD00BF94650040B483FF1FC183FF1FA883FF1F8765004070B506460C46002506E0705DFFF712FF0135EDB2013CE4B296
:40278000002CF6D170BD00BF08B501E00A4B1B780A4B1B7813F0200FF8D100F085FD084B1A7842F001021A701A7802F0FE021A7000F07EFD08BD00BF5465004066640040BB
:4027C0009465004010B50F22184B1A70184C082323600721032000F07DFB1649032000F065FB042323600721022000F073FB1249022000F05BFBFFF7C7FF00240F4B1C704B
:402800000F4B1C700F4B1C700F4B1C700F4B1C700F4B1C70FFF79AFEFFF7ACFE0D4B1C702022A3F201131A7010BD00BF8565004080E100E07528000015290000A583FF1F7B
:40284000A683FF1FA483FF1FB483FF1FC183FF1FA883FF1F8765004008B5054B1B7823B9FFF7B0FF0122024B1A70FFF745FE08BD8F81FF1F28E01F4B19781F4A137803F06F
:4028800009030B431370137813F0040F24D01B4B1B7813F0FF0F0CD1194A13780133DBB213701378DBB2072B06D90022144B1A7002E00022114B1A70114B1B78DBB2114A98
:4028C000D35CDBB2104A13700D4B1A78D2B20F4B1B78DBB29A42CED1094B1A78D2B20B4B1B78DBB29A4204D1094A137803F0FB031370704767650040C083FF1FB483FF1F80
:40290000C183FF1FAC83FF1F44650040A883FF1F87650040204B1A7820490B7803F0400313430B7032E01E4B1A78D2B21D490B780133DBB20B700B78DBB2072B02D90021A6
:40294000184B1970174B1978C9B2174B1B78DBB299420ED114490B780133DBB20B700B78DBB2072B02D900210F4B197001210F4B19700C4B1B78DBB20D49CA54064B1A78B1
:4029800006490B7803F0400313430B70034B1B7813F0200FC7D1704766640040A783FF1F54650040A483FF1FA683FF1FA583FF1FB883FF1F10B5002404E02046FEF73AFD07
:4029C0000134E4B2012CF8D9FF22014B1A7010BDD680FF1F10B50446FFF7ECFF2046FEF71BFD014B1C7010BDD680FF1F014B188880B2704780400040034B1A7800F0F800BD
:402A000010431870704700BF82400040024B187800F00700704700BF8240004070B505460E46FFF7F3FF0446FFF7E0FFA84256D02B4B1B7803F0010294B900B185B938B9F0
:402A4000284B1D80284A137803F0BF03137070BD254A137843F040031370224B1D8070BD22B3002321490B7001240F310C7004310B700C390B7803F07F030B701A4B1B789C
:402A800013F0080F00D08DB9194B18800721013B1970164B1B7813F0010FFAD110490B7803F0FE030B700021104B19700C4B1B7813F0010F0DD00E4B1D800EB1032200E047
:402AC00001220A4B1A70094B1B7813F0010FFAD170BD044B1D8002490B7813430B7070BDA243004080400040824000400140004002400040704700BF024B1B68C3F8B4004B
:402B0000704700BF08ED00E04001C0B2014B1870704700BF1DE400E04FF00052014B1A60704700BF00E100E04FF00052014B1A60704700BF80E100E008B5FFF7F5FF0448DD
:402B4000FFF7DAFF0720FFF7DFFFFFF7E5FF08BDF52A0000014B188880B2704700410040034B1A7800F0F80010431870704700BF02410040024B187800F00700704700BF91
:402B80000241004070B505460E46FFF7F3FF0446FFF7E0FFA84256D02B4B1B7803F0010294B900B185B938B9284B1D80284A137803F0BF03137070BD254A137843F04003A9
:402BC0001370224B1D8070BD22B3002321490B70012413310C7004390B7008390B7803F07F030B701A4B1B7813F0080F00D08DB9194B18800721013B1970164B1B7813F0E5
:402C0000010FFAD110490B7803F0FE030B700021104B19700C4B1B7813F0010F0DD00E4B1D800EB1032200E001220A4B1A70094B1B7813F0010FFAD170BD044B1D800249AA
:402C40000B7813430B7070BDA143004000410040024100400140004002400040054A137843F0080313701032137843F008031370704700BFA2430040054A137843F00403D0
:402C800013701032137843F004031370704700BFA2430040054A137843F0020313701032137843F002031370704700BFA24300400B4A7F2313708021517007E0DA0002F124
:402CC000804202F5F042013BDBB21370002BF5D1DB0003F1804303F5F04300221A707047D880FF1F172815D831B103010A495A5C42F020025A5405E0030107495A5C02F018
:402D0000DF025A540001044A835C43F00103835400207047012070471070004017280BD80001064A835C03F0F103490001F00E011943815400207047012070471070004037
:402D400041F6FF73994201D14FF4005141F6FF739A4201D14FF40052172808D8C00000F1804000F5EC408180C280002070470120704700BF172805D8034B03EB0010417200
:402D8000002070470120704710700040172809D8054B03EB0010037901F007011943017100207047012070471070004017281BD810B4C00000F1804404F5EC44D201D2B299
:402DC00001F07F01114321709DF804201201D2B203F00F03134363709DF8083003F00F03A3700020E07001E00120704710BC704710B500F059FA0A4B5B78182B0BD9084AC5
:402E00001478013B5370E30003F1804303F5F0431B78137000E0FF2400F04AFA204610BDD880FF1F10F0800F0CD111F4704F0BD1C00000F1804000F5F04001808270C37004
:402E400000207047012070470120704710F0800F08D1C00000F1804000F5F0408180C280002070470120704701BE704710B5044605E0084B186800F00FFAA4F50044B4F51F
:402E8000004FF6D8034B586800FB04F000F004FA10BD00BFE080FF1F08B5034B1B7A00FB03F000F0F9F908BDE080FF1F70B504460E46074B1D681F2802D90020FFF7D4FFA8
:402EC00004F01F04103455F8240045F8246070BD08ED00E038B504460D46072902D90020FFF7C2FF1F2C02D90020FFF7BDFF04F01F0000F1604000F564406D01EDB2057020
:402F000038BD00BF014B1B689866704708ED00E04001C0B2014B1870704700BF0AE400E04FF48062014B1A60704700BF00E100E04FF48062014B1A60704700BF80E100E0F5
:402F400010B50446FFF7F4FF2046FFF7DBFF0720FFF7DEFFFFF7E4FF10BD00BFF0B583B016461F460B4C0A2525700023019300932B460A4601462846FFF718FF3A4631464C
:402F80002078FFF7DDFE02212078FFF7C7FE207803B0F0BDF080FF1F014B1B681865704708ED00E04001C0B2014B1870704700BF04E400E01022014B1A60704700E100E09F
:402FC0001022014B1A60704780E100E010B50446FFF7F6FF2046FFF7DFFF0720FFF7E2FFFFF7E8FF10BD00BF1022014B1A60704700E200E0014B1B685865704708ED00E0BD
:403000004001C0B2014B1870704700BF05E400E02022014B1A60704700E100E02022014B1A60704780E100E010B50446FFF7F6FF2046FFF7DFFF0720FFF7E2FFFFF7E8FF3B
:4030400010BD00BF084A137843F0010313701032137843F00103137002F64D32137843F001031370704700BFA3430040014B1870704700BF034F004010B50446094B1B787C
:4030800013F0010F02D00020FFF7EEFE054B1A7842F001021A70044A14801A7802F0FE021A7010BDA3430040064F0040014B1880704700BF044F004008B5184B1A7802F07F
:4030C00001021A7016490A7802F0FC020A701A7842F004021A70134A137843F001031370114B1A7802F0CF021A701A7842F030021A701A7802F0F0021A701A7842F00F0272
:403100001A7041F28830FFF7D1FF41F28830FFF7B3FF0820FFF7AAFF08BD00BF004F0040024F0040014F00400B4F004008B5054B1B7823B9FFF7C0FF0122024B1A70FFF70B
:4031400081FF08BD9081FF1F014B1B68D865704708ED00E04001C0B2014B1870704700BF07E400E08022014B1A60704700E100E08022014B1A60704780E100E010B504462C
:40318000FFF7F6FF2046FFF7DFFF0720FFF7E2FFFFF7E8FF10BD00BF084A137843F0020313701032137843F00203137002F65932137843F001031370704700BFA3430040FF
:4031C000014B1870704700BF0F4F004010B50446094B1B7813F0020F02D00020FFF744FE054B1A7842F002021A70044A14801A7802F0FD021A7010BDA3430040124F00408E
:40320000014B1880704700BF104F004008B5174B1A7802F001021A7015490A7802F0FC020A701A7842F004021A70124A137843F001031370104B1A7802F0CF021A701A785A
:4032400042F030021A701A7802F0F0021A701A7842F00F021A7042F21070FFF7D1FF0020FFF7B4FF0820FFF7ABFF08BD0C4F00400E4F00400D4F0040174F004008B5054BAA
:403280001B7823B9FFF7C2FF0122024B1A70FFF783FF08BD9181FF1F0230800803D000BF01380046FCD17047EFF3108072B6704780F31088704700BF81F0004102E000BF0D
:4032C00083F0004330B54FEA41044FEA430594EA050F08BF90EA020F1FBF54EA000C55EA020C7FEA645C7FEA655C00F0E2804FEA5454D4EB5555B8BF6D420CDD2C4480EA03
:40330000020281EA030382EA000083EA010180EA020281EA0303362D88BF30BD11F0004F4FEA01314FF4801C4CEA113102D0404261EB410113F0004F4FEA03334CEA133396
:4033400002D0524263EB430394EA050F00F0A780A4F10104D5F1200E0DDB02FA0EFC22FA05F2801841F1000103FA0EF2801843FA05F359410EE0A5F120050EF1200E012AEB
:4033800003FA0EFC28BF4CF0020C43FA05F3C01851EBE37101F0004507D54FF0000EDCF1000C7EEB00006EEB0101B1F5801F1BD3B1F5001F0CD349085FEA30004FEA3C0C1A
:4033C00004F101044FEA445212F5800F80F09A80BCF1004F08BF5FEA500C50F1000041EB045141EA050130BD5FEA4C0C404141EB010111F4801FA4F10104E9D191F0000FC4
:4034000004BF01460020B1FA81F308BF2033A3F10B03B3F120020CDA0C3208DD02F1140CC2F10C0201FA0CF021FA02F10CE002F11402D8BFC2F1200C01FA02F120FA0CFC64
:40344000DCBF41EA0C019040E41AA2BF01EB0451294330BD6FEA04041F3C1CDA0C340EDC04F11404C4F1200220FA04F001FA02F340EA030021FA04F345EA030130BDC4F1DE
:403480000C04C4F1200220FA02F001FA04F340EA0300294630BD21FA04F0294630BD94F0000F83F4801306BF81F480110134013D4EE77FEA645C18BF7FEA655C29D094EA82
:4034C000050F08BF90EA020F05D054EA000C04BF1946104630BD91EA030F1EBF0021002030BD5FEA545C05D14000494128BF41F0004130BD14F580043CBF01F5801130BD6F
:4035000001F0004545F0FE4141F470014FF0000030BD7FEA645C1ABF194610467FEA655C1CBF0B46024650EA013406BF52EA033591EA030F41F4002130BD00BF90F0000FF4
:4035400004BF0021704730B54FF4806404F132044FF000054FF0000150E700BF90F0000F04BF0021704730B54FF4806404F1320410F0004548BF40424FF000013EE700BFAC
:4035800042004FEAE2014FEA31014FEA02701FBF12F07F4393F07F4F81F06051704792F0000F14BF93F07F4F704730B54FF4607401F0004521F0004120E700BF50EA0102D8
:4035C00008BF704730B54FF000050AE050EA010208BF704730B511F0004502D5404261EB41014FF4806404F132045FEA915C3FF4DCAE4FF003025FEADC0C18BF03325FEA5E
:40360000DC0C18BF033202EBDC02C2F1200300FA03FC20FA02F001FA03FE40EA0E0021FA02F11444C1E600BF70B54FF0FF0C4CF4E06C1CEA11541DBF1CEA135594EA0C0FA7
:4036400095EA0C0F00F0DEF82C4481EA030621EA4C5123EA4C5350EA013518BF52EA033541F4801143F4801338D0A0FB02CE4FF00005E1FB02E506F00042E0FB03E54FF0B3
:403680000006E1FB03569CF0000F18BF4EF0010EA4F1FF04B6F5007F64F5407404D25FEA4E0E6D4146EB060642EAC62141EA55514FEAC52040EA5E504FEACE2EB4F1FD0C1E
:4036C00088BFBCF5E06F1ED8BEF1004F08BF5FEA500E50F1000041EB045170BD06F0004646EA010140EA020081EA0301B4EB5C04C2BFD4EB0C0541EA045170BD41F4801166
:403700004FF0000E013C00F3AB8014F1360FDEBF002001F0004170BDC4F10004203C35DA0C341BDC04F11404C4F1200500FA05F320FA04F001FA05F240EA020001F00042E8
:4037400021F0004110EBD37021FA04F642EB06015EEA430E08BF20EAD37070BDC4F10C04C4F1200500FA04F320FA05F001FA04F240EA020001F0004110EBD37041F1000137
:403780005EEA430E08BF20EAD37070BDC4F1200500FA05F24EEA020E20FA04F301FA05F243EA020321FA04F001F0004121FA04F220EA020000EBD3705EEA430E08BF20EAF1
:4037C000D37070BD94F0000F0FD101F00046400041EB010111F4801F08BF013CF7D041EA060195F0000F18BF704703F00046520043EB030313F4801F08BF013DF7D043EA20
:403800000603704794EA0C0F0CEA135518BF95EA0C0F0CD050EA410618BF52EA4306D1D181EA030101F000414FF0000070BD50EA410606BF1046194652EA430619D094EA11
:403840000C0F02D150EA013613D195EA0C0F05D152EA03361CBF104619460AD181EA030101F0004141F0FE4141F470014FF0000070BD41F0FE4141F4780170BD70B54FF0E3
:40388000FF0C4CF4E06C1CEA11541DBF1CEA135594EA0C0F95EA0C0F00F0A7F8A4EB050481EA030E52EA03354FEA013100F088804FEA03334FF0805545EA131343EA126395
:4038C0004FEA022245EA111545EA10654FEA00260EF000419D4208BF964244F1FD0404F5407402D25B084FEA3202B61A65EB03055B084FEA32024FF480104FF4002CB6EBF4
:40390000020E75EB030E22BFB61A754640EA0C005B084FEA3202B6EB020E75EB030E22BFB61A754640EA5C005B084FEA3202B6EB020E75EB030E22BFB61A754640EA9C005C
:403940005B084FEA3202B6EB020E75EB030E22BFB61A754640EADC0055EA060E18D04FEA051545EA16754FEA06164FEAC30343EA52734FEAC2025FEA1C1CC0D111F4801FA2
:403980000BD141EA00014FF000004FF0004CB6E711F4801F04BF01430020B4F1FD0C88BFBCF5E06F3FF6AFAEB5EB030C04BFB6EB020C5FEA500C50F1000041EB045170BD91
:4039C0000EF0004E4EEA113114EB5C04C2BFD4EB0C0541EA045170BD41F480114FF0000E013C90E645EA060E8DE60CEA135594EA0C0F08BF95EA0C0F3FF43BAF94EA0C0F1A
:403A00000AD150EA01347FF434AF95EA0C0F7FF425AF104619462CE795EA0C0F06D152EA03353FF4FDAE1046194622E750EA410618BF52EA43067FF4C5AE50EA41047FF407
:403A40000DAF52EA43057FF4EBAE12E74FEA410212F5001215D211D56FF47873B3EB625212D94FEAC12343F0004343EA505311F0004F23FA02F018BF404270474FF0000003
:403A8000704750EA013005D111F0004008BF6FF0004070474FF00000704700BF80F0004002E000BF81F0004142001FBF5FEA410392EA030F7FEA226C7FEA236C6AD04FEA5B
:403AC0001262D2EB1363C1BFD218414048404140B8BF5B42192B88BF704710F0004F40F4000020F07F4018BF404211F0004F41F4000121F07F4118BF494292EA030F3FD0D4
:403B0000A2F1010241FA03FC10EB0C00C3F1200301FA03F100F0004302D5494260EB4000B0F5000F13D3B0F1807F06D340084FEA310102F10102FE2A51D2B1F1004F40EBA5
:403B4000C25008BF20F0010040EA03007047490040EB000010F4000FA2F10102EDD1B0FA80FCACF1080CB2EB0C0200FA0CF0AABF00EBC25052421843BCBFD0401843704732
:403B800092F0000F81F4000106BF80F400000132013BB5E74FEA41037FEA226C18BF7FEA236C21D092EA030F04D092F0000F08BF0846704790EA010F1CBF0020704712F089
:403BC0007F4F04D1400028BF40F00040704712F100723CBF00F50000704700F0004343F0FE4040F4000070477FEA226216BF08467FEA23630146420206BF5FEA412390EAB3
:403C0000010F40F4800070474FF0000304E000BF10F0004348BF40425FEA000C08BF704743F0964301464FF000001CE050EA010208BF70474FF000030AE000BF50EA010214
:403C400008BF704711F0004302D5404261EB41015FEA010C02BF84460146002043F0B64308BFA3F18053A3F50003BCFA8CF2083AA3EBC25310DB01FA02FC634400FA02FCC2
:403C8000C2F12002BCF1004F20FA02F243EB020008BF20F00100704702F1200201FA02FCC2F1200250EA4C0021FA02F243EB020008BF20EADC707047014B1868704700BFA8
:403CC0005481FF1F0E4B70B51E460E4C0025E41AA410A54204D056F8253098470135F8E701F020F8084B094C1E46E41AA4100025A54204D056F8253098470135F8E770BD01
:403D0000304D0000304D0000304D0000384D000010B5431E0A44914204D011F8014B03F8014FF8E710BD03460244934202D003F8011BFAE7704700000EB400B54FF402710E
:403D40009CB0ADF814106FF00041049107914FF6FF711DAB02900690084853F8042BADF81610006802A9019300F064F8029B00221A701CB05DF804EB03B070475481FF1F7E
:403D80002DE9F0478E6882469E420C46914698463ED88A8912F4906F3AD02568096902236F1A656905EB450595FBF3F57B1C43449D4238BF1D4653050FD5294600F040FB7F
:403DC000064698B13A462169FFF7A2FFA38923F4906343F08003A38113E02A4600F08EFB064670B92169504600F0DEFA0C23CAF80030A3894FF0FF3043F04003A381BDE84A
:403E0000F08726613E44266046466561ED1BA560464528BF464649463246206800F0A8FAA36800209B1BA36023681E442660BDE8F08700002DE9F04F9DB003938B89804679
:403E40001C060D4616460DD50B695BB9402100F0F7FA2860286118B90C23C8F80030CDE040236B610023099320238DF82930DFF89CB130238DF82A3037463C4614F8013B6B
:403E80001BB9B7EB060910D003E0252BF9D02746F3E74B46324629464046FFF771FF013000F0A780099B4B4409933B78002B00F0A08000234FF0FF320493079305920693FD
:403EC0008DF853301A930126052221784E4800F041FA671C049B38B14B4A3C46801A06FA00F018430490EFE7D90644BF20228DF853201A0744BF2B228DF8532022782A2A81
:403F000003D0079A00210A200BE0039A111D12680391002A10DA524243F00200079204900BE027463B780134303B092B03D800FB02320121F5E701B107923B782E2B1ED1C7
:403F40007B782A2B0AD1039B02371A1D1B680392002BB8BF4FF0FF33059310E0002319460593781C0A2407463A780130303A092A03D804FB01210123F5E703B10591032249
:403F80003978224800F0E6F940B14023CBEB000003FA00F0049B013718430490397806221B487E1C8DF8281000F0D4F988B1194B33B9039B073323F007030833039314E0C7
:403FC00003AB00932A46144B04A94046AFF3008007E003AB00932A460F4B04A9404600F093F8B0F1FF3F824603D0099B5344099342E7AB895B0601D4099801E04FF0FF30E8
:404000001DB0BDE8F08F00BFF04C0000F64C0000FA4C000000000000813D00002DE9F04791461F460A698B6806469342B8BF1346C9F8003091F843200C46DDF8208012B107
:404040000133C9F800302368990642BFD9F800300233C9F80030256815F0060510D104F1190A07E00123524639463046C04701301AD00135E368D9F800209B1A9D42F1DBA7
:4040800094F843302268003318BF012392060FD5E118302081F843005A1C94F845102244023382F8431003E04FF0FF30BDE8F08704F1430239463046C0470130F4D02268E7
:4040C000D9F80050E36802F00602042A08BF5D1B2269A3680CBF25EAE57500259342C4BF9B1AED184FF000091A344D4509D00123224639463046C0470130D5D009F1010989
:40410000F3E70020BDE8F0872DE9F04317460A7E85B06E2A984606460C460C9B01F1430E00F0AE8011D8632A22D009D8002A00F0BB80582A40F0CA8081F84520834955E071
:40414000642A1ED0692A1CD0C0E0732A00F0B08009D86F2A2ED0702A40F0B8800A6842F020020A603EE0752A24D0782A3AD0ADE01A6801F14205111D1960136884F8423088
:40418000A8E021681A6811F0800F02D0111D196008E011F0400F02F10401196002D0B2F9003000E01368002B3CDA2D225B4284F8432037E021681A6811F0800F02D0111DF4
:4041C000196007E011F0400F02F10401196001D0138800E01368227E5C496F2A14BF0A2208221BE078225A4984F845202268186812F0800F00F104051D6003D1550601D5A0
:40420000038800E00368D00744BF42F0200222601BB9226822F0200222601022002084F8430001E049490A226568002DA56008DB206820F0040020602BB9002D7DD175461C
:404240000CE0002B79D07546B3FBF2F002FB1033CB5C05F8013D03460028F5D1082A0BD12368DA0708D5236962689A42DEBF302305F8013C05F1FF35C5EB0E0323612EE08A
:4042800008681A6810F0800F496903D0101D1860136808E010F0400F02F104001860136801D0198000E0196000232361754616E01A68111D1960156800216268284600F0AD
:4042C00049F808B1401B6060636804E004F1420584F8422001232361002384F84330CDF800803B4603AA21463046FFF797FE013002D14FF0FF3026E023692A4639463046E2
:40430000C0470130F5D023689B0710D5002504F1190907E001234A4639463046C0470130E7D00135E368039A9B1A9D42F2DBE068039B9842B8BF184605E00B7804F14205FB
:4043400084F842308AE705B0BDE8F083014D0000124D000010B5C9B202449042034605D01C7801308C42F8D1184610BD002010BD884210B501EB020301D8421E0BE09842FC
:40438000FBD28118D21AD34204D013F8014D01F8014DF8E710BD994204D011F8014B02F8014FF8E710BD000038B50546002944D051F8043C0C1F002BB8BFE41800F0D4F8F9
:4043C0001E4A1368114613B96360146030E0A3420DD92268A018834201BF18685B681218226063600C6023E0A24203D813465A68002AF9D118681918A1420BD121680144B1
:4044000058188242196013D110685268014419605A600DE002D90C232B6009E021686018824201BF106852680918216062605C602846BDE8384000F098B838BD9881FF1F08
:4044400070B5CD1C25F0030508350C2D38BF0C25002D064601DBA94202D90C23336046E000F082F8234B1C681A462146A1B10B685B1B0ED40B2B03D90B60CC18CD501EE0B4
:404480008C420BBF63684B681360636018BF0C4615E00C464968E9E7174C23681BB9304600F052F820602946304600F04DF8431C18D0C41C24F00304A0420DD125603046B6
:4044C00000F053F804F10B00231D20F00700C31A0ED05A42E25070BD211A304600F034F80130EBD10C233360304600F03EF8002070BD00BF9881FF1F9481FF1FF8B50746EC
:4045000015460E4621B91146BDE8F840FFF798BF1AB9FFF749FF2846F8BD00F027F885420ED929463846FFF78BFF044650B131462A46FFF7EDFB31463846FFF735FF01E003
:404540003046F8BD2046F8BD38B5064C0023054608462360FDF72EF8431C02D1236803B12B6038BDC483FF1F7047704751F8040C0028BEBF091851F8043CC0180438704726
:404580000000000004081030010A193202040810E803640028001400E803E803E80310272020202020202020202020202020202020202020202020203C3C2D2D2D20504FFA
:4045C000525441424C452044415441204143515549534954494F4E20424F415244202D2D2D3E3E202020202020202020202020202020200D0A506C656173652073656C6579
:40460000637420796F757220706572736F6E616C2073657474696E67730D0A00202020204C6567656E643A0D0A0000002020202020202020422F62202D2D3E205374617223
:40464000742044617461204163717569736974696F6E0D0A2020202020202020462F66202D2D3E2053656C6563742046756C6C205363616C652052616E67650D0A2020201A
:404680002020202020502F70202D2D3E2053656C6563742053616D706C696E67204672657175656E63790D0A20202020202020204C2F6C202D2D3E2053656C65637420416F
:4046C0006E616C6F672053656E736F720D0A2020202020202020532F73202D2D3E2053746F702064617461206163717569736974696F6E0D0A2020202020202020562F76F0
:40470000202D2D3E2056697375616C697A65206461746120696E204243500D0A2020202020202020552F75202D2D3E204578697420646174612076697375616C697A617497
:40474000696F6E0D0A2020202020202020203F20202D2D3E204D61696E204D656E750D0A0000000050686F746F7265736973746F72000000506F74656E74696F6D657465B2
:404780007200000049646C696E670000416371756972696E6700000053616D706C696E67206672657175656E6379203D20256420487A207C2000000046756C6C20736361D2
:4047C0006C652072616E6765203D202B2D256420670D0A00416E616C6F672073656E736F72203D202573207C200000005374617465203D202573200D0A0000002A2A2045DC
:404800004550524F4D20526561640D0A636F6E6669675F726567203D203078253032780D0A696E646578454550524F4D203D2025640D0A002A2A2A2A2A2A2A2A2A2A2A2AFF
:404840002A2A2A2A2A2A2A2A2A2A2A2A2A2A2A2A2A2A2A2A2A2A2A2A2A0D0A002A2A204C495333444820556E7A69700D0A465320202020203D203078253032780D0A4653B2
:4048800052202020203D203078253032780D0A414E414C4F47203D203078253032780D0A000000002A2A204C49533344482052656164202A2A0D0A004354524C5F5245476A
:4048C0003320202020203D203078253032780D0A000000004354524C5F5245473520202020203D203078253032780D0A000000004649464F5F4354524C5F524547203D20F6
:404900003078253032780D0A000000004354524C5F5245473120202020203D203078253032780D0A000000004354524C5F5245473420202020203D203078253032780D0AFA
:40494000000000006366675F7267204F4C44203D203078253032780D0A0000006366675F726567204E4557203D203078253032780D0A00004649464F20636F6E74726F6C3E
:404980002061667465722073746F70203D20253032780D0A000000002A2A205550444154454420636F6E6669675F726567203D203078253032782C203078253032780D0A70
:4049C00000000000001020301020304053544152540D0A0053455420434F4E4649470D0A0000000063685F7265636569766564203D2025630D0A0000636F6E66696753657E
:404A00007473203D202564202D2025640D0A00007C436861726163746572207C2046756C6C205363616C652052616E67652020202020202020207C0A7C20312020202020FC
:404A40002020207C202B2D20326720202020202020202020202020202020202020207C0A7C203220202020202020207C202B2D2034672020202020202020202020202020E6
:404A80002020202020207C0A7C203320202020202020207C202B2D20386720202020202020202020202020202020202020207C0A7C203420202020202020207C202B2D2044
:404AC000313667202020202020202020202020202020202020207C0A0D0000007C436861726163746572207C2053616D706C696E67204672657175656E6379202020202083
:404B000020207C0A7C203120202020202020207C202031487A2020202020202020202020202020202020202020207C0A7C203220202020202020207C203130487A20202020
:404B40002020202020202020202020202020202020207C0A7C203320202020202020207C203235487A2020202020202020202020202020202020202020207C0A7C203420C5
:404B8000202020202020207C203530487A2020202020202020202020202020202020202020207C0A0D0000007C436861726163746572207C2053656E736F72202020202040
:404BC00020202020202020202020202020207C0A7C203020202020202020207C2053746F7265206C756D696E6F736974792064617461202020207C0A7C2031202020202050
:404C00002020207C2053746F726520706F74656E74696F6D657465722064617461207C0A0D0000002D2D3E2050686F746F7265736973746F720A0D002D2D3E20506F7465AB
:404C40006E74696F6D657465720A0D0044617461206D656D6F727920636C6561726564210A0D000053595354454D205245534554210A0D003D510040005B00403D510040F4
:404C8000005B004010100880035B00402443004040000000004F00403000405100403000F05100401000000001400010001401408002001701400003801A014080010040BC
:404CC0000140000A004C0140000200500140200060520040840800480600801601408C0800488000001A01400C09004880004300232D302B2000686C4C00656667454647C0
:404D0000003031323334353637383941424344454600303132333435363738396162636465660000F8B500BFF8BC08BC9E4670474D00000031160000F8B500BFF8BC08BC78
:404D40009E46704729000000584D0000C880FF1F90000000700200000000000007000000C883FF1F01FFFF007F800000000400000000E02EC05D00001800000000366E0108
:404D8000FF0000000000000000000000000000000000000000000000000000000000000000000000EE4C0000000000000000000000000000000000000000000000000000BA
:404DC000000000000000000000000000000000000000000000000000000000000000000000000000F480FF1F00000000000000000000000000000000000000000000000021
:404E00000000000000000000000000000000000000000000000000000000000000000000000000000000000000000000000000000000000000000000000000000000000072
:404E40000000000000000000000000000000000000000000000000000000000000000000000000000000000000000000000000000000000000000000000000000000000032
:404E800000000000000000000000000000000000000000000000000000000000000000000000000000000000000000000000000000000000000000000000000000000000F2
:404EC00000000000000000000000000000000000000000000000000000000000000000000000000000000000000000000000000000000000000000000000000000000000B2
:020000040003F7
:0200000480007A
:40000000084F00400352004002640040046500400203014003040140080501405E0601403F0701406E0801403F090140070B0140040C0140020D01405E1401404A150140B6
:400040001D1601405A1701404C1801404C190140081A0140421B014005400140164101401C4201400C430140044401400745014005460140044701400B480140084901406D
:40008000084C0140084D0140065001400351014001400AC60D40164B1940224B25402E4B004001201102880F890D850F860F89388A728740EE01BF01D904DF012780838022
:4000C0009780A180A980E610EA0CEE010080024004020501060D089D0C110E221442169418E21A181C9D208D2210241D26802B012C9D320F34F035013A38544056045804FA
:4001000059045B045C515D105F0181C8820883028471860689CA8D038F34911893609582960C9748987199489A0E9B829F80A17CA303A480A502A613A82CA9CAAA43AD11CF
:40014000AF68B030B170B2C0B380B40FB50FB620B88ABA20BB22BE01BF04C004C604C9FFCA07CBFFCC40CD20CEF0CF05D008D440D604D804D904DA04DB04DC23DD23DF0153
:40018000E040E1A8E240E320002001080204038004A005060A280E2A10201208150216021704184019801A201B101D041E081F20208821182202262029212A842F08300884
:4001C0003110328239103A013B403E08404048204E084F205380612862806380665067A080088340860889108D108F089780A180C0FCC2E6C4B6CA2FCC0FCE4DD001D8FFE7
:40020000E201E682EC1001060405050F063A071009220B050D020F041131130A150416101702180219021A0D1B041C231E0C21062409263629242D0231073230340F35388E
:400240003A203B204060410449FF4AFF4BFF4DA04F04501856025728580459045A045B045C225D255F01604062C06440654066C068C06AC06CC06EC0820287108A068B1091
:400280008D0E91059201930A99049B09A503A704AA0CB002B10FB208B401B510B604B902BE01BF10C060C105C5D0C602C701C816C9FFCAFFCBFFCDAFCE0FCF04D018D28040
:4002C000D405D804D904DA04DB04DC25DD55DF01E040E2C0E440E540E6C0E8C0EAC0ECC0EEC00120024006100B400E161208170819221B881E141F102040222025312601C0
:4003000027082A082C052D013120320236023714384039203B043D203E4A464049214B804D205004524853405888590167206C016D016E406F5473407602830487088A037C
:400340008C059610A780C02AC2E8C422CAB2CCE5CEFED080D22CD60BD840E2D0E680EC108E10A780AB88AF08E610EC04EE0139203F1059045F012708EE0101300B030D9D61
:400380000F62170419EA1B1425862749313833073540378039023F50402141054230440645CE46FD470B481F49FF4AFF4BFF4C224EF04F0C500459045A045C105D015F013E
:4003C00062C0644065016610671168C069016B116C406D016E406F018210840285F2861D88218A1A8C108DF290239163920C930C940395D096349722984099019B749C1073
:400400009D22A1F2A410A523A758A810AD22AFD0B020B160B21FB380B440B51FB802B920BA08BE10BF04D602D724D804D904DB04DC11DD10DF0106AA0E220F4817141E08A9
:400440001F0521012220231124902520261228102A082B202E802FA23008312036923704388039023B503C803E044012412049264A8250085250662067086C106E466F9641
:4004800074407602824088128B108E208F41928094B09640970199209D069E529F44A324A615AD80B080B310B412B512B702C0F0C2F0C460CAD2CCF6CE5DD00ED20CD820FD
:4004C000E240E401E680EA08EE010201080112011C0124012C0134013E104031410245EE460C470B481749FF4AFF4BFF4EF04F44500C540158045A045B045D335F0166C027
:400500006A406B020108042006400A280D010E4210851208138016021704184019081F1022442320282529082B8032543A08400441804308442047A0481449804B024D018F
:400540004F0851205280530254805608580259145B405C405D015E085F10638183098748885089208F409004922094A09502960897609B809D0A9E529F04A044A180A208F0
:40058000A3A0A410A520A691A824A901AA20AB80B190B280B520B601C054C296C4ABCA0FCC0ECE02D07ED20CD6FFD809E208E404E641EA04EC11EE800004011A0280046047
:4005C00005020705085609040A090B110C840D050F08100A12101404151A1807191A1A381C011D041F1A2084211A2480260428842D1A3002311E3480367F370138803B0240
:400600003E113F4054095604580459045B045C225D205F018402850186058C118E2A90249212970198779B019F02A302A877A901AC40B030B240B407B501B608B702B920AD
:40064000BF40D418D804D904DB04DC33DD30DF0101800320040206A207080A440D080E010F8811501501171418401A501BA01D201E011F11228023042640274029122D01E7
:400680002E8032503308375438043DA03E0A3F885A025D085E805F1262A06782810982088740880589088B108D80900291019520960197049A029B1C9C059E08A151A22027
:4006C000A880AB08B140B212B408B502B750C0F5C2FAC473CA95CC7ECEF2D6F1D89CE220E4A0EA10EC30EE409E01AC02B002B601BE01D804DC05DF010060032008920A1091
:400700000B040D8010AA1740180519211B081E021F01202022592304281229202B803080320A332038683A014005425049124A08511059015AC069506A0470BC8212834124
:4007400084028708888289A08E01904092109404957096A69D92A180A3A0A601A708AA01AD20B312B620C007C28FC48FCA0FCC0FCE0FD00FD204D601E404EC4033123581C4
:400780003B40CCF0CE101340328033043404374039805E016108870297409B409D819F10A702AB40C440CCF0CE10D680D840E210EE801008128013401580170432205F0151
:4007C0006381678083018D089380958096019C049D819F14A340A508A680AB40AF40C4F0CC10D6C0D8C0E280EA30650483108A0196019C049D819F10AE20AF40B408D880BF
:40080000E22013027C01C408DE010120034053019401AB02C00AD401450294019920AB41D0019920A502B401EC082704650485808D019D859F04B004B704C820D880E210F8
:40084000722075088A208D08A904DC80DE20EE80088088808D209920B502C202E20CEC0810807001800188808C80C408DC01E603002E0A2E0C24102E1A0E1C2C00FF01FFF7
:40088000022B000004800000400000000000000013140C00000000000000000000000000000C0871130904D00000000303101440001000AC0ADC14220000152010000FE029
:4008C0000000001F00000808000001006203500001ECFDB02FFFFFFF2200F008040000000900040004040404331200010000C00040011011C0010011400140010000000056
:4009000000000000000000000000000000410000031880003F080000028040001F0020E600FF23001CC0230033100C0008000001043900C40CE70018011940E210C02C00F0
:400940000F1FC03800002828000041002306040001C0E0000AFFFFFF62A0F0410C00000000000213040404043333000100000000000040020010301000101012000000005C
:4009800000000000000000000000000000606000600000008400508C8C008C00000000008000408B8B00000000000000140001161200020000000000000101000000180070
:4009C00014001801000A00000000000000000000000000000000000000000000000000000000000000000000000000000000000000000000000000000000000000000000C0
:400A000000000000000000000000000000000000000000000000000000000000000000000000000000000000000000000000000000000000000000000000000000000000B6
:400A40000000000000000000000000000000000000000000000000000000000000000000000000000000000000000000000000000000000000000000000000000000000076
:400A80000000000000000000000000000000000000000000000000000000000000000000000000000000000000000000000000000000000000000000000000000000000036
:400AC00000000000000000000000000000000000000000000000000000000000000000000000000000000000000000000000000000000000000000000000000000000000F6
:0200000490006A
:0400000000004005B7
:0200000490105A
:04000000BC90ACAF55
:0200000490303A
:020000004CA60C
:0200000490402A
:4000000000000000000000000000000000000000000000000000000000000000000000000000000000000000000000000000000000000000000000000000000000000000C0
:400040000000000000000000000000000000000000000000000000000000000000000000000000000000000000000000000000000000000000000000000000000000000080
:400080000000000000000000000000000000000000000000000000000000000000000000000000000000000000000000000000000000000000000000000000000000000040
:4000C0000000000000000000000000000000000000000000000000000000000000000000000000000000000000000000000000000000000000000000000000000000000000
:0200000490501A
:0C00000000012E16106900012E355D0F66
:00000001FF