:400000000080002011000000F5140000F514000008B5044B1A6803F53F5302331A6001F089FA00BFFA46004010B5054C237833B9044B13B10448AFF300800123237010BDE1
:400040005881FF1F00000000E8440000084B10B51BB108490848AFF300800848036803B910BD074B002BFBD0BDE81040184700BF000000005C81FF1FE8440000C880FF1F8A
:40008000000000002DE9F041002435E0671CC55DAD081D55C55D065D04F1030E10F80EC0B60846EA851545EA1C15DD5504F1020C10F80E5010F80C60671D10F8078036094A
:4000C00046EA051545EA981503F80C5010F807C0261D855DAD0945EA8C0503F80E50084DA5FB04E56D0811F805E003F806E00D446D78DD550634E4B29442C7D3BDE8F081E0
:40010000ABAAAAAA43789B0023F03F030B70027843789B0943EA82034B7083781B0123F03F038B70427883781B0943EA0213CB70C3789B010B718278C3789B0843EA821300
:400140004B7103798B714379CB717047000000002DE9F04182B004460D46434B186801902378607843EA002040F3891003F004FD03F0BAF93AA3D3E9002303F009FA0646C3
:400180000F46DFF8EC8098F80030C3F3810302AA134413F8040C03F095F932463B4603F0F7F90022314B03F01DFB03F003FC2880A378E07843EA002040F3891003F0DCFC98
:4001C00003F092F926A3D3E9002303F0E1F906460F4698F80030C3F3810302AA134413F8040C03F06FF932463B4603F0D1F900221E4B03F0F7FA03F0DDFB688023796079AB
:4002000043EA002040F3891003F0B6FC03F06CF913A3D3E9002303F0BBF906460F4698F80030C3F3810302AA134413F8040C03F049F932463B4603F0ABF900220B4B03F083
:40024000D1FA03F0B7FBA880A379E07943EA002001F0DEFDE88002B0BDE8F081AFF3008077BE9F1A2F9D2340EC44000000002440A881FF1FF8B50B4C24788CB11F460D4679
:400280000646104601F054FE002404E0305D01F04FFE0134E4B2AC42F8D3384601F048FEF8BD00BF9081FF1F10B504782409013CE4B201F015FA064B03EB4404A08801F0C9
:4002C000CFF9C72001F010FB642001F013FB10BDEC4400002DE9F041ECB062B601F0F8FD4FF47A7002F06EFD01F054FB02F0D0FE02F076FF01F0F4FF0A2002F063FD02F0AF
:4003000057FA0A2002F05EFD01F096FD01F06CFD02F0BEFB00F0FEFE8E4E0DF1E601304600F094FA32788C4CBDF8E6308B49204603F0B6FC204601F007FE894F384601F0FC
:4003400003FE3078874D294600F0CEFB2A786B78A978E878019000918349204603F0A0FC204601F0F1FD00F04DFC284600F05CFC7E4801F0E9FD222000F026FC02467C49BD
:40038000204603F08DFC204601F0DEFD242000F01BFC02467749204603F082FC204601F0D3FD2E2000F010FC02467349204603F077FC204601F0C8FD202000F005FC024629
:4003C0006E49204603F06CFC204601F0BDFD232000F0FAFB02466A49204603F061FC204601F0B2FD384601F0AFFD664801F016FB654802F051FD654801F04EFA644802F059
:4004000091FD644801F0A4F9634802F0BFFD634802F066FE337813F0200F08D0284600F003FCA87801F018FD2846FFF73DFF00F073FC01E001F05AFD01F06EFD0028F9D1EC
:4004400000274FF0070801E001F050FD01F064FD0028F9D1524B1B780BB3514B5B78F3B13C4C23784F4D2B703E4800F079FB20702A782378DBB29A4208D03A480023C37079
:4004800000F06EFB20700122474B1A700C2001F04FFD00F041FC424B00221A705A70424B1B78424A127812F0FF0F03F0010318BF00233F4A127812F0FF0F03F0010318BF53
:4004C0000023002B00F09780224C2178022000F08DF900F0FFF92078224D294600F004FB00F090FB284600F09FFBA87801F0B4FC237813F0200F05D001F0ACF810B9284619
:40050000FFF7D2FE134B1B7813F0200F6BD101F0A1F8002867D001F097F801F07BF8002001F0E2F9002001F0E5F9BDF8E6806CA9072321F8CA3D0222002000F095F900F0C2
:40054000C9F9BFB3312001F0CFF9192001F0D2F936E000BFA881FF1FEC81FF1F0045000038450000A481FF1F60450000B8450000CC450000E845000004460000204600000C
:400580003C4600000D0E0000950C0000690C0000810C0000750C00009D0C0000F50C00007C81FF1FA081FF1F7481FF1F7881FF1F7A81FF1F002001F097F9002001F09AF9EE
:4005C00000F020FB052002F0FDFB312000F0FCFA01F03AF802F0BAFC01F072F90027684B1F70684B1F700C2001F0A2FC00F094FB0022654B1A70654B1B78624A127812F0C7
:40060000FF0F03F0010318BF00235D4A127812F0FF0F03F0010318BF0023002B40D05C4B1B889BB298450ED80722594B1A8003AB584A52F80C0F516803C3C023A02208218B
:4006400003A8FFF717FE524B1888062207A980B200F0EAF805A907A8FFF754FD3AA905A8FFF776FDBDF9EE30002B02DA0023ADF8EE30BDF9EE2041F288339A4201DDADF83C
:40068000EE30C023A02208213AA8FFF7F3FD404A13889BB206339BB2138000223B4B1A70384B1B78364A1278134087F0010213423FF4CCAE312000F087FA00F07FFA00F0BF
:4006C0005F035F2B06D000F01F0000EB40004600F6B200E0C02660223CA9282000F0B4FA602254A9282000F0AFFA09AB32462A493CA8FFF7C7FC00251BE09A090132C3EBBD
:400700008213DBB2741BA342A8BF2346DCB200F0E1F8224609AB5919BDF8E60000F0A4F800F0D8F82544EDB2BDF8E6301C44ADF8E640B54205D2BDF8E63047F6FE7293426E
:40074000DBD902220DF1E601002000F08DF800F0C1F8BDF9E630002B0ADA4FB90F480023C37000F0FDF90E4B18700127064B1F700023044A1370024A137000F0B1FF65E671
:400780007A81FF1F7881FF1F7481FF1F7981FF1FCC80FF1FEC440000AC81FF1FA481FF1FA881FF1F08B5052000F0CCF808BD00BF08B5062000F096F808BD00BF00B583B088
:4007C00003218DF80410030A8DF805308DF8060002AA002302F8053D012301A800F028F99DF8030003B05DF804FB00BF30B583B004460D46FFF7DCFF012002F0F9FA0223F2
:400800008DF80430230A8DF805308DF806408DF80750002302AA02F8053D04210DEB010000F006F903B030BD10B582B003248DF80440030A8DF805308DF8060013460A46D7
:40084000214601A800F0F4F802B010BD38B505460C460220FFF7B2FF2870022221460020FFF7E2FF38BD00BF2DE9F04383B000AF80468946144602F0CBFC0546FFF798FF41
:40088000012002F0B5FAE61C04F10A0323F00703ADEB030D02238DF800304FEA18238DF801308DF80280224649460DF1030003F0E3F9002307F1080202F8013DF1B268462D
:4008C00000F0B6F8284602F0A7FC0C37BD46BDE8F08300BF08B5FFF765FF10F0010FFAD108BD00BF10B50446002001F061F8204601F09AFB01F070FB10F0080FFAD001F031
:40090000FDFB0446012001F053F8204610BD00BF10B50446002001F057F8204601F0ECFD002001F0E9FD01F0BFFD10F0010FFAD001F04CFE01F04AFE0446012001F044F8ED
:40094000204610BD10B50446002001F031F8204601F06AFB002001F067FB01F03DFB10F0010FFAD001F0CAFB01F0C8FB0446012001F01EF8204610BD2DE9F04383B00646F2
:400980000C4617469846002001F01EF864B2002511E02146082CA8BF0821C9B206EBC50001F090FE01F080FD10F0010FFAD0083C64B201356DB2002CEBDC01F093FE01F01F
:4009C00037FE0026009601964FFA88F820E0C146B8F1080FA8BF4FF008095FFA89F1684601F070FE01F060FD10F0010FFAD0002406E004EBC60501F0E9FD78550134E4B2ED
:400A00004C45F6DBA8F108084FFA88F8013676B2B8F1000FDBDC012000F0D6FF01F062FE01F006FE01F024FE03B0BDE8F08300BF2DE9F04383B006460C46174698460020D6
:400A400000F0B6FF64B2002511E02146082CA8BF0821C9B206EBC50001F0CCFB01F0BCFA10F0010FFAD0083C64B201356DB2002CEBDC01F0CFFB01F073FB00260096019601
:400A80004FFA88F820E0C146B8F1080FA8BF4FF008095FFA89F1684601F0ACFB01F09CFA10F0010FFAD0002406E004EBC60501F025FB78550134E4B24C45F6DBA8F10808FD
:400AC0004FFA88F8013676B2B8F1000FDBDC012000F06EFF01F09EFB01F042FB01F060FB03B0BDE8F08300BF00F00303032B0ED8DFE803F00205080B17230B7007E027238F
:400B00000B7004E037230B7001E047230B70C0F38103032B0ED8DFE803F00205080B00234B7007E010234B7004E020234B7001E030234B70C0F300130BB11BB904E00023BB
:400B40008B7001E001238B70C0F3401008B118B970470023CB7070478023CB70704700BF0378DBB2372B05D0472B05D0272B05D0002304E0022302E0032300E0012342782E
:400B8000D2B2202A06D0302A07D0102A07D143F0040304E043F0080301E043F00C038278D2B2012A01D143F01003C278D2B2802A01D143F020031846704700BF08B5AF201E
:400BC000FFF7A6FE08BD00BF08B540F08000FFF79FFE08BD70B582B006460D4602F018FB04468DF804608DF80550002302AA02F8053D022101A8FFF7BFFE204602F00CFB21
:400C000002B070BD08B580212420FFF7E3FF02212220FFF7DFFF48212420FFF7DBFF00212E20FFF7D7FF08BD10B5044601782020FFF7D0FF61782320FFF7CCFFE1782E2094
:400C4000FFF7C8FF10BD00BF00B583B060F03F0302A800F8013D13460A460121FFF78CFE03B05DF804FB00BF0122014B1A7070477881FF1F0122014B5A7070477881FF1FF2
:400C800008B50122024B9A7000F0C4FC08BD00BF7881FF1F08B500F0D7FC08BD10B5002000F02CFD00F076FD07220D4B1A800D480024C470FFF754FF0B4B187000F0FAFD36
:400CC00002F03EF9204600F00FFE204600F012FE0122064B1A70064801F036F910BD00BFCC80FF1FA481FF1FA881FF1F7481FF1F6846000008B50022044B1A700122044B2B
:400D00001A70044801F020F908BD00BFA881FF1F7481FF1FA046000030B587B02C4B00221A715A712B4801F00FF92B4801F00CF92A4801F009F92A4B53F8040B05901868E6
:400D40000490284B0293284B0393284B0093284B0193284D2B7803F0030306AA1344264C13F8042C2549204602F09AFF204601F0EBF82B78C3F3810306AA134413F8082C40
:400D80001F49204602F08CFF204601F0DDF82B78C3F3001306AA02EB830353F8102C1949204602F07DFF204601F0CEF82B78C3F3401306AA02EB830353F8182C1249204634
:400DC00002F06EFF204601F0BFF807B030BD00BF7881FF1FD84600005447000064470000604600009C480000AC480000BC480000C4480000A881FF1FEC81FF1FD048000030
:400E0000F04800000C4900002449000038B501F06DF80446814B1B79002B6FD1A0F14203312B00F23581DFE813F03200330133013301570033013301330133013301630030
:400E40003301330133015D0033013301400033013301330133013301330133013301330133013301330133013301320033013301330157003301330133013301330163006D
:400E80003301330133015D003301330140000022624B1A7162488023C370FFF761FE614B18700122604B1A70F2E000235B4A13715B4DEB7002215D4B187801F013FF2846E9
:400EC000FFF74EFE574B187000F0F4FC02F038F80122554B1A70DBE0554801F035F84F4B1C71D5E0534801F02FF84C4B1C71CFE0514801F029F8494B1C71C9E0463B2A2B14
:400F000000F2C680DFE803F016C4C4C4C4C4A2C4C4C44EC4C4C4C4C4C4C4C4C4C4C4C4C4C4C4C4C4C4C4C4C416C4C4C4C4C4A2C4C4C44E00A0F131030E2B2FD8DFE803F0A0
:400F4000081018202E2E2E2E2E2E2E2E2E2E28003A4B1A78324B5A700122304B5A7197E0364B5A782E4B5A7001222C4B5A718FE0324B9A782A4B5A700122284B5A7187E0EF
:400F80002E4BDA78264B5A700122244B5A717FE00C2000F0CDFFFFF7BFFE79E000221F4B5A7175E0A0F131030E2B4BD8DFE803F008121C264A4A4A4A4A4A4A4A4A4A300084
:400FC0001F4B1B7843F00703154A13700122134B5A715DE01A4B5B7843F00703104A137001220E4B5A7153E0154B9B7843F007030B4A13700122094B5A7149E0104BDB78DF
:4010000043F00703064A13700122044B5A713FE00C2000F08DFFFFF77FFE39E07881FF1FA481FF1FA881FF1F7481FF1FB482FF1F34490000004A0000CC4A0000584600008D
:401040005C46000000222D4B5A7121E031280DD03F2814D0302818D10122284B5A71284800F072FF0022274B9A7011E00125234B5D71254800F068FF224B9D7008E00C2031
:4010800000F056FFFFF748FE02E000221B4B5A711C4BDB7813F0FF0F15D1562C01D0762C11D1164B1C71174B1C782409013CE4B200F0CAFB154B33F8140000F085FB012029
:4010C00000F01CFB38BD0D4B1B79562B01D0762B12D1552C03D0752C01D03F2C0CD100F059FB07220A4B1A80002000F007FB0C2000F01EFFFFF710FE38BD00BF7881FF1FAE
:40110000484B0000A481FF1F5C4B0000F0440000CC80FF1F38B541F6FF734FF480420121022001F0C7FE054601F00EFE044606230246402101F022FE074A92B244F610614A
:40114000204601F02FFE2146284601F0BFFD0121284601F073FD38BDAC81FF1FFEE700BFF0B40022174611E050F82760F3B226F0FF0608E001EB420511F812406D78A5559C
:401180000132013BDBB2002BF4D10137212FEBD9F0BC7047084B1B78DBB203F00701074A11701B09013213709022054B1A704422A3F2E2231A707047CF0100496E5800408E
:4011C000585B004008B50A46002102F060FD08BD08B502F051FD08BD38B50024394B1C80502202331A700B2202331A80182336490B7002310A80354A13701925023215809F
:401200000232137045F6BF51023211800232137043F697222E4B1A8002331D7004222D492D48FFF7D5FF02222C4B1A7008224FF040231A70032103F500731970284B1B78F5
:40124000DBB228490B70284B1A8041F25122023B1A800CE0254B1B7803F0010343EA440404F003044FF4F07001F0CAFF013D0DB1032CEFD115B90320FFF770FF1C4B4FF4CD
:4012800080721A8007221A7000221A490A704820023108701A700222033B1A7004220A331A70154A137843F03F031370013A137843F001031370013A137843F08003137019
:4012C00038BD00BF80400040864000408A4000409440004034090048004100400043004008010049A146004022420040254200400440004006400040A2430040012814D885
:4013000010B44000C0B2094B53F820101A18147C0A7822430A700130C0B253F820201844017C13780B43137010BC7047704B0000012816D810B44000C0B20A4B53F8201047
:401340001A18147C0A7822EA04020A700130C0B253F820201844017C137823EA0103137010BC7047704B0000012808D8044B03EB800252691844017F13780B4313707047C7
:40138000704B0000012809D8054B03EB800252691844017F137823EA01031370704700BF704B000038B572B63C4A137843F00403137000240BE03A4863001A195100014421
:4013C0000A46898C106AFFF7FDFE0134E4B20A2CF1D900240CE03248A20011194B000344B3F86C20996E586EFFF7F2FE0134E4B2032CF0D92B494FF09040FFF7B1FE0A2467
:40140000294B1C70042229492948FFF7E1FE294A137843F0020313701032137843F002031370254D2B7843F040032B70A2F58632513A137843F01003137008221F4920483F
:40144000FFF7C6FE22461F491F48FFF7C1FE22461E491F48FFF7BCFE22461E491E48FFF7B7FE08221D491E48FFF7B2FE1D4A137843F0080313701C4C61232370FFF7ACFE92
:40148000812323700122194B1A70FFF783FE0E2229461748FFF79CFE38BD00BFE8460040704B00008800004883580040380900485076004003500140A04300400009004880
:4014C0000251004008090048C0510040140900481051004020090048205100402C09004832510040224300400048004004000840B043004008B502F093FB03680C2B00D1EB
:40150000FEE7FEE708B5094B1A681044084BC31A802B02DC054B186005E002F081FB0C2303604FF0FF32104608BD00BFD080FF1F0083FF1F08B5104E104D16E029686B6869
:40154000AC68002204E051F8040B43F8040B0432A242F8D1E868002203E0002143F8041B04328242F9D11035013E002EE6D102F05DFBFEF7AFFEFEE701000000584C000059
:4015800008B5114A114B1A60114A136843F40073136000230AE0032B03D80E4A52F8231000E00D490D4A42F8231001332F2BF2D90B4B1A780B4B1A70084A0B4B1A60FFF72C
:4015C000F1FE01F021FB08BD0004FA050CED00E014ED00E000000000F51400000080FF1FBC760040C080FF1F08ED00E0084A137843F0040313701032137843F004031370FD
:4016000002F66532137843F001031370704700BFA3430040084A137803F0FE031370A2F67532137803F0FB0313701032137803F0FB031370704700BF184F0040014B187076
:40164000704700BF1B4F0040014B1878704700BF1B4F0040014B1878704700BF184F0040014B1880704700BF1C4F0040014B1880704700BF1E4F004008B5164A137803F0AE
:40168000010313700232137803F0FC031370124B1A7802F0CF021A701A7842F030021A701A7802F0F0021A701A7842F00F021A700A4A137843F00103137040F2E730FFF77C
:4016C000CFFF40F2E730FFF7D1FF0820FFF7B6FF08BD00BF184F0040234F0040194F004008B5054B1B7823B9FFF7C6FF0122024B1A70FFF77BFF08BD7E81FF1F044A137859
:4017000003F0FE0300F0010018431070704700BF30510040014B1B685866704708ED00E04001C0B2014B1870704700BF09E400E04FF40072014B1A60704700BF00E100E01D
:401740004FF40072014B1A60704700BF80E100E010B50446FFF7F4FF2046FFF7DBFF0720FFF7DEFFFFF7E4FF10BD00BF084A137843F0080313701032137843F0080313707E
:4017800002F67132137843F001031370704700BFA3430040084A137803F0FE031370A2F68132137803F0F70313701032137803F0F7031370704700BF244F0040014B1870D9
:4017C000704700BF274F0040014B1880704700BF284F0040014B1880704700BF2A4F004008B5164A137803F0010313700232137803F0FC031370124B1A7802F0CF021A7007
:401800001A7842F030021A701A7802F0F0021A701A7842F00F021A700A4A137843F00103137040F2E730FFF7CFFF40F2E730FFF7D1FF0820FFF7C2FF08BD00BF244F0040FE
:401840002F4F0040254F004008B5054B1B7823B9FFF7C6FF0122024B1A70FFF787FF08BD7F81FF1F014B1B689865704708ED00E04001C0B2014B1870704700BF06E400E047
:401880004022014B1A60704700E100E04022014B1A60704780E100E010B50446FFF7F6FF2046FFF7DFFF0720FFF7E2FFFFF7E8FF10BD00BF4022014B1A60704700E200E02C
:4018C0004022014B1A60704780E200E0024A137843F080031370704779650040014B1880704700BF10680040014B1880704700BF90680040014B1880704700BF50680040EC
:40190000014B1870704700BF89650040014B1878704700BF69650040014B188880B27047B068004008B501E0FFF7F6FFFFF7EEFF10F0100FF8D108BD08B5144A137803F0F0
:40194000C00343F009031370E13A137843F0010313700132137843F0010313700020FFF7BDFF0020FFF7C0FF0020FFF7C3FF0020FFF7C6FF01F04CFC054A137843F0100357
:40198000137001F049FCFFF7CDFF08BD796500409965004008B5054B1B7823B9FFF7CCFF0122024B1A70FFF791FF08BD8081FF1F044A137803F0EF03000100F010001843D0
:4019C0001070704720510040044A137803F07F03C001C0B218431070704700BF10510040014B1B681866704708ED00E04001C0B2014B1870704700BF08E400E04FF48072B5
:401A0000014B1A60704700BF00E100E04FF48072014B1A60704700BF80E100E010B50446FFF7F4FF2046FFF7DBFF0720FFF7DEFFFFF7E4FF10BD00BF10B59DF80840012C9B
:401A400051D1013809282ED8DFE800F0052D2D052D2D0F192D230F2B03D92548007840B222E02448007840B21EE00F2B03D92248007840B218E02148007840B214E00F2B41
:401A800003D91F48007840B20EE01E48007840B20AE00F2B03D91C48007840B204E01B48007840B200E0002001EB401101FB02F1C90B8AB20D2B0BD8C3F10E0289B2114194
:401AC0008AB2611E124800EB810101338B7005E0631E0F4901EB83030F219970013C0C4B23F8242010BD002001F06AF910BD00BF180100491C010049190100491D0100497A
:401B00001A0100491E0100491B0100491F0100498481FF1FF8B5074601F07AFB06460D4D2B7843F003032B700B4C237843F0030323700A4B1F70032001F05AF92B7803F0CC
:401B4000FC032B70237803F0FC032370304601F063FBF8BDF8460040F9460040925800400022334B1A71012860D12DE9F0413222304B1A70052602331E70072201331A7010
:401B8000002401331C7001331C7016232A4A137002321470013214700132147001250A321570142702F5276217700132167001321370224B1C70442203331A7048220133D6
:401BC0001A7001331D704FF00208023383F80080222201331A70282201331A70EB2201331A705220FFF796FF5822154B1A7001331C7005331E70013383F8008001331C7076
:401C000001331C70204600F091FECD220D4B1A602946042000F0AEFE2946384600F05EFF09491D2001F0EEF8BDE8F081704700BF8481FF1F004E0040064E0040875800407F
:401C400094580040B882FF1F351E0000F0B583B0284D01272F70284E00247471102000F077FE102000F028FF07211D2001F0DEF80422224B1A7001331C7007331C70204AE5
:401C8000137843F0180313701E4B1C7003F2F5231C7001331C700A23A2F2872213700132147002321470122105321170132101321170043214701421A2F68C2211700097FE
:401CC00047F6060248F66B510220FFF7B5FE2B78013B06EB83039A780B4B1A702B78013B36F82320094B1A802878FFF739FF03B0F0BD00BFD480FF1F8481FF1F96580040A4
:401D0000075B0040935800400E4E00400C4E004070B501F07DFA06462A4B1B782A4B1A7842F001021A701A7842F010021A7010331A7842F001021A701A7842F010021A70A5
:401D4000224D2B7843F002032B70214C237843F0020323701F4A137843F003031370032001F046F82B7803F0FD032B70237803F0FD032370184A137843F0060313707A220F
:401D8000164B1A70164A137843F0010313701032137843F0010313700F3A137843F0010313701032137843F0010313704FF000530C4A1360A2F5C0721360304601F02CFAD3
:401DC00070BD00BFD480FF1FAA430040F8460040F9460040915800407758004082580040A143004080E200E008B5084B9B794BB9064BDB7913F0FF0F01D1FFF727FF0122B4
:401E0000024B9A71FFF784FF08BD00BF8481FF1F064B9B68C01A4FF47A7303FB00F0044B1B6890FBF3F000B2704700BF8481FF1FB882FF1F704700BF10B5002404E0204652
:401E4000FFF776FA0134E4B2012CF8D9FF22014B1A7010BDD580FF1F10B50446FFF7ECFF2046FFF74BFA014B1C7010BDD580FF1F7222084B1A702022013B1A700622A3F51A
:401E8000AF731A70472210331A70002203F5A6731A7070478B65004010B501F0B9F904460A4A137843F020031370013A137843F010031370023A137843F01003137000F023
:401EC00079FE204601F0A8F910BD00BF9B65004008B5054B1B7823B9FFF7CAFF0122024B1A70FFF7D9FF08BD9081FF1F084B1B78DBB213F0200F06D0064A1078C0B213F0E8
:401F00001E0F02D17047002070470020704700BF6A6500404B650040044B1B7813F0200F01D0012070470020704700BF6A650040034B1B7813F0040FFAD1024B18707047CE
:401F4000686500404B64004038B5074B1B782BB938BDFFF7EDFF0134A4B201E005460024285D0028F5D138BD9081FF1F0222014B1A60704700E100E00122014B1A60704764
:401F800000E100E008B501F043F90C4A137843F020031370033A137843F010031370013A137843F01003137001F036F900F010FEFFF7DCFFFFF7E0FF08BD00BF9F64004011
:401FC0000222014B1A60704780E100E00122014B1A60704780E100E010B5FFF7F1FF064B1C78064A137803F009031C4300231370FFF7BCFF204610BD6C640040BC82FF1F5F
:4020000010B5FFF7E3FF064B1B78064A147804F040041C4300231370FFF7AEFF204610BD6B640040D882FF1F10B504462B4B1A7802F0FF0312B1013BDBB200E00723284A96
:402040001278D2B29342F1D0FFF7BAFF254B1978254A137803F009030B4313701F4B1A78D2B21F4B1B78DBB29A4207D11E4B1B7813F0040F02D01D4B1C702CE0184A1378B3
:402080000133DBB213701378DBB2072B02D90022134B1A70124B1A78D2B2104B1B78DBB29A420ED10D4A13780133DBB213701378DBB2072B02D90022084B1A7001220C4B40
:4020C0001A70074B1B78DBB20A4AD4540A4A137843F004031370FFF749FF10BDD582FF1FD682FF1F6C640040BC82FF1F4F640040C882FF1FC082FF1F8C64004010B5FFF7C4
:4021000065FF134B1A78D2B2124B1B78DBB29A4214D0114B1B7813F0FF0F0CD10C4A13780133DBB213701378DBB2072B06D90022074B1A7002E00022074B1A70044B1B789F
:40214000DBB2064AD45CE4B2FFF716FF204610BDBD82FF1FD782FF1FD482FF1FCC82FF1F08B501E0094B1B78094B1B7813F0200FF8D1FFF72BFF0023064A1370064A13707A
:40218000064A1370FFF7F8FE08BD00BF5F6400406B640040D482FF1FBD82FF1FD782FF1F08B501F035F80E4B1A7842F001021A701A7802F0FE021A7001F02EF8FFF700FFE3
:4021C0000023084A1370084A1370084A1370084A137803F0FB031370FFF7C8FE08BD00BF9F640040C882FF1FD582FF1FD682FF1F8C64004070B506460C46002506E0705D4B
:40220000FFF712FF0135EDB2013CE4B2002CF6D170BD00BF08B501E00A4B1B780A4B1B7813F0200FF8D100F0F3FF084B1A7842F001021A701A7802F0FE021A7000F0ECFF38
:4022400008BD00BF5F6400406B6400409F64004010B50F22174B1A70174C022323600721012000F0E3FD1549012000F0CBFD012323600721002000F0D9FD1149002000F029
:40228000C1FDFFF7C7FF00240E4B1C700E4B1C700E4B1C700E4B1C700E4B1C700E4B1C70FFF79AFEFFF7ACFE0C4B1C702022013B1A7010BD8F64004080E100E0FD220000A9
:4022C0009D230000D482FF1FBD82FF1FD782FF1FC882FF1FD582FF1FD682FF1F8C64004008B5054B1B7823B9FFF7B2FF0122024B1A70FFF747FE08BD9281FF1F28E01F4B93
:4023000019781F4A137803F009030B431370137813F0040F24D01B4B1B7813F0FF0F0CD1194A13780133DBB213701378DBB2072B06D90022144B1A7002E00022114B1A707C
:40234000114B1B78DBB2114AD35CDBB2104A13700D4B1A78D2B20F4B1B78DBB29A42CED1094B1A78D2B20B4B1B78DBB29A4204D1094A137803F0FB03137070476C640040E0
:40238000BC82FF1FC882FF1FD582FF1FC082FF1F4F640040D682FF1F8C640040204B1A7820490B7803F0400313430B7032E01E4B1A78D2B21D490B780133DBB20B700B78C2
:4023C000DBB2072B02D90021184B1970174B1978C9B2174B1B78DBB299420ED114490B780133DBB20B700B78DBB2072B02D900210F4B197001210F4B19700C4B1B78DBB2D3
:402400000D49CA54064B1A7806490B7803F0400313430B70034B1B7813F0200FC7D170476B640040D882FF1F5F640040D782FF1FBD82FF1FD482FF1FCC82FF1F0822014B56
:402440001A60704700E100E00422014B1A60704700E100E008B500F0DBFE0C4A137843F0200313700632137843F010031370053A137843F01003137000F0CEFE00F0B6FB4A
:40248000FFF7DCFFFFF7E0FF08BD00BF986400400822014B1A60704780E100E00422014B1A60704780E100E010B5FFF7F1FF064B1C78064A137803F009031C43002313707B
:4024C000FFF7BCFF204610BD6E640040F882FF1F10B5FFF7E3FF064B1B78064A147804F040041C4300231370FFF7AEFF204610BD69640040DF82FF1F10B504462B4B1A783B
:4025000002F0FF0312B1013BDBB200E00723284A1278D2B29342F1D0FFF7BAFF254B1978254A137803F009030B4313701F4B1A78D2B21F4B1B78DBB29A4207D11E4B1B78C7
:4025400013F0040F02D01D4B1C702CE0184A13780133DBB213701378DBB2072B02D90022134B1A70124B1A78D2B2104B1B78DBB29A420ED10D4A13780133DBB213701378B9
:40258000DBB2072B02D90022084B1A7001220C4B1A70074B1B78DBB20A4AD4540A4A137843F004031370FFF749FF10BDF982FF1FE082FF1F6E640040F882FF1F4965004038
:4025C000EC82FF1FE482FF1F8E64004010B5FFF765FF134B1A78D2B2124B1B78DBB29A4214D0114B1B7813F0FF0F0CD10C4A13780133DBB213701378DBB2072B06D900227C
:40260000074B1A7002E00022074B1A70044B1B78DBB2064AD45CE4B2FFF716FF204610BDDE82FF1FDC82FF1FDD82FF1FF082FF1F08B501E0094B1B78094B1B7813F0200F76
:40264000F8D1FFF72BFF0023064A1370064A1370064A1370FFF7F8FE08BD00BF5965004069640040DD82FF1FDE82FF1FDC82FF1F08B500F0CDFD0E4B1A7842F001021A70C2
:402680001A7802F0FE021A7000F0C6FDFFF700FF0023084A1370084A1370084A1370084A137803F0FB031370FFF7C8FE08BD00BF99650040EC82FF1FF982FF1FE082FF1F4E
:4026C0008E64004070B506460C46002506E0705DFFF712FF0135EDB2013CE4B2002CF6D170BD00BF08B501E00A4B1B780A4B1B7813F0200FF8D100F08BFD084B1A7842F087
:4027000001021A701A7802F0FE021A7000F084FD08BD00BF59650040696400409965004010B50F22174B1A70174C082323600721032000F07BFB1549032000F063FB042326
:4027400023600721022000F071FB1149022000F059FBFFF7C7FF00240E4B1C700E4B1C700E4B1C700E4B1C700E4B1C700E4B1C70FFF79AFEFFF7ACFE0C4B1C702022053B9F
:402780001A7010BD8864004080E100E0CD2700006D280000DD82FF1FDE82FF1FDC82FF1FEC82FF1FF982FF1FE082FF1F8E64004008B5054B1B7823B9FFF7B2FF0122024BEB
:4027C0001A70FFF747FE08BD9381FF1F28E01F4B19781F4A137803F009030B431370137813F0040F24D01B4B1B7813F0FF0F0CD1194A13780133DBB213701378DBB2072B5E
:4028000006D90022144B1A7002E00022114B1A70114B1B78DBB2114AD35CDBB2104A13700D4B1A78D2B20F4B1B78DBB29A42CED1094B1A78D2B20B4B1B78DBB29A4204D160
:40284000094A137803F0FB03137070476E640040F882FF1FEC82FF1FF982FF1FE482FF1F49650040E082FF1F8E640040204B1A7820490B7803F0400313430B7032E01E4BF1
:402880001A78D2B21D490B780133DBB20B700B78DBB2072B02D90021184B1970174B1978C9B2174B1B78DBB299420ED114490B780133DBB20B700B78DBB2072B02D90021AF
:4028C0000F4B197001210F4B19700C4B1B78DBB20D49CA54064B1A7806490B7803F0400313430B70034B1B7813F0200FC7D1704769640040DF82FF1F59650040DC82FF1FE1
:40290000DE82FF1FDD82FF1FF082FF1F10B5002404E02046FEF736FD0134E4B2012CF8D9FF22014B1A7010BDD680FF1F10B50446FFF7ECFF2046FEF717FD014B1C7010BDAC
:40294000D680FF1F014B188880B2704780400040034B1A7800F0F80010431870704700BF82400040024B187800F00700704700BF8240004070B505460E46FFF7F3FF0446B1
:40298000FFF7E0FFA84256D02B4B1B7803F0010294B900B185B938B9284B1D80284A137803F0BF03137070BD254A137843F040031370224B1D8070BD22B3002321490B708D
:4029C00001240F310C7004310B700C390B7803F07F030B701A4B1B7813F0080F00D08DB9194B18800721013B1970164B1B7813F0010FFAD110490B7803F0FE030B7000213F
:402A0000104B19700C4B1B7813F0010F0DD00E4B1D800EB1032200E001220A4B1A70094B1B7813F0010FFAD170BD044B1D8002490B7813430B7070BDA2430040804000404D
:402A4000824000400140004002400040704700BF024B1B68C3F8B400704700BF08ED00E04001C0B2014B1870704700BF1DE400E04FF00052014B1A60704700BF00E100E0E5
:402A80004FF00052014B1A60704700BF80E100E008B5FFF7F5FF0448FFF7DAFF0720FFF7DFFFFFF7E5FF08BD4D2A0000014B188880B2704700410040034B1A7800F0F80017
:402AC00010431870704700BF02410040024B187800F00700704700BF0241004070B505460E46FFF7F3FF0446FFF7E0FFA84256D02B4B1B7803F0010294B900B185B938B92E
:402B0000284B1D80284A137803F0BF03137070BD254A137843F040031370224B1D8070BD22B3002321490B70012413310C7004390B7008390B7803F07F030B701A4B1B78D3
:402B400013F0080F00D08DB9194B18800721013B1970164B1B7813F0010FFAD110490B7803F0FE030B700021104B19700C4B1B7813F0010F0DD00E4B1D800EB1032200E086
:402B800001220A4B1A70094B1B7813F0010FFAD170BD044B1D8002490B7813430B7070BDA143004000410040024100400140004002400040054A137843F008031370103261
:402BC000137843F008031370704700BFA2430040054A137843F0040313701032137843F004031370704700BFA2430040054A137843F0020313701032137843F00203137015
:402C0000704700BFA24300400B4A7F2313708021517007E0DA0002F1804202F5F042013BDBB21370002BF5D1DB0003F1804303F5F04300221A707047D880FF1F172815D87F
:402C400031B103010A495A5C42F020025A5405E0030107495A5C02F0DF025A540001044A835C43F00103835400207047012070471070004017280BD80001064A835C03F003
:402C8000F103490001F00E011943815400207047012070471070004041F6FF73994201D14FF4005141F6FF739A4201D14FF40052172808D8C00000F1804000F5EC408180AF
:402CC000C280002070470120704700BF172805D8034B03EB00104172002070470120704710700040172809D8054B03EB0010037901F007011943017100207047012070473A
:402D00001070004017281BD810B4C00000F1804404F5EC44D201D2B201F07F01114321709DF804201201D2B203F00F03134363709DF8083003F00F03A3700020E07001E0DE
:402D40000120704710BC704710B500F061FA0A4B5B78182B0BD9084A1478013B5370E30003F1804303F5F0431B78137000E0FF2400F052FA204610BDD880FF1F10F0800F6A
:402D80000CD111F4704F0BD1C00000F1804000F5F04001808270C37000207047012070470120704710F0800F08D1C00000F1804000F5F0408180C2800020704701207047E3
:402DC00001BE704710B5044605E0084B186800F017FAA4F50044B4F5004FF6D8034B586800FB04F000F00CFA10BD00BFE080FF1F08B5034B1B7A00FB03F000F001FA08BDB7
:402E0000E080FF1F70B504460E46074B1D681F2802D90020FFF7D4FF04F01F04103455F8240045F8246070BD08ED00E038B504460D46072902D90020FFF7C2FF1F2C02D94E
:402E40000020FFF7BDFF04F01F0000F1604000F564406D01EDB2057038BD00BF014B1B689866704708ED00E04001C0B2014B1870704700BF0AE400E04FF48062014B1A60FE
:402E8000704700BF00E100E04FF48062014B1A60704700BF80E100E010B50446FFF7F4FF2046FFF7DBFF0720FFF7DEFFFFF7E4FF10BD00BFF0B583B016461F460B4C0A258D
:402EC00025700023019300932B460A4601462846FFF718FF3A4631462078FFF7DDFE02212078FFF7C7FE207803B0F0BDF080FF1F014B1B681865704708ED00E04001C0B289
:402F0000014B1870704700BF04E400E01022014B1A60704700E100E01022014B1A60704780E100E010B50446FFF7F6FF2046FFF7DFFF0720FFF7E2FFFFF7E8FF10BD00BF84
:402F40001022014B1A60704700E200E01022014B1A60704780E200E0014B1B685865704708ED00E04001C0B2014B1870704700BF05E400E02022014B1A60704700E100E091
:402F80002022014B1A60704780E100E010B50446FFF7F6FF2046FFF7DFFF0720FFF7E2FFFFF7E8FF10BD00BF084A137843F0010313701032137843F00103137002F64D32E1
:402FC000137843F001031370704700BFA3430040014B1870704700BF034F004010B50446094B1B7813F0010F02D00020FFF7E8FE054B1A7842F001021A70044A14801A7828
:4030000002F0FE021A7010BDA3430040064F0040014B1880704700BF044F004008B5184B1A7802F001021A7016490A7802F0FC020A701A7842F004021A70134A137843F0B4
:4030400001031370114B1A7802F0CF021A701A7842F030021A701A7802F0F0021A701A7842F00F021A7041F28830FFF7D1FF41F28830FFF7B3FF0820FFF7AAFF08BD00BF20
:40308000004F0040024F0040014F00400B4F004008B5054B1B7823B9FFF7C0FF0122024B1A70FFF781FF08BD9481FF1F014B1B68D865704708ED00E04001C0B2014B18700E
:4030C000704700BF07E400E08022014B1A60704700E100E08022014B1A60704780E100E010B50446FFF7F6FF2046FFF7DFFF0720FFF7E2FFFFF7E8FF10BD00BF084A1378D7
:4031000043F0020313701032137843F00203137002F65932137843F001031370704700BFA3430040014B1870704700BF0F4F004010B50446094B1B7813F0020F02D0002004
:40314000FFF73EFE054B1A7842F002021A70044A14801A7802F0FD021A7010BDA3430040124F0040014B1880704700BF104F004008B5174B1A7802F001021A7015490A78EF
:4031800002F0FC020A701A7842F004021A70124A137843F001031370104B1A7802F0CF021A701A7842F030021A701A7802F0F0021A701A7842F00F021A7042F21070FFF7ED
:4031C000D1FF0020FFF7B4FF0820FFF7ABFF08BD0C4F00400E4F00400D4F0040174F004008B5054B1B7823B9FFF7C2FF0122024B1A70FFF783FF08BD9581FF1F0000000091
:403200000230800803D000BF01380046FCD17047EFF3108072B6704780F31088704700BF81F0004102E000BF83F0004330B54FEA41044FEA430594EA050F08BF90EA020F9C
:403240001FBF54EA000C55EA020C7FEA645C7FEA655C00F0E2804FEA5454D4EB5555B8BF6D420CDD2C4480EA020281EA030382EA000083EA010180EA020281EA0303362D6F
:4032800088BF30BD11F0004F4FEA01314FF4801C4CEA113102D0404261EB410113F0004F4FEA03334CEA133302D0524263EB430394EA050F00F0A780A4F10104D5F1200E78
:4032C0000DDB02FA0EFC22FA05F2801841F1000103FA0EF2801843FA05F359410EE0A5F120050EF1200E012A03FA0EFC28BF4CF0020C43FA05F3C01851EBE37101F0004592
:4033000007D54FF0000EDCF1000C7EEB00006EEB0101B1F5801F1BD3B1F5001F0CD349085FEA30004FEA3C0C04F101044FEA445212F5800F80F09A80BCF1004F08BF5FEAB0
:40334000500C50F1000041EB045141EA050130BD5FEA4C0C404141EB010111F4801FA4F10104E9D191F0000F04BF01460020B1FA81F308BF2033A3F10B03B3F120020CDA88
:403380000C3208DD02F1140CC2F10C0201FA0CF021FA02F10CE002F11402D8BFC2F1200C01FA02F120FA0CFCDCBF41EA0C019040E41AA2BF01EB0451294330BD6FEA040499
:4033C0001F3C1CDA0C340EDC04F11404C4F1200220FA04F001FA02F340EA030021FA04F345EA030130BDC4F10C04C4F1200220FA02F001FA04F340EA0300294630BD21FAD3
:4034000004F0294630BD94F0000F83F4801306BF81F480110134013D4EE77FEA645C18BF7FEA655C29D094EA050F08BF90EA020F05D054EA000C04BF1946104630BD91EA26
:40344000030F1EBF0021002030BD5FEA545C05D14000494128BF41F0004130BD14F580043CBF01F5801130BD01F0004545F0FE4141F470014FF0000030BD7FEA645C1ABFD6
:40348000194610467FEA655C1CBF0B46024650EA013406BF52EA033591EA030F41F4002130BD00BF90F0000F04BF0021704730B54FF4806404F132044FF000054FF000019D
:4034C00050E700BF90F0000F04BF0021704730B54FF4806404F1320410F0004548BF40424FF000013EE700BF42004FEAE2014FEA31014FEA02701FBF12F07F4393F07F4F1C
:4035000081F06051704792F0000F14BF93F07F4F704730B54FF4607401F0004521F0004120E700BF50EA010208BF704730B54FF000050AE050EA010208BF704730B511F08D
:40354000004502D5404261EB41014FF4806404F132045FEA915C3FF4DCAE4FF003025FEADC0C18BF03325FEADC0C18BF033202EBDC02C2F1200300FA03FC20FA02F001FA7B
:4035800003FE40EA0E0021FA02F11444C1E600BF70B54FF0FF0C4CF4E06C1CEA11541DBF1CEA135594EA0C0F95EA0C0F00F0DEF82C4481EA030621EA4C5123EA4C5350EAEB
:4035C000013518BF52EA033541F4801143F4801338D0A0FB02CE4FF00005E1FB02E506F00042E0FB03E54FF00006E1FB03569CF0000F18BF4EF0010EA4F1FF04B6F5007F4A
:4036000064F5407404D25FEA4E0E6D4146EB060642EAC62141EA55514FEAC52040EA5E504FEACE2EB4F1FD0C88BFBCF5E06F1ED8BEF1004F08BF5FEA500E50F1000041EB44
:40364000045170BD06F0004646EA010140EA020081EA0301B4EB5C04C2BFD4EB0C0541EA045170BD41F480114FF0000E013C00F3AB8014F1360FDEBF002001F0004170BDEE
:40368000C4F10004203C35DA0C341BDC04F11404C4F1200500FA05F320FA04F001FA05F240EA020001F0004221F0004110EBD37021FA04F642EB06015EEA430E08BF20EA34
:4036C000D37070BDC4F10C04C4F1200500FA04F320FA05F001FA04F240EA020001F0004110EBD37041F100015EEA430E08BF20EAD37070BDC4F1200500FA05F24EEA020E0E
:4037000020FA04F301FA05F243EA020321FA04F001F0004121FA04F220EA020000EBD3705EEA430E08BF20EAD37070BD94F0000F0FD101F00046400041EB010111F4801F32
:4037400008BF013CF7D041EA060195F0000F18BF704703F00046520043EB030313F4801F08BF013DF7D043EA0603704794EA0C0F0CEA135518BF95EA0C0F0CD050EA410647
:4037800018BF52EA4306D1D181EA030101F000414FF0000070BD50EA410606BF1046194652EA430619D094EA0C0F02D150EA013613D195EA0C0F05D152EA03361CBF1046BE
:4037C00019460AD181EA030101F0004141F0FE4141F470014FF0000070BD41F0FE4141F4780170BD70B54FF0FF0C4CF4E06C1CEA11541DBF1CEA135594EA0C0F95EA0C0F3E
:4038000000F0A7F8A4EB050481EA030E52EA03354FEA013100F088804FEA03334FF0805545EA131343EA12634FEA022245EA111545EA10654FEA00260EF000419D4208BFFA
:40384000964244F1FD0404F5407402D25B084FEA3202B61A65EB03055B084FEA32024FF480104FF4002CB6EB020E75EB030E22BFB61A754640EA0C005B084FEA3202B6EB7A
:40388000020E75EB030E22BFB61A754640EA5C005B084FEA3202B6EB020E75EB030E22BFB61A754640EA9C005B084FEA3202B6EB020E75EB030E22BFB61A754640EADC000D
:4038C00055EA060E18D04FEA051545EA16754FEA06164FEAC30343EA52734FEAC2025FEA1C1CC0D111F4801F0BD141EA00014FF000004FF0004CB6E711F4801F04BF01436D
:403900000020B4F1FD0C88BFBCF5E06F3FF6AFAEB5EB030C04BFB6EB020C5FEA500C50F1000041EB045170BD0EF0004E4EEA113114EB5C04C2BFD4EB0C0541EA045170BD08
:4039400041F480114FF0000E013C90E645EA060E8DE60CEA135594EA0C0F08BF95EA0C0F3FF43BAF94EA0C0F0AD150EA01347FF434AF95EA0C0F7FF425AF104619462CE774
:4039800095EA0C0F06D152EA03353FF4FDAE1046194622E750EA410618BF52EA43067FF4C5AE50EA41047FF40DAF52EA43057FF4EBAE12E74FEA410212F5001215D211D52A
:4039C0006FF47873B3EB625212D94FEAC12343F0004343EA505311F0004F23FA02F018BF404270474FF00000704750EA013005D111F0004008BF6FF0004070474FF0000096
:403A0000704700BF80F0004002E000BF81F0004142001FBF5FEA410392EA030F7FEA226C7FEA236C6AD04FEA1262D2EB1363C1BFD218414048404140B8BF5B42192B88BF36
:403A4000704710F0004F40F4000020F07F4018BF404211F0004F41F4000121F07F4118BF494292EA030F3FD0A2F1010241FA03FC10EB0C00C3F1200301FA03F100F00043BE
:403A800002D5494260EB4000B0F5000F13D3B0F1807F06D340084FEA310102F10102FE2A51D2B1F1004F40EBC25008BF20F0010040EA03007047490040EB000010F4000FA1
:403AC000A2F10102EDD1B0FA80FCACF1080CB2EB0C0200FA0CF0AABF00EBC25052421843BCBFD0401843704792F0000F81F4000106BF80F400000132013BB5E74FEA410340
:403B00007FEA226C18BF7FEA236C21D092EA030F04D092F0000F08BF0846704790EA010F1CBF0020704712F07F4F04D1400028BF40F00040704712F100723CBF00F500007B
:403B4000704700F0004343F0FE4040F4000070477FEA226216BF08467FEA23630146420206BF5FEA412390EA010F40F4800070474FF0000304E000BF10F0004348BF40425D
:403B80005FEA000C08BF704743F0964301464FF000001CE050EA010208BF70474FF000030AE000BF50EA010208BF704711F0004302D5404261EB41015FEA010C02BF844637
:403BC0000146002043F0B64308BFA3F18053A3F50003BCFA8CF2083AA3EBC25310DB01FA02FC634400FA02FCC2F12002BCF1004F20FA02F243EB020008BF20F0010070472F
:403C000002F1200201FA02FCC2F1200250EA4C0021FA02F243EB020008BF20EADC707047014B1868704700BF5481FF1F0E4B70B51E460E4C0025E41AA410A54204D056F8B7
:403C4000253098470135F8E700F0F4FF084B094C1E46E41AA4100025A54204D056F8253098470135F8E770BD404C0000404C0000404C0000484C000010B5431E0A44914237
:403C800004D011F8014B03F8014FF8E710BD03460244934202D003F8011BFAE7704700000EB400B54FF402719CB0ADF814106FF00041049107914FF6FF711DAB029006904B
:403CC000084853F8042BADF81610006802A9019300F064F8029B00221A701CB05DF804EB03B070475481FF1F2DE9F0478E6882469E420C46914698463ED88A8912F4906F66
:403D00003AD02568096902236F1A656905EB450595FBF3F57B1C43449D4238BF1D4653050FD5294600F040FB064698B13A462169FFF7A2FFA38923F4906343F08003A381D9
:403D400013E02A4600F08EFB064670B92169504600F0DEFA0C23CAF80030A3894FF0FF3043F04003A381BDE8F08726613E44266046466561ED1BA560464528BF464649461E
:403D80003246206800F0A8FAA36800209B1BA36023681E442660BDE8F08700002DE9F04F9DB003938B8980461C060D4616460DD50B695BB9402100F0F7FA2860286118B98D
:403DC0000C23C8F80030CDE040236B610023099320238DF82930DFF89CB130238DF82A3037463C4614F8013B1BB9B7EB060910D003E0252BF9D02746F3E74B46324629462B
:403E00004046FFF771FF013000F0A780099B4B4409933B78002B00F0A08000234FF0FF3204930793059206938DF853301A930126052221784E4800F041FA671C049B38B135
:403E40004B4A3C46801A06FA00F018430490EFE7D90644BF20228DF853201A0744BF2B228DF8532022782A2A03D0079A00210A200BE0039A111D12680391002A10DA52423E
:403E800043F00200079204900BE027463B780134303B092B03D800FB02320121F5E701B107923B782E2B1ED17B782A2B0AD1039B02371A1D1B680392002BB8BF4FF0FF3317
:403EC000059310E0002319460593781C0A2407463A780130303A092A03D804FB01210123F5E703B1059103223978224800F0E6F940B14023CBEB000003FA00F0049B01376E
:403F000018430490397806221B487E1C8DF8281000F0D4F988B1194B33B9039B073323F007030833039314E003AB00932A46144B04A94046AFF3008007E003AB00932A4602
:403F40000F4B04A9404600F093F8B0F1FF3F824603D0099B5344099342E7AB895B0601D4099801E04FF0FF301DB0BDE8F08F00BFFE4B0000044C0000084C000000000000C8
:403F8000E93C00002DE9F04791461F460A698B6806469342B8BF1346C9F8003091F843200C46DDF8208012B10133C9F800302368990642BFD9F800300233C9F80030256891
:403FC00015F0060510D104F1190A07E00123524639463046C04701301AD00135E368D9F800209B1A9D42F1DB94F843302268003318BF012392060FD5E118302081F84300F4
:404000005A1C94F845102244023382F8431003E04FF0FF30BDE8F08704F1430239463046C0470130F4D02268D9F80050E36802F00602042A08BF5D1B2269A3680CBF25EA5C
:40404000E57500259342C4BF9B1AED184FF000091A344D4509D00123224639463046C0470130D5D009F10109F3E70020BDE8F0872DE9F04317460A7E85B06E2A9846064611
:404080000C460C9B01F1430E00F0AE8011D8632A22D009D8002A00F0BB80582A40F0CA8081F84520834955E0642A1ED0692A1CD0C0E0732A00F0B08009D86F2A2ED0702AC3
:4040C00040F0B8800A6842F020020A603EE0752A24D0782A3AD0ADE01A6801F14205111D1960136884F84230A8E021681A6811F0800F02D0111D196008E011F0400F02F1AC
:404100000401196002D0B2F9003000E01368002B3CDA2D225B4284F8432037E021681A6811F0800F02D0111D196007E011F0400F02F10401196001D0138800E01368227EB3
:404140005C496F2A14BF0A2208221BE078225A4984F845202268186812F0800F00F104051D6003D1550601D5038800E00368D00744BF42F0200222601BB9226822F0200290
:4041800022601022002084F8430001E049490A226568002DA56008DB206820F0040020602BB9002D7DD175460CE0002B79D07546B3FBF2F002FB1033CB5C05F8013D03461F
:4041C0000028F5D1082A0BD12368DA0708D5236962689A42DEBF302305F8013C05F1FF35C5EB0E0323612EE008681A6810F0800F496903D0101D1860136808E010F0400F44
:4042000002F104001860136801D0198000E0196000232361754616E01A68111D1960156800216268284600F049F808B1401B6060636804E004F1420584F842200123236104
:40424000002384F84330CDF800803B4603AA21463046FFF797FE013002D14FF0FF3026E023692A4639463046C0470130F5D023689B0710D5002504F1190907E001234A4602
:4042800039463046C0470130E7D00135E368039A9B1A9D42F2DBE068039B9842B8BF184605E00B7804F1420584F842308AE705B0BDE8F0830F4C0000204C000010B5C9B22F
:4042C00002449042034605D01C7801308C42F8D1184610BD002010BD884210B501EB020301D8421E0BE09842FBD28118D21AD34204D013F8014D01F8014DF8E710BD994234
:4043000004D011F8014B02F8014FF8E710BD000038B50546002944D051F8043C0C1F002BB8BFE41800F0D4F81E4A1368114613B96360146030E0A3420DD92268A0188342BC
:4043400001BF18685B681218226063600C6023E0A24203D813465A68002AF9D118681918A1420BD12168014458188242196013D110685268014419605A600DE002D90C231E
:404380002B6009E021686018824201BF106852680918216062605C602846BDE8384000F098B838BD9C81FF1F70B5CD1C25F0030508350C2D38BF0C25002D064601DBA942AE
:4043C00002D90C23336046E000F082F8234B1C681A462146A1B10B685B1B0ED40B2B03D90B60CC18CD501EE08C420BBF63684B681360636018BF0C4615E00C464968E9E701
:40440000174C23681BB9304600F052F820602946304600F04DF8431C18D0C41C24F00304A0420DD12560304600F053F804F10B00231D20F00700C31A0ED05A42E25070BD2B
:40444000211A304600F034F80130EBD10C233360304600F03EF8002070BD00BF9C81FF1F9881FF1FF8B5074615460E4621B91146BDE8F840FFF798BF1AB9FFF749FF284623
:40448000F8BD00F027F885420ED929463846FFF78BFF044650B131462A46FFF7EDFB31463846FFF735FF01E03046F8BD2046F8BD38B5064C0023054608462360FDF722F83B
:4044C000431C02D1236803B12B6038BDFC82FF1F7047704751F8040C0028BEBF091851F8043CC018043870470000000004081030E803640028001400E803E803E80310277F
:404500002A2A20454550524F4D20526561640D0A636F6E6669675F726567203D203078253032780D0A696E646578454550524F4D203D2025640D0A002A2A2A2A2A2A2A2AF1
:404540002A2A2A2A2A2A2A2A2A2A2A2A2A2A2A2A2A2A2A2A2A2A2A2A2A2A2A2A2A0D0A002A2A204C495333444820556E7A69700D0A465320202020203D20307825303278BD
:404580000D0A465352202020203D203078253032780D0A414E414C4F47203D203078253032780D0A535441545553203D203078253032780D0A0000002A2A204C495333447F
:4045C000482052656164202A2A0D0A004354524C5F5245473320202020203D203078253032780D0A000000004354524C5F5245473520202020203D203078253032780D0A8A
:40460000000000004649464F5F4354524C5F524547203D203078253032780D0A000000004354524C5F5245473120202020203D203078253032780D0A000000004354524CB7
:404640005F5245473420202020203D203078253032780D0A000000000010203010203040010A1932020408100D0A2A2A2A2A2A2A2A2A2A2A2A2A2A2A2044617461206D65AB
:404680006D6F727920636C656172656421202A2A2A2A2A2A2A2A2A2A2A2A2A2A0A0D00000D0A2A2A2A2A2A2A2A2A2A2A2A2A2A2A202020202053595354454D205245534568
:4046C0005421202020202A2A2A2A2A2A2A2A2A2A2A2A2A2A0A0D00002020202020202020202020202020202020202020202020203C3C2D2D2D20504F525441424C45204486
:40470000415441204143515549534954494F4E20424F415244202D2D2D3E3E202020202020202020202020202020200D0A506C656173652073656C65637420796F7572206F
:40474000706572736F6E616C2073657474696E67730D0A00202020204C6567656E643A0D0A0000002020202020202020422F62202D2D3E2053746172742044617461204159
:4047800063717569736974696F6E0D0A2020202020202020462F66202D2D3E2053656C6563742046756C6C205363616C652052616E67650D0A2020202020202020502F70B9
:4047C000202D2D3E2053656C6563742053616D706C696E67204672657175656E63790D0A20202020202020204C2F6C202D2D3E2053656C65637420416E616C6F67205365D4
:404800006E736F720D0A2020202020202020532F73202D2D3E2053746F702064617461206163717569736974696F6E0D0A2020202020202020562F76202D2D3E205669738D
:4048400075616C697A65206461746120696E204243500D0A2020202020202020552F75202D2D3E204578697420646174612076697375616C697A6174696F6E0D0A202020A3
:404880002020202020203F20202D2D3E204D61696E204D656E750D0A0000000050686F746F7265736973746F72000000506F74656E74696F6D6574657200000049646C693A
:4048C0006E670000416371756972696E6700000053616D706C696E67206672657175656E6379203D20256420487A207C2000000046756C6C207363616C652072616E676587
:40490000203D202B2D256420670D0A00416E616C6F672073656E736F72203D202573207C200000005374617465203D202573200D0A0000000A0D7C46756C6C205363616C88
:40494000652052616E67652020202020202020202020202020202020202020207C0A7C203120202020202020207C202B2D2032672020202020202020202020202020202025
:40498000202020207C0A7C203220202020202020207C202B2D20346720202020202020202020202020202020202020207C0A7C203320202020202020207C202B2D203867EC
:4049C00020202020202020202020202020202020202020207C0A7C203420202020202020207C202B2D20313667202020202020202020202020202020202020207C0A0D000C
:404A00000A0D7C2053616D706C696E67204672657175656E63792020202020202020202020202020202020207C0A7C203120202020202020207C202031487A2020202020D4
:404A4000202020202020202020202020202020207C0A7C203220202020202020207C203130487A2020202020202020202020202020202020202020207C0A7C2033202020CE
:404A800020202020207C203235487A2020202020202020202020202020202020202020207C0A7C203420202020202020207C203530487A2020202020202020202020202038
:404AC00020202020202020207C0A0D000A0D7C2053656E736F722020202020202020202020202020202020202020202020202020202020207C0A7C20302020202020202004
:404B0000207C2053746F7265206C756D696E6F736974792064617461202020207C0A7C203120202020202020207C2053746F726520706F74656E74696F6D657465722064C6
:404B4000617461207C0A0D002D2D3E2050686F746F7265736973746F720A0D002D2D3E20506F74656E74696F6D657465720A0D003D510040005B00403D510040005B0040E8
:404B800010100880035B00402443004040000000004F00403000405100403000F05100401000000001408008000901408005000F01400001001401408006001B0140000156
:404BC00000400140000A004C0140000200500140200000006052004078070048060080080140800700488000800E0140000800488000801A01408008004880004300232DB6
:404C0000302B2000686C4C006566674546470030313233343536373839414243444546003031323334353637383961626364656600000000F8B500BFF8BC08BC9E46704752
:404C40004D00000081150000F8B500BFF8BC08BC9E46704729000000684C0000C880FF1F90000000A801000000000000070000000083FF1F01FFFF007F80000000040000AC
:404C80000000E02EC05D00001800000000366E01FF0000000000000000000000000000000000000000000000000000000000000000000000FC4B00000000000000000000C6
:404CC00000000000000000000000000000000000000000000000000000000000000000000000000000000000000000000000000000000000F480FF1F000000000000000022
:404D00000000000000000000000000000000000000000000000000000000000000000000000000000000000000000000000000000000000000000000000000000000000073
:404D40000000000000000000000000000000000000000000000000000000000000000000000000000000000000000000000000000000000000000000000000000000000033
:404D800000000000000000000000000000000000000000000000000000000000000000000000000000000000000000000000000000000000000000000000000000000000F3
:404DC00000000000000000000000000000000000000000000000000000000000000000000000000000000000000000000000000000000000000000000000000000000000B3
:020000040003F7
:0200000480007A
:40000000084F00400452004002640040046500400403014001050140040701402A0801404A0901405A0A0140470B0140560C01404B0D0140050E0140350F014002150140BD
:400040005518014040190140141A0140441B0140064001401B4101401442014013430140064401400E45014005460140034701400248014006490140034C0140074D014061
:40008000055001400351014001400A870D4016871940222725402E1B0060014010021102880F8F0F880F890D8A388B72E202E603EA04EE03E60AE201E642EC10EE2004313C
:4000C000064E08310AC60E08128C1430164018AC1A431E5332F0340F39203A283F104050410649FF4AFF4BFF4DA04F04501856025724580459045A045B045C035D155F0180
:40010000604062C06440654066C068C06AC06CC06EC0000401120211049808080A040D020E080F22114512081408160419221A041B201C101E081F042108230427042A59FB
:400140003208336039543E083F04430849814C084D804E015008534861086260634067046D556E506F407601830487408F4090AC910894109555965497089B109D049E054D
:400180009F40A102A208A313A410A604B040C0EFC2F6C40FCA0FCC0ECE0ED002D238D82FE640EC10EE20017204010572081809500B220D220F5012011401150117F419E3CB
:4001C0001A061B0C1D722001240C25222612281629A32A082B582C0130013180331F341C3560360237013820390A3E413F40580459045C115F0183108407871088078B10E6
:4002000095049709980299059A049B0A9C089D0E9E01A510A910AD03AF04B00CB203B310B70FB80AB980BE14BF04C034C106C50EC6C0C70BC819C9FFCAFFCBFFCEF0CF44CE
:40024000D00CD440D604D804D904DA04DB04DC23DD23DF01E6C0EA40EB0201240418050807040A540E080F061101122919A11B021D0A1F102084210422A8264027102828C6
:400280002A042D082E802F04322833403650370839543A013C083D023F2640084204450147044C145504571064016612671084108602871090889310941098019A909B08AD
:4002C0009C209D85A210A301A404A50EA680AC40AF20B121C066C2CEC40FCA76CC7ECEEFD0C0D220D8F0E0080031010802C2040D0508089209080A680C0D0D0413081452D6
:40030000151416A41760182019161AD01B611C021E0D1F20200D2108240D280D2B082D512F023160330834F03507360F37103AA03B203F444003454049FF4A074BFF4C40C9
:400340004D204EF04F05500854095604580459045A045B045C225D235F01604061A86240632084DC862288108AAC8D018E03900992D0980C9A719B029C109E40A414AE2081
:40038000B01FB102B301B4E0BA20BF04D804D904DC53DF01005806A2070809020A080B010E2A10021108120813101640171418481A081E0A1F1020202202240226082748B5
:4003C0002C042EA23020340135023610374838423B023C803D823E1445084C404F01540257015C805D055F20674280208340860287408810910492149720988499029AD25C
:400400009B149C209D859F08A161A210A680AA40AF40B402C0F7C2EBC475CAB0CCF4CEF8D040D6F0D890E201EE01540956045B045D105F01040206200729088009800C8096
:400440000E600F081501164017141DA01E402408261027212E222F02361037093D823E144520468047094C064D06554056105704582059856280634067206C016D036E144C
:400480006F167480760288048B02C0F0C2F0C470CAB0CCE0CEF0D0E0D230D60FD849EC10EE040121038005630801090C0D0F0F70117F1573170C190C1B731F732504294238
:4004C0002D08311C33803401350F37603A803B223E105401580459045B045C335D305F018203840586028A088F019301940696019E08A204A802AA04AF02B007B102B30179
:40050000B408BE10C036C102C240C401C5BEC6FDC70CC81FC9FFCAFFCBFFCC22CEF0CF0CD004D280D405D804D904DA04DB04DC51DD51DF01E2C0E440E501E610E711E8C0DD
:40054000E901EB11EC40ED01EE40EF0100040102030804300A020B101080120819021A081E0A2020220124402504270528202A802B102D802E1832013440361137043B80C1
:400580003C403E25400441444302488049244B10526459415A085C225E4872808E408F10902491089380960299219B109D049E44A208A31AA410A620A740C04EC205C40A3E
:4005C000CA78CCF1CEF8D00FD204D6FB020108020B0112061F01220132043401360237013E103F4054185604580459045B045C055D305F0100100340051007100B800E1040
:4006000010801558181419401D921E141F0220012402269027602E292F0232803582361137043A103C403D084448458247044C8156105B015F20600563806D506F1075800F
:4006400076288008810289048A019040938096159B059C409DC09E28A104A201A610A740A812A942C06AC228C4E8CAF0CCF8CE54D0F0D210D621D80DEA01EC10338834024C
:4006800036203940CCF0CE10114032803301374839805C026501800284208620954099019B40A620A788A901AB40AC02C440CCF0CE10D680D880E240E6C0EA20EEC010086C
:4006C0001280134015801701322054405B025F02878295809F09A020A680A788C4F0CC10D440D6C0E6506E107020710874208108821087088F089F08A020A708AE20AF404A
:40070000B040B408DA80DCE0E280E640130273107C01C408DC01DE0102040310570282048B10940197109F10AB02B710C00AD604E401EE02450887029401A702D001A508D5
:40074000B401EC082510C82075029902A902B510DE20EE200B01A508C20210808880AB01B508C408E601EC08002E0C2E0E2E102A1C2A00FF01FF022B0C0400004000000060
:400780002000D00011302200D1300800D900003000000000080304142E01811A00300000D9300000D902001D2403490CD8000120F00000200F1F00000000322000000004AD
:4007C0005003000000D0010216FFFFFF00AF0F04180000004000040004040404111500014000C0004040C000C000C000C000C000000000000000000000000000000000002B
:40080000049A8000049800025602099807023800011300640AFC1003602100D884000000849A000080000400843800C0009800027F0000E0800F0813020000280000500019
:400840006304200005DEFC0B1FFFFFFF2200F008040000000000022804040404222200010000C00040011011C00100114001400100000000000000000000000000000000D8
:4008800000000000FC00000108001600003900C200FF000090E7491800790084001000000001000044088900FC180000200000462080C0201C1F0358000200200000400472
:4008C0003402050001E0C0000AFFFFFF62A0F0410C000000000002110404040433330001000000000000400200103010001010120000000000000000000000000000000088
:4009000000606000600000008400508C8C008C00000000008000408B8B00000000000000140001161200020000000000000101000000180014001801000A000000000000B9
:400940000000000000000000000000000000000000000000000000000000000000000000000000000000000000000000000000000000000000000000000000000000000077
:400980000000000000000000000000000000000000000000000000000000000000000000000000000000000000000000000000000000000000000000000000000000000037
:4009C00000000000000000000000000000000000000000000000000000000000000000000000000000000000000000000000000000000000000000000000000000000000F7
:400A000000000000000000000000000000000000000000000000000000000000000000000000000000000000000000000000000000000000000000000000000000000000B6
:0200000490006A
:0400000000004005B7
:0200000490105A
:04000000BC90ACAF55
:0200000490303A
:02000000C968CD
:0200000490402A
:4000000000000000000000000000000000000000000000000000000000000000000000000000000000000000000000000000000000000000000000000000000000000000C0
:400040000000000000000000000000000000000000000000000000000000000000000000000000000000000000000000000000000000000000000000000000000000000080
:400080000000000000000000000000000000000000000000000000000000000000000000000000000000000000000000000000000000000000000000000000000000000040
:4000C0000000000000000000000000000000000000000000000000000000000000000000000000000000000000000000000000000000000000000000000000000000000000
:0200000490501A
:0C00000000012E16106900012E34D9D129
:00000001FF