:400000000080002011000000191600001916000008B5044B1A6803F53F5302331A6001F01BFB00BFFA46004010B5054C237833B9044B13B10448AFF300800123237010BD02
:400040006081FF1F0000000060430000084B10B51BB108490848AFF300800848036803B910BD074B002BFBD0BDE81040184700BF000000006481FF1F60430000C880FF1F8C
:4000800000000000F0B5002330E05E1C845DA408D454845DC55CDF1C10F807E0AD0845EA841444EA1E14945503F1020EC45D10F80E505E1D10F806C02D0945EA041444EA09
:4000C0009C1402F80E4010F806E01D1D445DA40944EA8E04D455074CA4FB037464080F5D57550C44647894550633DBB2BF2BCCD9F0BD00BFABAAAAAA43789B0023F03F0392
:400100000B70027843789B0943EA82034B7083781B0123F03F038B70427883781B0943EA0213CB70C3789B010B718278C3789B0843EA82134B7103798B714379CB71704771
:400140002DE9F04383B004460D463F4B186801902378607843EA002040F3891003F048FC03F0FEF836A3D3E9002303F04DF906460F46DFF8DC8098F80030C3F3810302AAB4
:40018000134413F8040C03F0D9F832463B4603F03BF900222D4B03F061FA03F047FB2880A378E07843EA002040F3891003F020FC03F0D6F822A3D3E9002303F025F90646C7
:4001C0000F4698F80030C3F3810302AA134413F8040C03F0B3F88046894602460B463046394603F011F90022184B03F037FA03F01DFB68802379607943EA002040F38910AA
:4002000003F0F6FB03F0ACF80DA3D3E9002303F0FBF802460B464046494603F0F5F800220A4B03F01BFA03F001FBA880A379E07943EA002001F0A4FEE88003B0BDE8F08322
:4002400077BE9F1A2F9D234064430000000024407E83FF1FF8B50B4C24788CB11F460D460646104601F00EFF002404E0305D01F009FF0134E4B2AC42F8D3384601F002FF80
:40028000F8BD00BF9081FF1F2DE9F047B8B062B601F0D4FE01F00EFC01F0FEFB02F0CAF80A2002F029FE02F02DFB0A2002F024FE954C964E2146304600F04AFB0723238033
:4002C000934C32789349204603F026FC204601F0E5FE914F384601F0E1FE904D2946307800F09EFC2A786B78A97800918C49204603F012FC204601F0D1FE00F013FD284631
:4003000000F028FD874801F0C9FE222000F0F8FC0246854D28708549204603F0FDFB204601F0BCFE242000F0EBFC024628708049204603F0F1FB204601F0B0FE2E2000F0CD
:40034000DFFC024628707B49204603F0E5FB204601F0A4FE202000F0D3FC024628707649204603F0D9FB204601F098FE232000F0C7FC024628707149204603F0CDFB2046FD
:4003800001F08CFE384601F089FE01F00DFE3078C0F3001001F018FE01F0DEFD02F022FC00F044FF664801F05FFA664801F000FB654801F0EBFB654802F04EFE644802F0B0
:4003C00005FE644801F09EFB00F0F4FC624B1B78012B6FD14D4F00253D70504C2146284600F01EFC204600F0B5FC474E0724348002223146284600F0B9FA00F0EDFADFF87A
:400400007091A9F80040554B1D70284601F0ECFA284601F0EFFA284601F0FCF901F08CF901F044FADFF8ECA0394C3A785146204603F072FB204601F031FE2E2000F060FC10
:400440000246DFF8E48088F800003A49204603F063FB204601F022FE202000F051FC024688F800003449204603F056FB204601F015FE232000F044FC024688F800002F493F
:40048000204603F049FB204601F008FE3A785146204603F041FB204601F000FEB9F8003032882F49204603F037FB204601F0F6FD294B1D702B4B1B78002B68D0134C2178C2
:4004C000022000F017FA00F087FA022000F0FAF90246154B18700E4D23782349284603F01BFB284601F0DAFD0C4D284600F032FC2B781B09013B1D4A1370237813F0200F85
:4005000038D001F079F937E07C83FF1F7E83FF1FA882FF1F70430000984300007883FF1FC0430000084400007183FF1F1C4400003844000054440000704400008C440000B5
:40054000A90D00009D0D0000E50D0000011200000D120000151200007283FF1F7C81FF1FA84400008483FF1FD84400009C81FF1FCC80FF1F01F0E0F8B34B1A78B34B03EB8B
:400580004203988801F0F8F80022B14B1A70B14B1B78002B50D0AF4B5B78042B4CD8AE4D2A78AE4E3270AE4CAE49204603F0B4FA204601F073FDAC4800F06EFB024628702C
:4005C000AA49204603F0A8FA204601F067FD32782B789A422BD0002001F006FA002001F009FA0722A24B1A800023A24A13709E4CE370204600F0AEFB01F09EF82E2000F0C6
:400600007FFB02469C4B1870954D9C49284603F083FA284601F042FD204600F03DFB01468D4B1870022000F065F900F0D5F9894B00221A7005225A70914B1B78012B23D1E3
:40064000894D904E864C2A783146204603F064FA204601F023FD2A781209013AD2B27A4D2A703146204603F057FA204601F016FD01F076F92A78754B03EB4203988801F03F
:400680002FF900227E4B1A707F4B1B78012B09D107237E4A1380764A13800023754A1370794A13707A4B1A787A4B1B78002A14BF002303F00103002B33D0744B1A886C4BAB
:4006C0001B889A4202D30722704B1A80062206A96E4B188800F02AF904A906A8FFF70CFD02A904A8FFF72CFDBDF90E30002B02DA0023ADF80E30BDF90E2041F288339A4266
:4007000001DDADF80E30C023A02208210DEB0100FFF7A0FD5D4A13880633138000225D4B1A70544A5A4B197853780B401278002A14BF002303F00103002B3FF447AE464BCD
:400740001A785549464803F0E7F9312000F0D8FA494C20702F2000F0D3FA207060224F49282000F00BFB00F0C5FA10F0400FFAD160224B49282000F001FB00F0BBFA10F004
:40078000400FFAD108AA47494448FFF77BFC384B1A884549324803F0BFF9374B1B7803F05F025F2A06D003F01F0303EB43035E00F6B200E0C026002519E09A090132C3EB8D
:4007C0008213DBB2741BA342A8BF2346DCB200F003F9274F224608AB5919388800F0C6F800F0FAF82544EDB23B881C443C80B54205D21F4B1B8847F6FE729342DDD91C4C64
:4008000002222146002000F0B1F800F0E5F8B4F90030002B11DA0124164B1C7012480023C37000F039FA0C4B1870094B1C70312001F0DAF8192001F0DDF80023144A1370F9
:400840000C4A5370C2E500BF9C81FF1F644300008483FF1FD080FF1F7E83FF1F7483FF1FA882FF1F044500007883FF1F1C4500007C83FF1F7C81FF1F7183FF1F3445000082
:400880008583FF1F584500008283FF1FCC80FF1F7E81FF1F7F81FF1F80430000A881FF1F0882FF1F6882FF1F7045000008B5052000F0CAF808BD00BF08B5062000F094F8C7
:4008C00008BD00BF00B583B003218DF80410030A8DF805308DF8060002AA002302F8053D012301A800F040F99DF8030003B05DF804FB00BF30B583B004460D46FFF7DCFF98
:4009000002238DF80430230A8DF805308DF806408DF80750002302AA02F8053D04210DEB010000F021F903B030BD00BF10B582B003248DF80440030A8DF805308DF8060080
:4009400013460A46214601A800F00EF902B010BD38B505460C460220FFF7B4FF2870022221460020FFF7E2FF38BD00BF2DE9F04383B000AF80468946144602F085FB05464E
:40098000FFF79AFF012002F0CDFAE61C04F10A0323F00703ADEB030D02238DF800304FEA18238DF801308DF80280224649460DF1030003F09DF8002307F1080202F8013D1D
:4009C000F1B2684600F0D0F8284602F061FB0C37BD46BDE8F08300BF08B5FFF767FF10F0010FFAD108BD00BF10B50446002001F097F8204601F0C2FB01F098FB10F0080F3F
:400A0000FAD001F025FC0446012001F089F8204610BD00BF10B50446002001F08DF8204601F014FE002001F011FE01F0E7FD10F0010FFAD001F074FE01F072FE04460120FF
:400A400001F07AF8204610BD10B50446002001F067F8204601F092FB002001F08FFB01F065FB10F0010FFAD001F0F2FB01F0F0FB0446012001F054F8204610BD10B5044613
:400A8000002001F059F8207801F0E0FD607801F0DDFD01F0B3FD10F0010FFAD0012001F04BF801F0C9FE01F06DFE01F08BFE10BD2DE9F04383B006460C461746984600202B
:400AC00001F03AF864B2002511E02146082CA8BF0821C9B206EBC50001F09EFE01F08EFD10F0010FFAD0083C64B201356DB2002CEBDC01F0A1FE01F045FE002600960196AF
:400B00004FFA88F820E0C146B8F1080FA8BF4FF008095FFA89F1684601F07EFE01F06EFD10F0010FFAD0002406E004EBC60501F0F7FD78550134E4B24C45F6DBA8F10808FE
:400B40004FFA88F8013676B2B8F1000FDBDC012000F0F2FF01F070FE01F014FE01F032FE03B0BDE8F08300BF2DE9F04383B006460C4617469846002000F0D2FF64B200255E
:400B800011E02146082CA8BF0821C9B206EBC50001F0DAFB01F0CAFA10F0010FFAD0083C64B201356DB2002CEBDC01F0DDFB01F081FB0026009601964FFA88F820E0C14698
:400BC000B8F1080FA8BF4FF008095FFA89F1684601F0BAFB01F0AAFA10F0010FFAD0002406E004EBC60501F033FB78550134E4B24C45F6DBA8F108084FFA88F8013676B23A
:400C0000B8F1000FDBDC012000F08AFF01F0ACFB01F050FB01F06EFB03B0BDE8F08300BF00F00303032B0ED8DFE803F00205080B17230B7007E027230B7004E037230B70FB
:400C400001E047230B70C0F38103032B0ED8DFE803F00205080B00234B7007E010234B7004E020234B7001E030234B70C0F300130BB11BB904E000238B7001E001238B70B3
:400C8000C0F3401008B118B970470023CB7070478023CB70704700BF0378DBB2372B05D0472B05D0272B05D0002304E0022302E0032300E001234278D2B2202A06D0302AEA
:400CC00007D0102A07D143F0040304E043F0080301E043F00C038278D2B2012A01D143F01003C278D2B2802A01D143F020031846704700BF08B5AF20FFF78CFE08BD00BFD7
:400D000008B540F08000FFF785FE08BD00B583B08DF804008DF8051001A8FFF7AFFE03B05DF804FB08B580212420FFF7EFFF00212E20FFF7EBFF02212220FFF7E7FF48212B
:400D40002420FFF7E3FF024801F0A8F908BD00BF8C45000010B5044601782020FFF7D6FF61782320FFF7D2FFE1782E20FFF7CEFF014801F093F910BD9445000000B583B0F2
:400D800060F03F0302A800F8013D13460A460121FFF78EFE03B05DF804FB00BF0122014B1A7070477E81FF1F0122014B5A7070477E81FF1F08B5074B00221A7005225A7028
:400DC000054801F06BF9054801F068F9044801F065F908BDD080FF1FA4450000104600002046000070B501F037F90246974B1870974C9849204602F08FFE204601F04EF900
:400E0000954D6B782A789549204602F085FE204601F044F92B78002B40F0B8808B4B1B78423B342B00F2D981DFE813F03500D701D701D7016300D701D701D701D701D70115
:400E40007700D701D701D7016D00D701D7014E00D701D7018100D701D701D701D701D701D701D701D701D701D701D7013500D701D701D7016300D701D701D701D701D70137
:400E80007700D701D701D7016D00D701D7014E00D701D7018100C72000F0A6FD642000F0A9FD00246C4B1C706D488023C370FFF7F3FE6C4B18706C4B1C7007226B4B1A802F
:400EC00001226B4B1A7070BD002000F08DFD002000F090FD0023604A13706148C370FFF7DBFE604B18700122614B1A70FFF762FF70BD00F0DBFC5F4801F0D0F8534B1A78C9
:400F0000554B1A7070BD00F0D1FC5B4801F0C6F84E4B1A78504B1A7070BD00F0C7FC574801F0BCF8494B1A784B4B1A7070BD002000F05AFD002000F05DFD494D0023EB707F
:400F40002846FFF707FF414B1A78434B1A704C4E3F4C4C4B1A783146204602F0DDFD204601F09CF82846FFF797FE02463D4B18703146204602F0D0FD204601F08FF8012003
:400F800000F048FC0122404B1A7070BD562B01D0762B13D12D4B1B78552B04D0752B02D03F2B40F01A8100F081FC0122374B1A70002000F02FFCFFF7FDFE70BD463B2A2BF0
:400FC00000F20B81DFE813F02B0009010901090109010901E3000901090109018500090109010901090109010901090109010901090109010901090109010901090109011C
:4010000009010901090109012B0009010901090109010901E30009010901090185000B4B1B78313B0E2B50D8DFE803F008343C444F4F4F4F4F4F4F4F4F4F4C00144B1A7826
:40104000074B5A700122044B5A7070BD7F83FF1FA882FF1FE0460000D080FF1FF44600007883FF1F7E83FF1F7C81FF1F7C83FF1F8483FF1F0C470000D8470000A4480000C2
:40108000804300007483FF1F8583FF1F8283FF1F84450000514B5A78514B5A700222514B5A7070BD4D4B9A784D4B5A7003224D4B5A7070BD494BDA78494B5A700422494BFD
:4010C0005A7070BDFFF776FE70BD0522454B5A7070BD454B1B78313B0E2B54D8DFE803F0081A2C3E5353535353535353535350003E4B1A7842F00702394B1A703C4C3D497A
:40110000204602F009FD204600F0C8FF0122354B5A7070BD354B5A7842F00702304B1A700221304B5970324C3249204602F0F4FC204600F0B3FF70BD2C4B9A7842F0070267
:40114000274B1A700321274B5970294C2949204602F0E2FC204600F0A1FF70BD234BDA7842F007021E4B1A7004211E4B5970204C2049204602F0D0FC204600F08FFF70BD85
:40118000FFF718FE70BD0522164B5A7070BD164B1B78312B0FD03F2B19D0302B1AD1002000F012FF00240F4B5C70134800F076FF0B4B9C7070BD012000F006FF0124094B66
:4011C0005C700E4800F06AFF054B9C7070BDFFF7F1FD70BD0522034B5A7070BD844500007883FF1FD080FF1F7F83FF1F88450000A882FF1F20490000384900004C4900006A
:401200000122014B1A7070477D81FF1F08B500F0ADFA08BD08B50122024B1A70024800F03DFF08BD7283FF1F6049000038B541F6FF734FF480420121022001F0D5FE05462D
:4012400001F01CFE044606230246402101F030FE074A92B244F61061204601F03DFE2146284601F0DDFD0121284601F091FD38BD6882FF1FFEE700BFF0B40022174611E0F2
:4012800050F82760F3B226F0FF0608E001EB420511F812406D78A5550132013BDBB2002BF4D10137222FEBD9F0BC7047084B1B78DBB203F00701074A11701B090132137094
:4012C0009022054B1A704422A3F2E2231A707047CF0100496E580040585B004008B50A46002102F010FC08BD08B502F001FC08BD38B500243B4B1C80502202331A700B221C
:4013000002331A80182338490B7002310A80374A13701925023215800232137045F6BF5208310A8002310B7002310A80304A137043F697222F4B1A8002331D7004222E494C
:401340002E48FFF7D1FF02222D4B1A7008224FF040231A70032103F500731970294B1B78DBB229490B70294B1A8041F25122023B1A800CE0264B1B7803F0010343EA440435
:4013800004F003044FF4F07001F076FE013D0DB1032CEFD115B90320FFF76CFF1D4B4FF480721A8007221A7000221B490A704820023108701A700222033B1A7004220A3317
:4013C0001A70164A137843F07F031370013A137843F001031370013A137843F08003137038BD00BF80400040864000408A4000409640004098400040640900480041004099
:401400000043004008010049A146004022420040254200400440004006400040A2430040012814D810B44000C0B2094B53F820101A18147C0A7822430A700130C0B253F8CB
:4014400020201844017C13780B43137010BC704784490000012816D810B44000C0B20A4B53F820101A18147C0A7822EA04020A700130C0B253F820201844017C137823EADB
:401480000103137010BC704784490000012808D8044B03EB800252691844017F13780B431370704784490000012809D8054B03EB800252691844017F137823EA0103137096
:4014C000704700BF8449000038B572B63C4A137843F00403137000240BE03A4863001A19510001440A46898C106AFFF7F7FE0134E4B2092CF1D900240CE03248A20011191F
:401500004B000344B3F86420196ED86DFFF7ECFE0134E4B2022CF0D92B494FF09040FFF7ABFE0A24294B1C70042229492948FFF7DBFE294A137843F00203137010321378CE
:4015400043F002031370254D2B7843F040032B70A2F58632513A137843F01003137008221F492048FFF7C0FE22461F491F48FFF7BBFE22461E491F48FFF7B6FE22461E4919
:401580001E48FFF7B1FE08221D491E48FFF7ACFE1D4A137843F0080313701C4C61232370FFF7A6FE812323700122194B1A70FFF77DFE0E2229461748FFF796FE38BD00BFC9
:4015C000E8460040844900008C00004883580040680900485076004003500140A0430040300900480251004038090048C051004044090048105100405009004820510040D5
:401600005C09004832510040224300400048004004000840B043004008B502F03DFA03680C2B00D1FEE7FEE708B5094B1A681044084BC31A802B02DC054B186005E002F02C
:401640002BFA0C2303604FF0FF32104608BD00BFD480FF1FD083FF1F08B5104E104D16E029686B68AC68002204E051F8040B43F8040B0432A242F8D1E868002203E000219F
:4016800043F8041B04328242F9D11035013E002EE6D102F007FAFEF7F7FDFEE701000000584A000008B5114A114B1A60114A136843F40073136000230AE0032B03D80E4AF0
:4016C00052F8231000E00D490D4A42F8231001332F2BF2D90B4B1A780B4B1A70084A0B4B1A60FFF7F1FE01F039FB08BD0004FA050CED00E014ED00E0000000001916000075
:401700000080FF1FBC760040C080FF1F08ED00E0084A137843F0010313701032137843F00103137002F64D32137843F001031370704700BFA3430040084A137803F0FE031F
:401740001370A2F65D32137803F0FE0313701032137803F0FE031370704700BF004F0040014B1870704700BF034F0040014B1878704700BF034F0040014B1880704700BF5A
:40178000044F0040014B1880704700BF064F004008B5164A137803F0010313700232137803F0FC031370124B1A7802F0CF021A701A7842F030021A701A7802F0F0021A7095
:4017C0001A7842F00F021A700A4A137843F00103137040F2E730FFF7CFFF40F2E730FFF7D1FF0820FFF7BCFF08BD00BF004F00400B4F0040014F004008B5054B1B7823B943
:40180000FFF7C6FF0122024B1A70FFF781FF08BD8181FF1F044A137803F0FE0300F0010018431070704700BF30510040014B1B685866704708ED00E04001C0B2014B187028
:40184000704700BF09E400E04FF40072014B1A60704700BF00E100E04FF40072014B1A60704700BF80E100E010B50446FFF7F4FF2046FFF7DBFF0720FFF7DEFFFFF7E4FF40
:4018800010BD00BF084A137843F0020313701032137843F00203137002F65932137843F001031370704700BFA3430040084A137803F0FE031370A2F66932137803F0FD0313
:4018C00013701032137803F0FD031370704700BF0C4F0040014B1870704700BF0F4F0040014B1880704700BF104F0040014B1880704700BF124F004008B5164A137803F09A
:40190000010313700232137803F0FC031370124B1A7802F0CF021A701A7842F030021A701A7802F0F0021A701A7842F00F021A700A4A137843F00103137040F2E730FFF7F9
:40194000CFFF40F2E730FFF7D1FF0820FFF7C2FF08BD00BF0C4F0040174F00400D4F004008B5054B1B7823B9FFF7C6FF0122024B1A70FFF787FF08BD8281FF1F014B1B68E8
:40198000D865704708ED00E04001C0B2014B1870704700BF07E400E08022014B1A60704700E100E08022014B1A60704780E100E010B50446FFF7F6FF2046FFF7DFFF0720FB
:4019C000FFF7E2FFFFF7E8FF10BD00BF024A137843F08003137070477A640040014B1880704700BF106A0040014B1880704700BF906A0040014B1880704700BF506A0040C6
:401A0000014B1870704700BF8A640040014B1878704700BF6A640040014B188880B27047B06A004008B501E0FFF7F6FFFFF7EEFF10F0100FF8D108BD08B5154A137803F0EC
:401A4000C00343F00903137002F58F72137843F0010313700132137843F0010313700020FFF7BCFF0020FFF7BFFF0020FFF7C2FF0020FFF7C5FF01F007FB064A137843F0D5
:401A80001003137001F004FBFFF7CCFF08BD00BF7A6400409A64004008B5054B1B7823B9FFF7CAFF0122024B1A70FFF78FFF08BD8381FF1F054A137843F04003137010324A
:401AC000137843F040031370704700BFA2430040014B1B681864704708ED00E04001C0B2014B1870704700BF00E400E00122014B1A60704700E100E00122014B1A6070472E
:401B000080E100E010B50446FFF7F6FF2046FFF7DFFF0720FFF7E2FFFFF7E8FF10BD00BF044A137803F0EF03000100F0100018431070704720510040044A137803F07F0379
:401B4000C001C0B218431070704700BF10510040014B1B681866704708ED00E04001C0B2014B1870704700BF08E400E04FF48072014B1A60704700BF00E100E04FF4807237
:401B8000014B1A60704700BF80E100E010B50446FFF7F4FF2046FFF7DBFF0720FFF7DEFFFFF7E4FF10BD00BF10B59DF80840012C51D1013809282ED8DFE800F0052D2D059F
:401BC0002D2D0F192D230F2B03D92548007840B222E02448007840B21EE00F2B03D92248007840B218E02148007840B214E00F2B03D91F48007840B20EE01E48007840B202
:401C00000AE00F2B03D91C48007840B204E01B48007840B200E0002001EB401101FB02F1C90B8AB20D2B0BD8C3F10E0289B211418AB2611E124800EB810101338B7005E0E7
:401C4000631E0F4901EB83030F219970013C0C4B23F8242010BD002001F04CF910BD00BF180100491C010049190100491D0100491A0100491E0100491B0100491F01004912
:401C80008481FF1FF8B5074601F0FEF906460D4D2B7843F003032B700B4C237843F0030323700A4B1F70032001F03CF92B7803F0FC032B70237803F0FC032370304601F060
:401CC000E7F9F8BDF8460040F9460040925800400022334B1A71012860D12DE9F0413222304B1A70052602331E70072201331A70002401331C7001331C7016232A4A13705A
:401D000002321470013214700132147001250A321570142702F5276217700132167001321370224B1C70442203331A70482201331A7001331D704FF00208023383F8008064
:401D4000222201331A70282201331A70EB2201331A705220FFF796FF5822154B1A7001331C7005331E70013383F8008001331C7001331C70204600F083FECD220D4B1A6060
:401D80002946042000F0A0FE2946384600F050FF09491D2001F0D0F8BDE8F081704700BF8481FF1F004E0040064E004087580040945800408883FF1FA51F0000F0B583B0AD
:401DC000284D01272F70284E00247471102000F069FE102000F01AFF07211D2001F0C0F80422224B1A7001331C7007331C70204A137843F0180313701E4B1C7003F2F523EF
:401E00001C7001331C700A23A2F2872213700132147002321470122105321170132101321170043214701421A2F68C221170009747F6060248F66B510220FFF7B5FE2B782D
:401E4000013B06EB83039A780B4B1A702B78013B36F82320094B1A802878FFF739FF03B0F0BD00BFD880FF1F8481FF1F96580040075B0040935800400E4E00400C4E0040C8
:401E800070B501F001F906462A4B1B782A4B1A7842F001021A701A7842F010021A7010331A7842F001021A701A7842F010021A70224D2B7843F002032B70214C237843F084
:401EC000020323701F4A137843F003031370032001F028F82B7803F0FD032B70237803F0FD032370184A137843F0060313707A22164B1A70164A137843F0010313701032FA
:401F0000137843F0010313700F3A137843F0010313701032137843F0010313704FF000530C4A1360A2F5C0721360304601F0B0F870BD00BFD880FF1FAA430040F846004094
:401F4000F9460040915800407758004082580040A143004080E200E008B5084B9B794BB9064BDB7913F0FF0F01D1FFF727FF0122024B9A71FFF784FF08BD00BF8481FF1FC3
:401F8000064B9B68C01A4FF47A7303FB00F0044B1B6890FBF3F000B2704700BF8481FF1F8883FF1F704700BF10B5002404E02046FFF750FA0134E4B2012CF8D9FF22014B02
:401FC0001A7010BDD980FF1F10B50446FFF7ECFF2046FFF725FA014B1C7010BDD980FF1F7222074B1A70202201331A700622653B1A70472210331A70002251331A707047AD
:402000008A65004010B501F03FF804460A4A137843F0200313700132137843F010031370043A137843F01003137000F06DFE204601F02EF810BD00BF9A65004008B5054BB9
:402040001B7823B9FFF7CCFF0122024B1A70FFF7D9FF08BD9081FF1F084B1B78DBB213F0200F06D0064A1078C0B213F01E0F02D17047002070470020704700BF6B65004078
:402080004A650040034B1B7813F0040FFAD1024B18707047676500404765004038B5074B1B782BB938BDFFF7EDFF0134A4B201E005460024285D0028F5D138BD9081FF1FEC
:4020C0000822014B1A60704700E100E00422014B1A60704700E100E008B500F0D5FF0C4A137843F0200313700432137843F010031370FC32137843F01003137000F0C8FF16
:4021000000F010FEFFF7DCFFFFF7E0FF08BD00BF986400400822014B1A60704780E100E00422014B1A60704780E100E010B5FFF7F1FF064B1C78064A137803F009031C43A6
:4021400000231370FFF7BCFF204610BD6C6400408C83FF1F10B5FFF7E3FF064B1B78064A147804F040041C4300231370FFF7AEFF204610BD68650040A883FF1F10B50446C3
:402180002B4B1A7802F0FF0312B1013BDBB200E00723284A1278D2B29342F1D0FFF7BAFF254B1978254A137803F009030B4313701F4B1A78D2B21F4B1B78DBB29A4207D13F
:4021C0001E4B1B7813F0040F02D01D4B1C702CE0184A13780133DBB213701378DBB2072B02D90022134B1A70124B1A78D2B2104B1B78DBB29A420ED10D4A13780133DBB24F
:4022000013701378DBB2072B02D90022084B1A7001220C4B1A70074B1B78DBB20A4AD4540A4A137843F004031370FFF749FF10BDA583FF1FA683FF1F6C6400408C83FF1F94
:40224000486400409883FF1F9083FF1F8C64004010B5FFF765FF134B1A78D2B2124B1B78DBB29A4214D0114B1B7813F0FF0F0CD10C4A13780133DBB213701378DBB2072BBC
:4022800006D90022074B1A7002E00022074B1A70044B1B78DBB2064AD45CE4B2FFF716FF204610BD8D83FF1FA783FF1FA483FF1F9C83FF1F08B501E0094B1B78094B1B783A
:4022C00013F0200FF8D1FFF72BFF0023064A1370064A1370064A1370FFF7F8FE08BD00BF5864004068650040A483FF1F8D83FF1FA783FF1F08B500F0C7FE0E4B1A7842F064
:4023000001021A701A7802F0FE021A7000F0C0FEFFF700FF0023084A1370084A1370084A1370084A137803F0FB031370FFF7C8FE08BD00BF986400409883FF1FA583FF1F71
:40234000A683FF1F8C64004070B506460C46002506E0705DFFF712FF0135EDB2013CE4B2002CF6D170BD00BF08B501E00A4B1B780A4B1B7813F0200FF8D100F085FE084B8E
:402380001A7842F001021A701A7802F0FE021A7000F07EFE08BD00BF58640040686500409864004010B50F22174B1A70174C082323600721032000F0D3FD1549032000F01A
:4023C000BBFD042323600721022000F0C9FD1149022000F0B1FDFFF7C7FF00240E4B1C700E4B1C700E4B1C700E4B1C700E4B1C700E4B1C70FFF79AFEFFF7ACFE0C4B1C7012
:402400002022FC331A7010BD8864004080E100E051240000F1240000A483FF1F8D83FF1FA783FF1F9883FF1FA583FF1FA683FF1F8C64004008B5054B1B7823B9FFF7B2FF09
:402440000122024B1A70FFF747FE08BD9281FF1F28E01F4B19781F4A137803F009030B431370137813F0040F24D01B4B1B7813F0FF0F0CD1194A13780133DBB21370137831
:40248000DBB2072B06D90022144B1A7002E00022114B1A70114B1B78DBB2114AD35CDBB2104A13700D4B1A78D2B20F4B1B78DBB29A42CED1094B1A78D2B20B4B1B78DBB2D6
:4024C0009A4204D1094A137803F0FB03137070476C6400408C83FF1F9883FF1FA583FF1F9083FF1F48640040A683FF1F8C640040204B1A7820490B7803F0400313430B70E2
:4025000032E01E4B1A78D2B21D490B780133DBB20B700B78DBB2072B02D90021184B1970174B1978C9B2174B1B78DBB299420ED114490B780133DBB20B700B78DBB2072BB3
:4025400002D900210F4B197001210F4B19700C4B1B78DBB20D49CA54064B1A7806490B7803F0400313430B70034B1B7813F0200FC7D1704768650040A883FF1F586400401C
:40258000A783FF1F8D83FF1FA483FF1F9C83FF1F2022014B1A60704700E100E01022014B1A60704700E100E008B500F06DFD0C4A137843F0200313700232137843F010035D
:4025C0001370043A137843F01003137000F060FD00F0B6FBFFF7DCFFFFF7E0FF08BD00BF9B6400402022014B1A60704780E100E01022014B1A60704780E100E010B5FFF7C4
:40260000F1FF064B1C78064A137803F009031C4300231370FFF7BCFF204610BD6D640040C883FF1F10B5FFF7E3FF064B1B78064A147804F040041C4300231370FFF7AEFF4B
:40264000204610BD69640040AF83FF1F10B504462B4B1A7802F0FF0312B1013BDBB200E00723284A1278D2B29342F1D0FFF7BAFF254B1978254A137803F009030B43137099
:402680001F4B1A78D2B21F4B1B78DBB29A4207D11E4B1B7813F0040F02D01D4B1C702CE0184A13780133DBB213701378DBB2072B02D90022134B1A70124B1A78D2B2104B4A
:4026C0001B78DBB29A420ED10D4A13780133DBB213701378DBB2072B02D90022084B1A7001220C4B1A70074B1B78DBB20A4AD4540A4A137843F004031370FFF749FF10BD1C
:40270000C983FF1FB083FF1F6D640040C883FF1F4D640040BC83FF1FB483FF1F8D64004010B5FFF765FF134B1A78D2B2124B1B78DBB29A4214D0114B1B7813F0FF0F0CD1E3
:402740000C4A13780133DBB213701378DBB2072B06D90022074B1A7002E00022074B1A70044B1B78DBB2064AD45CE4B2FFF716FF204610BDAE83FF1FAC83FF1FAD83FF1F80
:40278000C083FF1F08B501E0094B1B78094B1B7813F0200FF8D1FFF72BFF0023064A1370064A1370064A1370FFF7F8FE08BD00BF5D64004069640040AD83FF1FAE83FF1F7A
:4027C000AC83FF1F08B500F05FFC0E4B1A7842F001021A701A7802F0FE021A7000F058FCFFF700FF0023084A1370084A1370084A1370084A137803F0FB031370FFF7C8FEE4
:4028000008BD00BF9D640040BC83FF1FC983FF1FB083FF1F8D64004070B506460C46002506E0705DFFF712FF0135EDB2013CE4B2002CF6D170BD00BF08B501E00A4B1B78DB
:402840000A4B1B7813F0200FF8D100F01DFC084B1A7842F001021A701A7802F0FE021A7000F016FC08BD00BF5D640040696400409D64004038B50F22174B1A70174C202533
:4028800025600721052000F06BFB1549052000F053FB102323600721042000F061FB1149042000F049FBFFF7C7FF00240E4B1C700E4B1C700E4B1C700E4B1C700E4B1C70D6
:4028C0000E4B1C70FFF79AFEFFF7ACFE0C4B1C70043B1D7038BD00BF8B64004080E100E021290000C1290000AD83FF1FAE83FF1FAC83FF1FBC83FF1FC983FF1FB083FF1FBC
:402900008D64004008B5054B1B7823B9FFF7B2FF0122024B1A70FFF747FE08BD9381FF1F28E01F4B19781F4A137803F009030B431370137813F0040F24D01B4B1B7813F0BF
:40294000FF0F0CD1194A13780133DBB213701378DBB2072B06D90022144B1A7002E00022114B1A70114B1B78DBB2114AD35CDBB2104A13700D4B1A78D2B20F4B1B78DBB2C4
:402980009A42CED1094B1A78D2B20B4B1B78DBB29A4204D1094A137803F0FB03137070476D640040C883FF1FBC83FF1FC983FF1FB483FF1F4D640040B083FF1F8D640040F9
:4029C000204B1A7820490B7803F0400313430B7032E01E4B1A78D2B21D490B780133DBB20B700B78DBB2072B02D90021184B1970174B1978C9B2174B1B78DBB299420ED15D
:402A000014490B780133DBB20B700B78DBB2072B02D900210F4B197001210F4B19700C4B1B78DBB20D49CA54064B1A7806490B7803F0400313430B70034B1B7813F0200F9A
:402A4000C7D1704769640040AF83FF1F5D640040AC83FF1FAE83FF1FAD83FF1FC083FF1F10B5002404E02046FEF71EFD0134E4B2012CF8D9FF22014B1A7010BDDA80FF1F16
:402A800010B50446FFF7ECFF2046FEF7FFFC014B1C7010BDDA80FF1F014B188880B2704780400040034B1A7800F0F80010431870704700BF82400040024B187800F00700EF
:402AC000704700BF8240004070B505460E46FFF7F3FF0446FFF7E0FFA84256D02B4B1B7803F0010294B900B185B938B9284B1D80284A137803F0BF03137070BD254A1378EB
:402B000043F040031370224B1D8070BD22B3002321490B7001240F310C7004310B700C390B7803F07F030B701A4B1B7813F0080F00D08DB9194B18800721013B1970164BCD
:402B40001B7813F0010FFAD110490B7803F0FE030B700021104B19700C4B1B7813F0010F0DD00E4B1D800EB1032200E001220A4B1A70094B1B7813F0010FFAD170BD044BBD
:402B80001D8002490B7813430B7070BDA243004080400040824000400140004002400040704700BF024B1B68C3F8B400704700BF08ED00E04001C0B2014B1870704700BF85
:402BC0001DE400E04FF00052014B1A60704700BF00E100E04FF00052014B1A60704700BF80E100E008B5FFF7F5FF0448FFF7DAFF0720FFF7DFFFFFF7E5FF08BDA12B000030
:402C0000014B188880B2704700410040034B1A7800F0F80010431870704700BF02410040024B187800F00700704700BF0241004070B505460E46FFF7F3FF0446FFF7E0FF0A
:402C4000A84256D02B4B1B7803F0010294B900B185B938B9284B1D80284A137803F0BF03137070BD254A137843F040031370224B1D8070BD22B3002321490B700124133136
:402C80000C7004390B7008390B7803F07F030B701A4B1B7813F0080F00D08DB9194B18800721013B1970164B1B7813F0010FFAD110490B7803F0FE030B700021104B1970F9
:402CC0000C4B1B7813F0010F0DD00E4B1D800EB1032200E001220A4B1A70094B1B7813F0010FFAD170BD044B1D8002490B7813430B7070BDA143004000410040024100406C
:402D00000140004002400040054A137843F0080313701032137843F008031370704700BFA2430040054A137843F0040313701032137843F004031370704700BFA243004010
:402D4000054A137843F0020313701032137843F002031370704700BFA24300400B4A7F2313708021517007E0DA0002F1804202F5F042013BDBB21370002BF5D1DB0003F114
:402D8000804303F5F04300221A707047DC80FF1F172815D831B103010A495A5C42F020025A5405E0030107495A5C02F0DF025A540001044A835C43F00103835400207047A8
:402DC000012070471070004017280BD80001064A835C03F0F103490001F00E011943815400207047012070471070004041F6FF73994201D14FF4005141F6FF739A4201D1D8
:402E00004FF40052172808D8C00000F1804000F5EC408180C280002070470120704700BF172805D8034B03EB0010417200207047012070471070004017281BD810B4C0005B
:402E400000F1804404F5EC44D201D2B201F07F01114321709DF804201201D2B203F00F03134363709DF8083003F00F03A3700020E07001E00120704710BC704710B500F003
:402E800003F90A4B5B78182B0BD9084A1478013B5370E30003F1804303F5F0431B78137000E0FF2400F0F4F8204610BDDC80FF1F10F0800F0CD111F4704F0BD1C00000F1C6
:402EC000804000F5F04001808270C37000207047012070470120704710F0800F08D1C00000F1804000F5F0408180C280002070470120704701BE704710B5044605E0084B13
:402F0000186800F0B9F8A4F50044B4F5004FF6D8034B586800FB04F000F0AEF810BD00BFE480FF1F08B5034B1B7A00FB03F000F0A3F808BDE480FF1F70B504460E46074BB7
:402F40001D681F2802D90020FFF7D4FF04F01F04103455F8240045F8246070BD08ED00E038B504460D46072902D90020FFF7C2FF1F2C02D90020FFF7BDFF04F01F0000F1CA
:402F8000604000F564406D01EDB2057038BD00BF014B1B689866704708ED00E04001C0B2014B1870704700BF0AE400E04FF48062014B1A60704700BF00E100E04FF4806237
:402FC000014B1A60704700BF80E100E010B50446FFF7F4FF2046FFF7DBFF0720FFF7DEFFFFF7E4FF10BD00BFF0B583B016461F460B4C0A2525700023019300932B460A4608
:4030000001462846FFF718FF3A4631462078FFF7EDFE02212078FFF7D7FE207803B0F0BDF480FF1F014B1B689865704708ED00E04001C0B2014B1870704700BF06E400E02F
:403040004022014B1A60704700E100E04022014B1A60704780E100E010B50446FFF7F6FF2046FFF7DFFF0720FFF7E2FFFFF7E8FF10BD00BF000000000230800803D000BFA9
:4030800001380046FCD17047EFF3108072B6704780F31088704700BF81F0004102E000BF83F0004330B54FEA41044FEA430594EA050F08BF90EA020F1FBF54EA000C55EA03
:4030C000020C7FEA645C7FEA655C00F0E2804FEA5454D4EB5555B8BF6D420CDD2C4480EA020281EA030382EA000083EA010180EA020281EA0303362D88BF30BD11F0004FD4
:403100004FEA01314FF4801C4CEA113102D0404261EB410113F0004F4FEA03334CEA133302D0524263EB430394EA050F00F0A780A4F10104D5F1200E0DDB02FA0EFC22FA73
:4031400005F2801841F1000103FA0EF2801843FA05F359410EE0A5F120050EF1200E012A03FA0EFC28BF4CF0020C43FA05F3C01851EBE37101F0004507D54FF0000EDCF127
:40318000000C7EEB00006EEB0101B1F5801F1BD3B1F5001F0CD349085FEA30004FEA3C0C04F101044FEA445212F5800F80F09A80BCF1004F08BF5FEA500C50F1000041EB5F
:4031C000045141EA050130BD5FEA4C0C404141EB010111F4801FA4F10104E9D191F0000F04BF01460020B1FA81F308BF2033A3F10B03B3F120020CDA0C3208DD02F1140C9D
:40320000C2F10C0201FA0CF021FA02F10CE002F11402D8BFC2F1200C01FA02F120FA0CFCDCBF41EA0C019040E41AA2BF01EB0451294330BD6FEA04041F3C1CDA0C340EDCD5
:4032400004F11404C4F1200220FA04F001FA02F340EA030021FA04F345EA030130BDC4F10C04C4F1200220FA02F001FA04F340EA0300294630BD21FA04F0294630BD94F0FB
:40328000000F83F4801306BF81F480110134013D4EE77FEA645C18BF7FEA655C29D094EA050F08BF90EA020F05D054EA000C04BF1946104630BD91EA030F1EBF002100204C
:4032C00030BD5FEA545C05D14000494128BF41F0004130BD14F580043CBF01F5801130BD01F0004545F0FE4141F470014FF0000030BD7FEA645C1ABF194610467FEA655CA9
:403300001CBF0B46024650EA013406BF52EA033591EA030F41F4002130BD00BF90F0000F04BF0021704730B54FF4806404F132044FF000054FF0000150E700BF90F0000F78
:4033400004BF0021704730B54FF4806404F1320410F0004548BF40424FF000013EE700BF42004FEAE2014FEA31014FEA02701FBF12F07F4393F07F4F81F06051704792F0C7
:40338000000F14BF93F07F4F704730B54FF4607401F0004521F0004120E700BF50EA010208BF704730B54FF000050AE050EA010208BF704730B511F0004502D5404261EB80
:4033C00041014FF4806404F132045FEA915C3FF4DCAE4FF003025FEADC0C18BF03325FEADC0C18BF033202EBDC02C2F1200300FA03FC20FA02F001FA03FE40EA0E0021FA93
:4034000002F11444C1E600BF70B54FF0FF0C4CF4E06C1CEA11541DBF1CEA135594EA0C0F95EA0C0F00F0DEF82C4481EA030621EA4C5123EA4C5350EA013518BF52EA03353F
:4034400041F4801143F4801338D0A0FB02CE4FF00005E1FB02E506F00042E0FB03E54FF00006E1FB03569CF0000F18BF4EF0010EA4F1FF04B6F5007F64F5407404D25FEA20
:403480004E0E6D4146EB060642EAC62141EA55514FEAC52040EA5E504FEACE2EB4F1FD0C88BFBCF5E06F1ED8BEF1004F08BF5FEA500E50F1000041EB045170BD06F0004634
:4034C00046EA010140EA020081EA0301B4EB5C04C2BFD4EB0C0541EA045170BD41F480114FF0000E013C00F3AB8014F1360FDEBF002001F0004170BDC4F10004203C35DA0A
:403500000C341BDC04F11404C4F1200500FA05F320FA04F001FA05F240EA020001F0004221F0004110EBD37021FA04F642EB06015EEA430E08BF20EAD37070BDC4F10C04A4
:40354000C4F1200500FA04F320FA05F001FA04F240EA020001F0004110EBD37041F100015EEA430E08BF20EAD37070BDC4F1200500FA05F24EEA020E20FA04F301FA05F2C1
:4035800043EA020321FA04F001F0004121FA04F220EA020000EBD3705EEA430E08BF20EAD37070BD94F0000F0FD101F00046400041EB010111F4801F08BF013CF7D041EAC1
:4035C000060195F0000F18BF704703F00046520043EB030313F4801F08BF013DF7D043EA0603704794EA0C0F0CEA135518BF95EA0C0F0CD050EA410618BF52EA4306D1D1C1
:4036000081EA030101F000414FF0000070BD50EA410606BF1046194652EA430619D094EA0C0F02D150EA013613D195EA0C0F05D152EA03361CBF104619460AD181EA030194
:4036400001F0004141F0FE4141F470014FF0000070BD41F0FE4141F4780170BD70B54FF0FF0C4CF4E06C1CEA11541DBF1CEA135594EA0C0F95EA0C0F00F0A7F8A4EB050441
:4036800081EA030E52EA03354FEA013100F088804FEA03334FF0805545EA131343EA12634FEA022245EA111545EA10654FEA00260EF000419D4208BF964244F1FD0404F59C
:4036C000407402D25B084FEA3202B61A65EB03055B084FEA32024FF480104FF4002CB6EB020E75EB030E22BFB61A754640EA0C005B084FEA3202B6EB020E75EB030E22BFA1
:40370000B61A754640EA5C005B084FEA3202B6EB020E75EB030E22BFB61A754640EA9C005B084FEA3202B6EB020E75EB030E22BFB61A754640EADC0055EA060E18D04FEA7C
:40374000051545EA16754FEA06164FEAC30343EA52734FEAC2025FEA1C1CC0D111F4801F0BD141EA00014FF000004FF0004CB6E711F4801F04BF01430020B4F1FD0C88BF4D
:40378000BCF5E06F3FF6AFAEB5EB030C04BFB6EB020C5FEA500C50F1000041EB045170BD0EF0004E4EEA113114EB5C04C2BFD4EB0C0541EA045170BD41F480114FF0000E8C
:4037C000013C90E645EA060E8DE60CEA135594EA0C0F08BF95EA0C0F3FF43BAF94EA0C0F0AD150EA01347FF434AF95EA0C0F7FF425AF104619462CE795EA0C0F06D152EA5C
:4038000003353FF4FDAE1046194622E750EA410618BF52EA43067FF4C5AE50EA41047FF40DAF52EA43057FF4EBAE12E74FEA410212F5001215D211D56FF47873B3EB6252B8
:4038400012D94FEAC12343F0004343EA505311F0004F23FA02F018BF404270474FF00000704750EA013005D111F0004008BF6FF0004070474FF00000704700BF80F0004091
:4038800002E000BF81F0004142001FBF5FEA410392EA030F7FEA226C7FEA236C6AD04FEA1262D2EB1363C1BFD218414048404140B8BF5B42192B88BF704710F0004F40F4A4
:4038C000000020F07F4018BF404211F0004F41F4000121F07F4118BF494292EA030F3FD0A2F1010241FA03FC10EB0C00C3F1200301FA03F100F0004302D5494260EB40008D
:40390000B0F5000F13D3B0F1807F06D340084FEA310102F10102FE2A51D2B1F1004F40EBC25008BF20F0010040EA03007047490040EB000010F4000FA2F10102EDD1B0FA11
:4039400080FCACF1080CB2EB0C0200FA0CF0AABF00EBC25052421843BCBFD0401843704792F0000F81F4000106BF80F400000132013BB5E74FEA41037FEA226C18BF7FEA88
:40398000236C21D092EA030F04D092F0000F08BF0846704790EA010F1CBF0020704712F07F4F04D1400028BF40F00040704712F100723CBF00F50000704700F0004343F017
:4039C000FE4040F4000070477FEA226216BF08467FEA23630146420206BF5FEA412390EA010F40F4800070474FF0000304E000BF10F0004348BF40425FEA000C08BF704729
:403A000043F0964301464FF000001CE050EA010208BF70474FF000030AE000BF50EA010208BF704711F0004302D5404261EB41015FEA010C02BF84460146002043F0B643F8
:403A400008BFA3F18053A3F50003BCFA8CF2083AA3EBC25310DB01FA02FC634400FA02FCC2F12002BCF1004F20FA02F243EB020008BF20F00100704702F1200201FA02FC35
:403A8000C2F1200250EA4C0021FA02F243EB020008BF20EADC707047014B1868704700BF5881FF1F0E4B70B51E460E4C0025E41AA410A54204D056F8253098470135F8E7FA
:403AC00000F0B8FF084B094C1E46E41AA4100025A54204D056F8253098470135F8E770BD404A0000404A0000404A0000484A000010B5431E0A44914204D011F8014B03F822
:403B0000014FF8E710BD03460244934202D003F8011BFAE7704700000EB400B54FF402719CB0ADF814106FF00041049107914FF6FF711DAB02900690084853F8042BADF881
:403B40001610006802A9019300F064F8029B00221A701CB05DF804EB03B070475881FF1F2DE9F0478E6882469E420C46914698463ED88A8912F4906F3AD025680969022324
:403B80006F1A656905EB450595FBF3F57B1C43449D4238BF1D4653050FD5294600F040FB064698B13A462169FFF7A2FFA38923F4906343F08003A38113E02A4600F08EFBAD
:403BC000064670B92169504600F0DEFA0C23CAF80030A3894FF0FF3043F04003A381BDE8F08726613E44266046466561ED1BA560464528BF464649463246206800F0A8FAEA
:403C0000A36800209B1BA36023681E442660BDE8F08700002DE9F04F9DB003938B8980461C060D4616460DD50B695BB9402100F0F7FA2860286118B90C23C8F80030CDE0D4
:403C400040236B610023099320238DF82930DFF89CB130238DF82A3037463C4614F8013B1BB9B7EB060910D003E0252BF9D02746F3E74B46324629464046FFF771FF01305B
:403C800000F0A780099B4B4409933B78002B00F0A08000234FF0FF3204930793059206938DF853301A930126052221784E4800F041FA671C049B38B14B4A3C46801A06FA23
:403CC00000F018430490EFE7D90644BF20228DF853201A0744BF2B228DF8532022782A2A03D0079A00210A200BE0039A111D12680391002A10DA524243F00200079204900F
:403D00000BE027463B780134303B092B03D800FB02320121F5E701B107923B782E2B1ED17B782A2B0AD1039B02371A1D1B680392002BB8BF4FF0FF33059310E000231946F0
:403D40000593781C0A2407463A780130303A092A03D804FB01210123F5E703B1059103223978224800F0E6F940B14023CBEB000003FA00F0049B0137184304903978062231
:403D80001B487E1C8DF8281000F0D4F988B1194B33B9039B073323F007030833039314E003AB00932A46144B04A94046AFF3008007E003AB00932A460F4B04A9404600F0CF
:403DC00093F8B0F1FF3F824603D0099B5344099342E7AB895B0601D4099801E04FF0FF301DB0BDE8F08F00BF004A0000064A00000A4A000000000000613B00002DE9F047DD
:403E000091461F460A698B6806469342B8BF1346C9F8003091F843200C46DDF8208012B10133C9F800302368990642BFD9F800300233C9F80030256815F0060510D104F19E
:403E4000190A07E00123524639463046C04701301AD00135E368D9F800209B1A9D42F1DB94F843302268003318BF012392060FD5E118302081F843005A1C94F8451022449E
:403E8000023382F8431003E04FF0FF30BDE8F08704F1430239463046C0470130F4D02268D9F80050E36802F00602042A08BF5D1B2269A3680CBF25EAE57500259342C4BFC4
:403EC0009B1AED184FF000091A344D4509D00123224639463046C0470130D5D009F10109F3E70020BDE8F0872DE9F04317460A7E85B06E2A984606460C460C9B01F1430E2E
:403F000000F0AE8011D8632A22D009D8002A00F0BB80582A40F0CA8081F84520834955E0642A1ED0692A1CD0C0E0732A00F0B08009D86F2A2ED0702A40F0B8800A6842F074
:403F400020020A603EE0752A24D0782A3AD0ADE01A6801F14205111D1960136884F84230A8E021681A6811F0800F02D0111D196008E011F0400F02F10401196002D0B2F93E
:403F8000003000E01368002B3CDA2D225B4284F8432037E021681A6811F0800F02D0111D196007E011F0400F02F10401196001D0138800E01368227E5C496F2A14BF0A22F3
:403FC00008221BE078225A4984F845202268186812F0800F00F104051D6003D1550601D5038800E00368D00744BF42F0200222601BB9226822F0200222601022002084F8FF
:40400000430001E049490A226568002DA56008DB206820F0040020602BB9002D7DD175460CE0002B79D07546B3FBF2F002FB1033CB5C05F8013D03460028F5D1082A0BD1F4
:404040002368DA0708D5236962689A42DEBF302305F8013C05F1FF35C5EB0E0323612EE008681A6810F0800F496903D0101D1860136808E010F0400F02F1040018601368D7
:4040800001D0198000E0196000232361754616E01A68111D1960156800216268284600F049F808B1401B6060636804E004F1420584F8422001232361002384F84330CDF899
:4040C00000803B4603AA21463046FFF797FE013002D14FF0FF3026E023692A4639463046C0470130F5D023689B0710D5002504F1190907E001234A4639463046C04701302E
:40410000E7D00135E368039A9B1A9D42F2DBE068039B9842B8BF184605E00B7804F1420584F842308AE705B0BDE8F083114A0000224A000010B5C9B202449042034605D0A7
:404140001C7801308C42F8D1184610BD002010BD884210B501EB020301D8421E0BE09842FBD28118D21AD34204D013F8014D01F8014DF8E710BD994204D011F8014B02F8C8
:40418000014FF8E710BD000038B50546002944D051F8043C0C1F002BB8BFE41800F0D4F81E4A1368114613B96360146030E0A3420DD92268A018834201BF18685B68121834
:4041C000226063600C6023E0A24203D813465A68002AF9D118681918A1420BD12168014458188242196013D110685268014419605A600DE002D90C232B6009E02168601858
:40420000824201BF106852680918216062605C602846BDE8384000F098B838BD9881FF1F70B5CD1C25F0030508350C2D38BF0C25002D064601DBA94202D90C23336046E0E5
:4042400000F082F8234B1C681A462146A1B10B685B1B0ED40B2B03D90B60CC18CD501EE08C420BBF63684B681360636018BF0C4615E00C464968E9E7174C23681BB930460D
:4042800000F052F820602946304600F04DF8431C18D0C41C24F00304A0420DD12560304600F053F804F10B00231D20F00700C31A0ED05A42E25070BD211A304600F034F818
:4042C0000130EBD10C233360304600F03EF8002070BD00BF9881FF1F9481FF1FF8B5074615460E4621B91146BDE8F840FFF798BF1AB9FFF749FF2846F8BD00F027F88542EF
:404300000ED929463846FFF78BFF044650B131462A46FFF7EDFB31463846FFF735FF01E03046F8BD2046F8BD38B5064C0023054608462360FDF778F9431C02D1236803B17F
:404340002B6038BDCC83FF1F7047704751F8040C0028BEBF091851F8043CC018043870470000000004081030E8036400280014002A2A20454550524F4D20526561640D0AA9
:40438000636F6E6669675F726567203D203078253032780D0A0000002A2A2A2A2A2A2A2A2A2A2A2A2A2A2A2A2A2A2A2A2A2A2A2A2A2A2A2A2A2A2A2A2A2A2A2A2A0D0A0086
:4043C0002A2A204C495333444820556E7A69700D0A465320202020203D203078253032780D0A465352202020203D203078253032780D0A414E414C4F47203D20307825304F
:4044000032780D0A000000002A2A204C49533344482052656164202A2A0D0A004354524C5F5245473320202020203D203078253032780D0A000000004354524C5F524547A7
:404440003520202020203D203078253032780D0A000000004649464F5F4354524C5F524547203D203078253032780D0A000000004354524C5F5245473120202020203D207C
:404480003078253032780D0A000000004354524C5F5245473420202020203D203078253032780D0A000000002A2A20496E646578454550524F4D3D203078253032782C2059
:4044C000496E64657853545245414D3D203078253032780D0A0000002A2A205550444154454420636F6E6669675F726567203D203078253032782C203078253032780D0A01
:40450000000000006366675F7267204F4C44203D203078253032780D0A0000006366675F726567204E4557203D203078253032780D0A00004649464F20636F6E74726F6C82
:404540002061667465722073746F70203D20253032780D0A0000000044415441434F4E464947203D203078253032780D0A000000696E646578454550524F4D203D2025649F
:404580000D0A0000001020301020304053544152540D0A0053455420434F4E4649470D0A000000000A0D202020202020202020202020202020202A7C57454C434F4D45207D
:4045C000494E205448452046494E414C2050524F4A4543547C2A202020202020202020202020202020200D0A506C656173652073656C65637420796F757220706572736F73
:404600006E616C2073657474696E67730D0A0000202020204C6567656E643A0D0A0000002020202020202020422F622D2D3E53746172742044617461204163717569736975
:4046400074696F6E0D0A2020202020202020462F662D2D3E53656C6563742046756C6C205363616C652052616E67650D0A2020202020202020502F702D2D3E53656C656344
:40468000742053616D706C696E67204672657175656E63790D0A20202020202020204C2F6C2D2D3E53656C65637420416E616C6F672053656E736F720D0A20202020202080
:4046C0002020532F732D2D3E53746F702064617461206163717569736974696F6E0D0A0063685F7265636569766564203D2025630D0A0000636F6E66696753657473203DAE
:40470000202564202D2025640D0A00007C436861726163746572207C2046756C6C205363616C652052616E67652020202020202020207C0A7C203120202020202020207C67
:40474000202B2D20326720202020202020202020202020202020202020207C0A7C203220202020202020207C202B2D20346720202020202020202020202020202020202045
:4047800020207C0A7C203320202020202020207C202B2D20386720202020202020202020202020202020202020207C0A7C203420202020202020207C202B2D2031366720D9
:4047C0002020202020202020202020202020202020207C0A0D0000007C436861726163746572207C2053616D706C696E67204672657175656E6379202020202020207C0AAE
:404800007C203120202020202020207C202031487A2020202020202020202020202020202020202020207C0A7C203220202020202020207C203130487A2020202020202069
:4048400020202020202020202020202020207C0A7C203320202020202020207C203235487A2020202020202020202020202020202020202020207C0A7C20342020202020C8
:404880002020207C203530487A2020202020202020202020202020202020202020207C0A0D0000007C436861726163746572207C2053656E736F7220202020202020202043
:4048C000202020202020202020207C0A7C203020202020202020207C2053746F7265206C756D696E6F736974792064617461202020207C0A7C203120202020202020207CF7
:404900002053746F726520706F74656E74696F6D657465722064617461207C0A0D00000064617461636F6E666967203D203078253032780D0A0000002D2D3E2050686F7490
:404940006F7265736973746F720A0D002D2D3E20506F74656E74696F6D657465720A0D00484149205052454D55544F20494C2050554C53414E544520444920524553455449
:404980000D0A00003D510040005B00403D510040005B004010100880035B00402443004040000000004F00401800405100403000F0510040100000000140800C000D01408D
:4049C0000003001401400006801A0140800100400140000A004C0140000200500140200060520040280800480600800C0140300800488000001A0140B008004880004300D7
:404A0000232D302B2000686C4C00656667454647003031323334353637383941424344454600303132333435363738396162636465660000F8B500BFF8BC08BC9E46704704
:404A40004D000000A5160000F8B500BFF8BC08BC9E46704729000000684A0000C880FF1F9800000070020000000000000700000000050000D083FF1F01FFFF007F800000E9
:404A8000000400000000E02EC05D00001800000000366E01FF0000000000000000000000000000000000000000000000000000000000000000000000FE49000000000000C4
:404AC0000000000000000000000000000000000000000000000000000000000000000000000000000000000000000000000000000000000000000000F880FF1F0000000020
:404B00000000000000000000000000000000000000000000000000000000000000000000000000000000000000000000000000000000000000000000000000000000000075
:404B40000000000000000000000000000000000000000000000000000000000000000000000000000000000000000000000000000000000000000000000000000000000035
:404B800000000000000000000000000000000000000000000000000000000000000000000000000000000000000000000000000000000000000000000000000000000000F5
:404BC00000000000000000000000000000000000000000000000000000000000000000000000000000000000000000000000000000000000000000000000000000000000B5
:020000040003F7
:0200000480007A
:40000000044F0040035200400364004003650040030301400205014005070140530801404C090140460A0140520B0140110C01403F0D0140040E0140010F01400415014023
:400040006A1601403D1701406E180140481901400B1A0140411B014007400140194101401A4201400A430140044401400845014008460140024701400B480140064C014019
:40008000094D0140065001400351014001500A4B0D40164B004001201102880F8A0D8B0F870F8A728B38E408E680EE0DE244EA24808088818C04E643EA02000E0291049034
:4000C00008D40A28109012201439164218241CB02420269028902A202CB0323834E836073AA0404141064230440245DE46FD47BC483F49FF4AFF4BFF4C224EF04F0850045C
:400100005602572858045A045B045C025D225F0162C0644065016610671168C069016B116C406D016E406F018004840487048A028C048D048F0196049A019E04A602A80433
:40014000AF02B202B301B404B504B601B702BE14D440D604D804D904DB04DC63DD10DF01008001050204041006800720082009480E420F18100813081622171019041A0219
:400180001B101C201D801E0521442210280139883C203F1044084580468047044F155610574660016220636067206E4A6F18760279107B0480118188874088108A849105DA
:4001C00095109645970698089B0C9D059E029F20A048A148A220A410A607A70AAF80B2A0B341B510B701C07FC2F7C4E6CA08CE0AD0F0D220D84FE6A004010B020D02130123
:400200001B021E072602300131023204340235013F01528054055604580459045B045C665D605F01818482108402850A861D871089078A608B388C438D048E948F8090103E
:4002400091849410958498C199049A3A9D019E80A010A156A309A4A3A64CA810A980AB04AD60B17FB308B4E0B580B61FB702B902BA80BF54D602D72CD804D904DB04DC2143
:40028000DD10DF01010804400510062007400B020C810D100E10130814101501171019081A881D101F40210123082510260827852E012F0A301031023210360537A03840FF
:4002C00039203C203E46408041014540474059055A80638067806C086D856E106F1071027440770283408A048D1090409120922095159610970598099C809E809F02A08009
:40030000A108A220A408A540A60AA821AB08B340B40CB501C0F4C2F1C474CAB0CCF5CEFCD60BD881E240EA20050807010D050F0A1D06290B2B0431073508392254095604D5
:4003400059045B045C105D205F01004001070318084009400A10110812411302184419401A201B08200821142748280129022A402B082F08304833103740384039283A019D
:400380003C483D0840444308488449044A0250015108522158A059055D105E405F05614063406680678082488B40AA80AE80C00FC205C40DCA2DCC1ECE5FD007D20CD6FF61
:4003C000D899E408E680EE0139803F4059045F0122808A019202B002B3080010024003130414070C0E03152C170318091AD01D311E201F06201022AC230824DC25312622A6
:40040000270E280C2A71333034E0350F361F39083A203B203F044002460449FF4A074BFF4C404D204EF04F055008580459045A045C335D035F01604061A862406320850A5A
:400440008610875489038B448C0E8D208F45904099539B049C049D539E399F0CA023A204A708A980AC05AE3AB00FB140B380B430B530B640B70FB802B920BB80BE40BF0556
:40048000C051C102C50BC6C0C70EC819C9FFCAFFCBFFCEF0CF44D00CD401D804D904DA04DB04DC32DD33DF01E6C0EA40EB0200440548064008800B800C100F051081171A72
:4004C00018441A021D401F702002228423862408272828102B082F90328033303680370838A83E013F05420143204720480149084C404F015010512053085640578058029F
:4005000059105A085B80613094049881A080C0B5C2C9C479CAC6CC5CCECED02CD208D60FE208E602EC10EE04005202A40420050106D00706089209070A680C0D0F08100D39
:40054000110C1431150C16C2180D1B031C021E0D210C240D2501270629082B042C0D2D042F08330734F03508360F3AA03B083F104030410649FF4AFF4BFF4DA04F0450185C
:4005800054405604580459045A045B045C225D265F01604062C06440654066C068C06AC06CC06EC0842188788A878CE78E189267941898089C10A018A2E7A463A842ACFFFC
:4005C000B003B280B41CB678B808BAA0BB08C030C106C5D0C712C832C9FFCAFFCBFFCDAFCE0FCF04D018D804D904DA04DC33DD06DF01E040E2C0E440E540E6C0E8C0EAC041
:40060000ECC0EEC001A804140680070109A80B400E690F10100211021228162219A01A181B811C041E011F1020202510272028022B012C102E622F08361537013C103E04CD
:400640003F80430445104608470C480849014C0850085204530158105B20661867818480874090109246931197229A929B089C209D019E249F20A205A348A602AA10B00156
:40068000C0F7C2FFC4AFCAF0CCE0CE70D042D224D8F0EC10A401A801AC01B601D418D604D804DB04DC03DD30DF0100200188038009010A5A10A81202155819141A411E0265
:4006C00020012238238029042A083218388239143C203F1040014101420849804A014B505040520259405A015B805C0264806550695C70A871A879027B808C218D08921A01
:40070000974098029CA09D08A010A380A5A9A628AA02B012C00FC20FC4EFCA02CC06CE0FD00DD20CD681D8B0E020EA0130023380358037083B40CCF0CE10138032203308A9
:4007400037823A806201640184408B08930297409D809F08A309A402A780AB09AF01C440CCF0CE10D680D840E410EEB0104016803040532057406302670281808F209302C9
:4007800097409C419D809E819F02A341A402A780AB40B220C430CC10D460D6C0E220EA2087408E0197409E019F02A402A780AC01E640EA4013027F80C408DE010108030191
:4007C00059408780A780AB02C00AD401450289409B019D40B508D001E001EA029B01A5022704840287029F06A402AB80B704C820E210E640EE200B01B301B502C202EC0817
:40080000EE04128073408B408E80AB01C408DC01E004E202004E0C4E0E06104C1A0C1C4C00FF01FF022B0000048C0000400000009E8000409E02000D1DE260180142AC94E4
:40084000000000008A1D1480009D0000148D8A109E9D00001500C80000110022149D0000F1000C0F02F0010002000038000050004603200005BEF0CD3BFFFFFF2200F00CA1
:40088000040000000900040004040404111100010000C00040011011C0010011400140010000000000000000000000000000000067221851046700007F6700000000238098
:4008C0007C000200004480315C01210E00000400100000000800008018000000000080001F8038608007401800000200000050414506020001000CE024FFFFFF62A0F0418E
:400900000C000000000002130404040433330001000000000000400200103010001010120000000000000000000000000000000000606000600000008400508C8C008C00C3
:40094000000000008000408B8B00000000000000140001161200020000000000000303000000180014001801000A000000000000000000000000000000000000000000000D
:400980000000000000000000000000000000000000000000000000000000000000000000000000000000000000000000000000000000000000000000000000000000000037
:4009C00000000000000000000000000000000000000000000000000000000000000000000000000000000000000000000000000000000000000000000000000000000000F7
:400A000000000000000000000000000000000000000000000000000000000000000000000000000000000000000000000000000000000000000000000000000000000000B6
:400A40000000000000000000000000000000000000000000000000000000000000000000000000000000000000000000000000000000000000000000000000000000000076
:0200000490006A
:0400000000004005B7
:0200000490105A
:04000000BC90ACAF55
:0200000490303A
:02000000474671
:0200000490402A
:4000000000000000000000000000000000000000000000000000000000000000000000000000000000000000000000000000000000000000000000000000000000000000C0
:400040000000000000000000000000000000000000000000000000000000000000000000000000000000000000000000000000000000000000000000000000000000000080
:400080000000000000000000000000000000000000000000000000000000000000000000000000000000000000000000000000000000000000000000000000000000000040
:4000C0000000000000000000000000000000000000000000000000000000000000000000000000000000000000000000000000000000000000000000000000000000000000
:0200000490501A
:0C00000000012E16106900012E3457AFCD
:00000001FF